{
    "contractName": "SecureEvidence",
    "abi": [
        {
            "anonymous": false,
            "inputs": [
                {
                    "indexed": false,
                    "internalType": "string",
                    "name": "newGuidelineHash",
                    "type": "string"
                },
                {
                    "indexed": false,
                    "internalType": "address",
                    "name": "updatedBy",
                    "type": "address"
                }
            ],
            "name": "GuidelineHashUpdated",
            "type": "event"
        },
        {
            "anonymous": false,
            "inputs": [
                {
                    "indexed": false,
                    "internalType": "address",
                    "name": "oldSuperAdmin",
                    "type": "address"
                },
                {
                    "indexed": false,
                    "internalType": "address",
                    "name": "newSuperAdmin",
                    "type": "address"
                }
            ],
            "name": "SuperAdminChanged",
            "type": "event"
        },
        {
            "inputs": [],
            "name": "accountCount",
            "outputs": [
                {
                    "internalType": "uint256",
                    "name": "",
                    "type": "uint256"
                }
            ],
            "stateMutability": "view",
            "type": "function"
        },
        {
            "inputs": [
                {
                    "internalType": "string",
                    "name": "_caseTitle",
                    "type": "string"
                },
                {
                    "internalType": "uint256",
                    "name": "_caseID",
                    "type": "uint256"
                },
                {
                    "internalType": "string",
                    "name": "_caseType",
                    "type": "string"
                },
                {
                    "internalType": "string",
                    "name": "_reportHash",
                    "type": "string"
                }
            ],
            "name": "addCase",
            "outputs": [
                {
                    "internalType": "string",
                    "name": "",
                    "type": "string"
                }
            ],
            "stateMutability": "nonpayable",
            "type": "function"
        },
        {
            "inputs": [
                {
                    "internalType": "uint256",
                    "name": "_caseID",
                    "type": "uint256"
                },
                {
                    "internalType": "string",
                    "name": "_evidenceType",
                    "type": "string"
                },
                {
                    "internalType": "string",
                    "name": "_evidenceHash",
                    "type": "string"
                }
            ],
            "name": "addEvidence",
            "outputs": [
                {
                    "internalType": "string",
                    "name": "",
                    "type": "string"
                }
            ],
            "stateMutability": "nonpayable",
            "type": "function"
        },
        {
            "inputs": [
                {
                    "internalType": "string",
                    "name": "_name",
                    "type": "string"
                },
                {
                    "internalType": "uint256",
                    "name": "_ID",
                    "type": "uint256"
                },
                {
                    "internalType": "address",
                    "name": "_accountAddress",
                    "type": "address"
                },
                {
                    "internalType": "string",
                    "name": "_username",
                    "type": "string"
                },
                {
                    "internalType": "enum SecureEvidence.Status",
                    "name": "_status",
                    "type": "uint8"
                },
                {
                    "internalType": "enum SecureEvidence.UserRole",
                    "name": "_role",
                    "type": "uint8"
                }
            ],
            "name": "addNewUser",
            "outputs": [
                {
                    "internalType": "string",
                    "name": "",
                    "type": "string"
                }
            ],
            "stateMutability": "nonpayable",
            "type": "function"
        },
        {
            "inputs": [
                {
                    "internalType": "string",
                    "name": "_caseType",
                    "type": "string"
                },
                {
                    "internalType": "string",
                    "name": "_description",
                    "type": "string"
                },
                {
                    "internalType": "string",
                    "name": "_category",
                    "type": "string"
                },
                {
                    "internalType": "uint8",
                    "name": "_level",
                    "type": "uint8"
                }
            ],
            "name": "addType",
            "outputs": [
                {
                    "internalType": "string",
                    "name": "",
                    "type": "string"
                }
            ],
            "stateMutability": "nonpayable",
            "type": "function"
        },
        {
            "inputs": [],
            "name": "caseCount",
            "outputs": [
                {
                    "internalType": "uint256",
                    "name": "",
                    "type": "uint256"
                }
            ],
            "stateMutability": "view",
            "type": "function"
        },
        {
            "inputs": [
                {
                    "internalType": "uint256",
                    "name": "",
                    "type": "uint256"
                },
                {
                    "internalType": "uint256",
                    "name": "",
                    "type": "uint256"
                }
            ],
            "name": "caseEvidence",
            "outputs": [
                {
                    "internalType": "uint256",
                    "name": "caseID",
                    "type": "uint256"
                },
                {
                    "internalType": "string",
                    "name": "evidenceType",
                    "type": "string"
                },
                {
                    "internalType": "string",
                    "name": "evidenceHash",
                    "type": "string"
                },
                {
                    "internalType": "address",
                    "name": "addedBy",
                    "type": "address"
                },
                {
                    "internalType": "enum SecureEvidence.Status",
                    "name": "status",
                    "type": "uint8"
                }
            ],
            "stateMutability": "view",
            "type": "function"
        },
        {
            "inputs": [
                {
                    "internalType": "uint256",
                    "name": "",
                    "type": "uint256"
                }
            ],
            "name": "cases",
            "outputs": [
                {
                    "internalType": "string",
                    "name": "caseTitle",
                    "type": "string"
                },
                {
                    "internalType": "uint256",
                    "name": "caseID",
                    "type": "uint256"
                },
                {
                    "internalType": "string",
                    "name": "caseType",
                    "type": "string"
                },
                {
                    "internalType": "string",
                    "name": "reportHash",
                    "type": "string"
                },
                {
                    "internalType": "address",
                    "name": "addedBy",
                    "type": "address"
                },
                {
                    "internalType": "enum SecureEvidence.Status",
                    "name": "status",
                    "type": "uint8"
                }
            ],
            "stateMutability": "view",
            "type": "function"
        },
        {
            "inputs": [
                {
                    "internalType": "address",
                    "name": "_newSuperAdmin",
                    "type": "address"
                }
            ],
            "name": "changeSuperAdmin",
            "outputs": [],
            "stateMutability": "nonpayable",
            "type": "function"
        },
        {
            "inputs": [],
            "name": "evidenceCount",
            "outputs": [
                {
                    "internalType": "uint256",
                    "name": "",
                    "type": "uint256"
                }
            ],
            "stateMutability": "view",
            "type": "function"
        },
        {
            "inputs": [
                {
                    "internalType": "uint256",
                    "name": "_ID",
                    "type": "uint256"
                }
            ],
            "name": "getAdminByID",
            "outputs": [
                {
                    "components": [
                        {
                            "internalType": "string",
                            "name": "name",
                            "type": "string"
                        },
                        {
                            "internalType": "uint256",
                            "name": "ID",
                            "type": "uint256"
                        },
                        {
                            "internalType": "address",
                            "name": "accountAddress",
                            "type": "address"
                        },
                        {
                            "internalType": "string",
                            "name": "username",
                            "type": "string"
                        },
                        {
                            "internalType": "enum SecureEvidence.Status",
                            "name": "status",
                            "type": "uint8"
                        },
                        {
                            "internalType": "enum SecureEvidence.UserRole",
                            "name": "role",
                            "type": "uint8"
                        }
                    ],
                    "internalType": "struct SecureEvidence.Account",
                    "name": "",
                    "type": "tuple"
                }
            ],
            "stateMutability": "view",
            "type": "function"
        },
        {
            "inputs": [
                {
                    "internalType": "string",
                    "name": "_caseType",
                    "type": "string"
                }
            ],
            "name": "getCaseByType",
            "outputs": [
                {
                    "components": [
                        {
                            "internalType": "string",
                            "name": "caseTitle",
                            "type": "string"
                        },
                        {
                            "internalType": "uint256",
                            "name": "caseID",
                            "type": "uint256"
                        },
                        {
                            "internalType": "string",
                            "name": "caseType",
                            "type": "string"
                        },
                        {
                            "internalType": "string",
                            "name": "reportHash",
                            "type": "string"
                        },
                        {
                            "internalType": "address",
                            "name": "addedBy",
                            "type": "address"
                        },
                        {
                            "internalType": "enum SecureEvidence.Status",
                            "name": "status",
                            "type": "uint8"
                        }
                    ],
                    "internalType": "struct SecureEvidence.Case[]",
                    "name": "",
                    "type": "tuple[]"
                }
            ],
            "stateMutability": "view",
            "type": "function"
        },
        {
            "inputs": [
                {
                    "internalType": "uint256",
                    "name": "_caseID",
                    "type": "uint256"
                }
            ],
            "name": "getEvidenceByCaseID",
            "outputs": [
                {
                    "components": [
                        {
                            "internalType": "uint256",
                            "name": "caseID",
                            "type": "uint256"
                        },
                        {
                            "internalType": "string",
                            "name": "evidenceType",
                            "type": "string"
                        },
                        {
                            "internalType": "string",
                            "name": "evidenceHash",
                            "type": "string"
                        },
                        {
                            "internalType": "address",
                            "name": "addedBy",
                            "type": "address"
                        },
                        {
                            "internalType": "enum SecureEvidence.Status",
                            "name": "status",
                            "type": "uint8"
                        }
                    ],
                    "internalType": "struct SecureEvidence.Evidence[]",
                    "name": "",
                    "type": "tuple[]"
                }
            ],
            "stateMutability": "view",
            "type": "function"
        },
        {
            "inputs": [
                {
                    "internalType": "uint256",
                    "name": "_ID",
                    "type": "uint256"
                }
            ],
            "name": "getUserByID",
            "outputs": [
                {
                    "components": [
                        {
                            "internalType": "string",
                            "name": "name",
                            "type": "string"
                        },
                        {
                            "internalType": "uint256",
                            "name": "ID",
                            "type": "uint256"
                        },
                        {
                            "internalType": "address",
                            "name": "accountAddress",
                            "type": "address"
                        },
                        {
                            "internalType": "string",
                            "name": "username",
                            "type": "string"
                        },
                        {
                            "internalType": "enum SecureEvidence.Status",
                            "name": "status",
                            "type": "uint8"
                        },
                        {
                            "internalType": "enum SecureEvidence.UserRole",
                            "name": "role",
                            "type": "uint8"
                        }
                    ],
                    "internalType": "struct SecureEvidence.Account",
                    "name": "",
                    "type": "tuple"
                }
            ],
            "stateMutability": "view",
            "type": "function"
        },
        {
            "inputs": [],
            "name": "guidelineHash",
            "outputs": [
                {
                    "internalType": "string",
                    "name": "",
                    "type": "string"
                }
            ],
            "stateMutability": "view",
            "type": "function"
        },
        {
            "inputs": [
                {
                    "internalType": "string",
                    "name": "_username",
                    "type": "string"
                }
            ],
            "name": "login",
            "outputs": [
                {
                    "internalType": "string",
                    "name": "",
                    "type": "string"
                }
            ],
            "stateMutability": "view",
            "type": "function"
        },
        {
            "inputs": [
                {
                    "internalType": "string",
                    "name": "_guidelineHash",
                    "type": "string"
                }
            ],
            "name": "setGuidelineHash",
            "outputs": [],
            "stateMutability": "nonpayable",
            "type": "function"
        },
        {
            "inputs": [],
            "name": "typeCount",
            "outputs": [
                {
                    "internalType": "uint256",
                    "name": "",
                    "type": "uint256"
                }
            ],
            "stateMutability": "view",
            "type": "function"
        },
        {
            "inputs": [
                {
                    "internalType": "string",
                    "name": "",
                    "type": "string"
                }
            ],
            "name": "types",
            "outputs": [
                {
                    "internalType": "string",
                    "name": "caseType",
                    "type": "string"
                },
                {
                    "internalType": "string",
                    "name": "description",
                    "type": "string"
                },
                {
                    "internalType": "string",
                    "name": "category",
                    "type": "string"
                },
                {
                    "internalType": "uint8",
                    "name": "level",
                    "type": "uint8"
                }
            ],
            "stateMutability": "view",
            "type": "function"
        },
        {
            "inputs": [
                {
                    "internalType": "uint256",
                    "name": "_caseID",
                    "type": "uint256"
                },
                {
                    "internalType": "uint256",
                    "name": "_caseTypeIndex",
                    "type": "uint256"
                },
                {
                    "internalType": "string",
                    "name": "_caseType",
                    "type": "string"
                },
                {
                    "internalType": "enum SecureEvidence.Status",
                    "name": "_status",
                    "type": "uint8"
                }
            ],
            "name": "updateCaseStatus",
            "outputs": [],
            "stateMutability": "nonpayable",
            "type": "function"
        },
        {
            "inputs": [
                {
                    "internalType": "uint256",
                    "name": "_caseID",
                    "type": "uint256"
                },
                {
                    "internalType": "uint256",
                    "name": "_evidenceIndex",
                    "type": "uint256"
                },
                {
                    "internalType": "enum SecureEvidence.Status",
                    "name": "_status",
                    "type": "uint8"
                }
            ],
            "name": "updateEvidenceStatus",
            "outputs": [],
            "stateMutability": "nonpayable",
            "type": "function"
        },
        {
            "inputs": [
                {
                    "internalType": "string",
                    "name": "_newGuidelineHash",
                    "type": "string"
                }
            ],
            "name": "updateGuidelineHash",
            "outputs": [],
            "stateMutability": "nonpayable",
            "type": "function"
        },
        {
            "inputs": [
                {
                    "internalType": "uint256",
                    "name": "_ID",
                    "type": "uint256"
                },
                {
                    "internalType": "string",
                    "name": "_name",
                    "type": "string"
                },
                {
                    "internalType": "address",
                    "name": "_accountAddress",
                    "type": "address"
                },
                {
                    "internalType": "string",
                    "name": "_username",
                    "type": "string"
                },
                {
                    "internalType": "enum SecureEvidence.Status",
                    "name": "_status",
                    "type": "uint8"
                },
                {
                    "internalType": "enum SecureEvidence.UserRole",
                    "name": "_role",
                    "type": "uint8"
                }
            ],
            "name": "updateUser",
            "outputs": [
                {
                    "internalType": "string",
                    "name": "",
                    "type": "string"
                }
            ],
            "stateMutability": "nonpayable",
            "type": "function"
        }
    ],
    "bytecode": "600080546001600160a01b03191673f560f40c5dee962dfbf33b0006e86138c9195f9017905560c0604052600a60809081526929bab832b920b236b4b760b11b60a0526001906200005190826200010b565b503480156200005f57600080fd5b50620001d7565b634e487b7160e01b600052604160045260246000fd5b600181811c908216806200009157607f821691505b602082108103620000b257634e487b7160e01b600052602260045260246000fd5b50919050565b601f8211156200010657600081815260208120601f850160051c81016020861015620000e15750805b601f850160051c820191505b818110156200010257828155600101620000ed565b5050505b505050565b81516001600160401b0381111562000127576200012762000066565b6200013f816200013884546200007c565b84620000b8565b602080601f8311600181146200017757600084156200015e5750858301515b600019600386901b1c1916600185901b17855562000102565b600085815260208120601f198616915b82811015620001a85788860151825594840194600190910190840162000187565b5085821015620001c75787850151600019600388901b60f8161c191681555b5050505050600190811b01905550565b61362880620001e76000396000f3fe608060405234801561001057600080fd5b506004361061014d5760003560e01c80637ecba1a9116100c3578063ce4fd42f1161007c578063ce4fd42f146102d7578063d06c2883146102ea578063da2d7e95146102fd578063e30c3ba714610306578063e4af29fc14610326578063f09790dd1461032f57600080fd5b80637ecba1a91461026d578063832581e81461028d5780639f67c3bf14610295578063a2ed5af0146102a8578063a4f56830146102b1578063b90e9c50146102c457600080fd5b80633a92f489116101155780633a92f489146101e457806341858c4b1461020857806341d48cd21461021d578063602d7fe6146102305780636d3b5f1814610247578063703cfe4b1461025a57600080fd5b80630515f315146101525780631002078b1461017b5780631334ee301461019b57806331ba8c0e146101ae5780633a7d280c146101d1575b600080fd5b610165610160366004612b61565b610354565b6040516101729190612c4f565b60405180910390f35b61018e610189366004612c69565b6105e5565b6040516101729190612cac565b6101656101a9366004612d3c565b610951565b6101c16101bc366004612ddd565b610baa565b6040516101729493929190612e1a565b6101656101df366004612ddd565b610d78565b6101f76101f2366004612e68565b611028565b604051610172959493929190612e8a565b61021b610216366004612ed5565b61119b565b005b61021b61022b366004612ddd565b61127c565b610239600c5481565b604051908152602001610172565b61018e610255366004612c69565b6112b6565b610165610268366004612ef0565b6114c1565b61028061027b366004612ddd565b6116c4565b6040516101729190612f42565b610165611af0565b6101656102a3366004613018565b611b7e565b610239600d5481565b6101656102bf3660046130aa565b611f3b565b61021b6102d2366004613117565b6121bb565b61021b6102e5366004612ddd565b612369565b61021b6102f836600461314c565b6123dc565b610239600b5481565b610319610314366004612c69565b6125e1565b60405161017291906131ad565b610239600a5481565b61034261033d366004612c69565b6128ad565b60405161017296959493929190613259565b606060013360009081526002602052604090206004015460ff16600181111561037f5761037f612c82565b1480156103b65750336000908152600260208190526040822060040154610100900460ff16908111156103b4576103b4612c82565b145b806103cb57506000546001600160a01b031633145b6103f05760405162461bcd60e51b81526004016103e7906132c3565b60405180910390fd5b6001600160a01b038581166000908152600260208190526040909120015416156104525760405162461bcd60e51b81526020600482015260136024820152725573657220616c72656164792065786973747360681b60448201526064016103e7565b6040518060c00160405280888152602001878152602001866001600160a01b0316815260200185815260200184600181111561049057610490612c82565b81526020018360028111156104a7576104a7612c82565b90526001600160a01b0386166000908152600260205260409020815181906104cf9082613379565b506020820151600182015560408201516002820180546001600160a01b0319166001600160a01b03909216919091179055606082015160038201906105149082613379565b50608082015160048201805460ff19166001838181111561053757610537612c82565b021790555060a082015160048201805461ff00191661010083600281111561056157610561612c82565b02179055505050600086815260036020526040812080546001600160a01b0319166001600160a01b038816179055600a80549161059d83613439565b91905055506040518060400160405280601981526020017f557365722063726561746564207375636365737366756c6c790000000000000081525090505b9695505050505050565b61061c6040805160c08101825260608082526000602083018190529282018390528082015290608082019081526020016000905290565b60013360009081526002602052604090206004015460ff16600181111561064557610645612c82565b14801561067c5750336000908152600260208190526040822060040154610100900460ff169081111561067a5761067a612c82565b145b8061069157506000546001600160a01b031633145b6106ad5760405162461bcd60e51b81526004016103e7906132c3565b6000828152600360205260409020546001600160a01b0316806107045760405162461bcd60e51b815260206004820152600f60248201526e10591b5a5b881b9bdd08199bdd5b99608a1b60448201526064016103e7565b6001600160a01b0381166000908152600260208190526040822060040154610100900460ff169081111561073a5761073a612c82565b146107765760405162461bcd60e51b815260206004820152600c60248201526b2737ba1030b71030b236b4b760a11b60448201526064016103e7565b6001600160a01b03811660009081526002602052604090819020815160c081019092528054829082906107a8906132f0565b80601f01602080910402602001604051908101604052809291908181526020018280546107d4906132f0565b80156108215780601f106107f657610100808354040283529160200191610821565b820191906000526020600020905b81548152906001019060200180831161080457829003601f168201915b50505091835250506001820154602082015260028201546001600160a01b0316604082015260038201805460609092019161085b906132f0565b80601f0160208091040260200160405190810160405280929190818152602001828054610887906132f0565b80156108d45780601f106108a9576101008083540402835291602001916108d4565b820191906000526020600020905b8154815290600101906020018083116108b757829003601f168201915b5050509183525050600482015460209091019060ff1660018111156108fb576108fb612c82565b600181111561090c5761090c612c82565b81526020016004820160019054906101000a900460ff16600281111561093457610934612c82565b600281111561094557610945612c82565b9052509150505b919050565b606060013360009081526002602052604090206004015460ff16600181111561097c5761097c612c82565b1480156109ea5750336000908152600260208190526040822060040154610100900460ff16908111156109b1576109b1612c82565b14806109ea5750600133600090815260026020819052604090912060040154610100900460ff16908111156109e8576109e8612c82565b145b806109ff57506000546001600160a01b031633145b610a1b5760405162461bcd60e51b81526004016103e790613460565b600585604051610a2b9190613497565b9081526040519081900360200190205460ff1615610a8b5760405162461bcd60e51b815260206004820152601860248201527f43617365207479706520616c726561647920657869737473000000000000000060448201526064016103e7565b60405180608001604052808681526020018581526020018481526020018360ff16815250600786604051610abf9190613497565b90815260405190819003602001902081518190610adc9082613379565b5060208201516001820190610af19082613379565b5060408201516002820190610b069082613379565b50606091909101516003909101805460ff191660ff909216919091179055604051600190600590610b38908890613497565b908152604051908190036020019020805491151560ff19909216919091179055600c8054906000610b6883613439565b909155505060408051808201909152601781527f54797065206164646564207375636365737366756c6c79000000000000000000602082015295945050505050565b8051602081830181018051600782529282019190930120915280548190610bd0906132f0565b80601f0160208091040260200160405190810160405280929190818152602001828054610bfc906132f0565b8015610c495780601f10610c1e57610100808354040283529160200191610c49565b820191906000526020600020905b815481529060010190602001808311610c2c57829003601f168201915b505050505090806001018054610c5e906132f0565b80601f0160208091040260200160405190810160405280929190818152602001828054610c8a906132f0565b8015610cd75780601f10610cac57610100808354040283529160200191610cd7565b820191906000526020600020905b815481529060010190602001808311610cba57829003601f168201915b505050505090806002018054610cec906132f0565b80601f0160208091040260200160405190810160405280929190818152602001828054610d18906132f0565b8015610d655780601f10610d3a57610100808354040283529160200191610d65565b820191906000526020600020905b815481529060010190602001808311610d4857829003601f168201915b5050506003909301549192505060ff1684565b60005460609033906001600160a01b031681148015610de357506001604051602001610da491906134b3565b6040516020818303038152906040528051906020012083604051602001610dcb9190613497565b60405160208183030381529060405280519060200120145b15610e185750506040805180820190915260128152712bb2b631b7b6b29029bab832b920b236b4b760711b6020820152919050565b6001600160a01b03818116600090815260026020819052604090912001541615801590610ea8575082604051602001610e519190613497565b60408051601f1981840301815282825280516020918201206001600160a01b038516600090815260028352929092209192610e909260030191016134b3565b60405160208183030381529060405280519060200120145b15610ff75760016001600160a01b03821660009081526002602052604090206004015460ff166001811115610edf57610edf612c82565b03610fd7576001600160a01b0381166000908152600260208190526040822060040154610100900460ff1690811115610f1a57610f1a612c82565b03610f4a57505060408051808201909152600d81526c2bb2b631b7b6b29020b236b4b760991b6020820152919050565b60016001600160a01b038216600090815260026020819052604090912060040154610100900460ff1690811115610f8357610f83612c82565b03610fb257505060408051808201909152600c81526b2bb2b631b7b6b2902ab9b2b960a11b6020820152919050565b505060408051808201909152600781526657656c636f6d6560c81b6020820152919050565b6040518060600160405280603481526020016135bf603491399392505050565b5050604080518082019091526013815272155cd95c881b9bdd081c9959da5cdd195c9959606a1b6020820152919050565b6008602052816000526040600020818154811061104457600080fd5b90600052602060002090600402016000915091505080600001549080600101805461106e906132f0565b80601f016020809104026020016040519081016040528092919081815260200182805461109a906132f0565b80156110e75780601f106110bc576101008083540402835291602001916110e7565b820191906000526020600020905b8154815290600101906020018083116110ca57829003601f168201915b5050505050908060020180546110fc906132f0565b80601f0160208091040260200160405190810160405280929190818152602001828054611128906132f0565b80156111755780601f1061114a57610100808354040283529160200191611175565b820191906000526020600020905b81548152906001019060200180831161115857829003601f168201915b505050600390930154919250506001600160a01b0381169060ff600160a01b9091041685565b6000546001600160a01b031633146111c55760405162461bcd60e51b81526004016103e790613529565b6001600160a01b03811661121b5760405162461bcd60e51b815260206004820152601e60248201527f496e76616c6964206e657720537570657241646d696e2061646472657373000060448201526064016103e7565b600080546001600160a01b038381166001600160a01b031983168117909355604080519190921680825260208201939093527f6a7fb6694616d75391385b86c21a1cc2628072753f9c7da9731e7b1b083a55e4910160405180910390a15050565b6000546001600160a01b031633146112a65760405162461bcd60e51b81526004016103e790613529565b600e6112b28282613379565b5050565b6112ed6040805160c08101825260608082526000602083018190529282018390528082015290608082019081526020016000905290565b60013360009081526002602052604090206004015460ff16600181111561131657611316612c82565b1480156113845750336000908152600260208190526040822060040154610100900460ff169081111561134b5761134b612c82565b14806113845750600133600090815260026020819052604090912060040154610100900460ff169081111561138257611382612c82565b145b8061139957506000546001600160a01b031633145b6113b55760405162461bcd60e51b81526004016103e790613460565b6000828152600360205260409020546001600160a01b03168061140c5760405162461bcd60e51b815260206004820152600f60248201526e10591b5a5b881b9bdd08199bdd5b99608a1b60448201526064016103e7565b60016001600160a01b038216600090815260026020819052604090912060040154610100900460ff169081111561144557611445612c82565b1480611487575060026001600160a01b038216600090815260026020819052604090912060040154610100900460ff169081111561148557611485612c82565b145b6107765760405162461bcd60e51b815260206004820152600b60248201526a2737ba1030b7103ab9b2b960a91b60448201526064016103e7565b606060013360009081526002602052604090206004015460ff1660018111156114ec576114ec612c82565b1480156115235750336000908152600260208190526040822060040154610100900460ff169081111561152157611521612c82565b145b8061153857506000546001600160a01b031633145b6115545760405162461bcd60e51b81526004016103e7906132c3565b6001600160a01b0385811660009081526002602081905260409091200154166115b55760405162461bcd60e51b8152602060048201526013602482015272155cd95c88191bd95cc81b9bdd08195e1a5cdd606a1b60448201526064016103e7565b6001600160a01b03851660009081526002602052604090206115d78782613379565b506001600160a01b0385166000908152600260205260409020600181018890556003016116048582613379565b506001600160a01b0385166000908152600260205260409020600401805484919060ff19166001838181111561163c5761163c612c82565b02179055506001600160a01b03851660009081526002602081905260409091206004018054849261ff00199091169061010090849081111561168057611680612c82565b02179055505060408051808201909152601981527f557365722075706461746564207375636365737366756c6c790000000000000060208201529695505050505050565b606060013360009081526002602052604090206004015460ff1660018111156116ef576116ef612c82565b1480156117955750336000908152600260208190526040822060040154610100900460ff169081111561172457611724612c82565b148061175d5750600133600090815260026020819052604090912060040154610100900460ff169081111561175b5761175b612c82565b145b806117955750600233600090815260026020819052604090912060040154610100900460ff169081111561179357611793612c82565b145b806117aa57506000546001600160a01b031633145b6117f65760405162461bcd60e51b815260206004820152601a60248201527f4e6f7420616e20616374697665204c6576656c2032205573657200000000000060448201526064016103e7565b6007826040516118069190613497565b9081526040519081900360200190208054611820906132f0565b905060000361186c5760405162461bcd60e51b815260206004820152601860248201527710d85cd9481d1e5c1948191bd95cc81b9bdd08195e1a5cdd60421b60448201526064016103e7565b60098260405161187c9190613497565b9081526020016040518091039020805480602002602001604051908101604052809291908181526020016000905b82821015611ae557838290600052602060002090600502016040518060c00160405290816000820180546118dd906132f0565b80601f0160208091040260200160405190810160405280929190818152602001828054611909906132f0565b80156119565780601f1061192b57610100808354040283529160200191611956565b820191906000526020600020905b81548152906001019060200180831161193957829003601f168201915b5050505050815260200160018201548152602001600282018054611979906132f0565b80601f01602080910402602001604051908101604052809291908181526020018280546119a5906132f0565b80156119f25780601f106119c7576101008083540402835291602001916119f2565b820191906000526020600020905b8154815290600101906020018083116119d557829003601f168201915b50505050508152602001600382018054611a0b906132f0565b80601f0160208091040260200160405190810160405280929190818152602001828054611a37906132f0565b8015611a845780601f10611a5957610100808354040283529160200191611a84565b820191906000526020600020905b815481529060010190602001808311611a6757829003601f168201915b505050918352505060048201546001600160a01b0381166020830152604090910190600160a01b900460ff166001811115611ac157611ac1612c82565b6001811115611ad257611ad2612c82565b81525050815260200190600101906118aa565b505050509050919050565b600e8054611afd906132f0565b80601f0160208091040260200160405190810160405280929190818152602001828054611b29906132f0565b8015611b765780601f10611b4b57610100808354040283529160200191611b76565b820191906000526020600020905b815481529060010190602001808311611b5957829003601f168201915b505050505081565b606060013360009081526002602052604090206004015460ff166001811115611ba957611ba9612c82565b148015611c175750336000908152600260208190526040822060040154610100900460ff1690811115611bde57611bde612c82565b1480611c175750600133600090815260026020819052604090912060040154610100900460ff1690811115611c1557611c15612c82565b145b80611c2c57506000546001600160a01b031633145b611c485760405162461bcd60e51b81526004016103e790613460565b600783604051611c589190613497565b9081526040519081900360200190208054611c72906132f0565b9050600003611cbe5760405162461bcd60e51b815260206004820152601860248201527710d85cd9481d1e5c1948191bd95cc81b9bdd08195e1a5cdd60421b60448201526064016103e7565b60008481526006602052604090206001015415611d165760405162461bcd60e51b81526020600482015260166024820152754361736520494420616c72656164792065786973747360501b60448201526064016103e7565b6040805160c081018252868152602081018690529081018490526060810183905233608082015260a0810160019052600085815260066020526040902081518190611d619082613379565b506020820151600182015560408201516002820190611d809082613379565b5060608201516003820190611d959082613379565b5060808201516004820180546001600160a01b039092166001600160a01b031983168117825560a0850151926001600160a81b03191617600160a01b836001811115611de357611de3612c82565b021790555050600b805491506000611dfa83613439565b90915550506040805160c0810182528681526020810186905280820185905260608101849052336080820152600160a08201529051600990611e3d908690613497565b908152604051602091819003820190208054600181018255600091825291902082518392600502909101908190611e749082613379565b506020820151600182015560408201516002820190611e939082613379565b5060608201516003820190611ea89082613379565b5060808201516004820180546001600160a01b039092166001600160a01b031983168117825560a0850151926001600160a81b03191617600160a01b836001811115611ef657611ef6612c82565b02179055505060408051808201909152601781527f43617365206164646564207375636365737366756c6c790000000000000000006020820152979650505050505050565b606060013360009081526002602052604090206004015460ff166001811115611f6657611f66612c82565b14801561200c5750336000908152600260208190526040822060040154610100900460ff1690811115611f9b57611f9b612c82565b1480611fd45750600133600090815260026020819052604090912060040154610100900460ff1690811115611fd257611fd2612c82565b145b8061200c5750600233600090815260026020819052604090912060040154610100900460ff169081111561200a5761200a612c82565b145b8061202157506000546001600160a01b031633145b61206d5760405162461bcd60e51b815260206004820152601a60248201527f4e6f7420616e20616374697665204c6576656c2032205573657200000000000060448201526064016103e7565b600084815260066020526040812060010154900361209d5760405162461bcd60e51b81526004016103e790613551565b6040805160a0810182528581526020808201868152828401869052336060840152600160808401819052600089815260088452948520805480830182559086529290942083516004909302019182555191928392908201906120ff9082613379565b50604082015160028201906121149082613379565b5060608201516003820180546001600160a01b039092166001600160a01b03198316811782556080850151926001600160a81b03191617600160a01b83600181111561216257612162612c82565b021790555050600d80549150600061217983613439565b909155505060408051808201909152601b81527f45766964656e6365206164646564207375636365737366756c6c790000000000602082015295945050505050565b60013360009081526002602052604090206004015460ff1660018111156121e4576121e4612c82565b1480156122525750336000908152600260208190526040822060040154610100900460ff169081111561221957612219612c82565b14806122525750600133600090815260026020819052604090912060040154610100900460ff169081111561225057612250612c82565b145b8061226757506000546001600160a01b031633145b6122835760405162461bcd60e51b81526004016103e790613460565b60008381526006602052604081206001015490036122b35760405162461bcd60e51b81526004016103e790613551565b60008381526008602052604090205482106123095760405162461bcd60e51b8152602060048201526016602482015275092dcecc2d8d2c840caecd2c8cadcc6ca40d2dcc8caf60531b60448201526064016103e7565b600083815260086020526040902080548291908490811061232c5761232c61357e565b60009182526020909120600360049092020101805460ff60a01b1916600160a01b83600181111561235f5761235f612c82565b0217905550505050565b6000546001600160a01b031633146123935760405162461bcd60e51b81526004016103e790613529565b600e61239f8282613379565b507fc62ca91ca94c9146a6a839a13f5f2056e44cf023b56a2b19696bb251b13d64b281336040516123d1929190613594565b60405180910390a150565b60013360009081526002602052604090206004015460ff16600181111561240557612405612c82565b1480156124735750336000908152600260208190526040822060040154610100900460ff169081111561243a5761243a612c82565b14806124735750600133600090815260026020819052604090912060040154610100900460ff169081111561247157612471612c82565b145b8061248857506000546001600160a01b031633145b6124a45760405162461bcd60e51b81526004016103e790613460565b60008481526006602052604081206001015490036124d45760405162461bcd60e51b81526004016103e790613551565b6009826040516124e49190613497565b90815260405190819003602001902054831061253a5760405162461bcd60e51b8152602060048201526015602482015274092dcecc2d8d2c840c6c2e6caa8f2e0ca92dcc8caf605b1b60448201526064016103e7565b6000848152600660205260409020600401805482919060ff60a01b1916600160a01b83600181111561256e5761256e612c82565b0217905550806009836040516125849190613497565b908152602001604051809103902084815481106125a3576125a361357e565b60009182526020909120600460059092020101805460ff60a01b1916600160a01b8360018111156125d6576125d6612c82565b021790555050505050565b606060013360009081526002602052604090206004015460ff16600181111561260c5761260c612c82565b14801561267a5750336000908152600260208190526040822060040154610100900460ff169081111561264157612641612c82565b148061267a5750600133600090815260026020819052604090912060040154610100900460ff169081111561267857612678612c82565b145b8061268f57506000546001600160a01b031633145b6126ab5760405162461bcd60e51b81526004016103e790613460565b60008281526006602052604081206001015490036126db5760405162461bcd60e51b81526004016103e790613551565b600082815260086020908152604080832080548251818502810185019093528083529193909284015b82821015611ae557838290600052602060002090600402016040518060a001604052908160008201548152602001600182018054612741906132f0565b80601f016020809104026020016040519081016040528092919081815260200182805461276d906132f0565b80156127ba5780601f1061278f576101008083540402835291602001916127ba565b820191906000526020600020905b81548152906001019060200180831161279d57829003601f168201915b505050505081526020016002820180546127d3906132f0565b80601f01602080910402602001604051908101604052809291908181526020018280546127ff906132f0565b801561284c5780601f106128215761010080835404028352916020019161284c565b820191906000526020600020905b81548152906001019060200180831161282f57829003601f168201915b505050918352505060038201546001600160a01b0381166020830152604090910190600160a01b900460ff16600181111561288957612889612c82565b600181111561289a5761289a612c82565b8152505081526020019060010190612704565b6006602052600090815260409020805481906128c8906132f0565b80601f01602080910402602001604051908101604052809291908181526020018280546128f4906132f0565b80156129415780601f1061291657610100808354040283529160200191612941565b820191906000526020600020905b81548152906001019060200180831161292457829003601f168201915b50505050509080600101549080600201805461295c906132f0565b80601f0160208091040260200160405190810160405280929190818152602001828054612988906132f0565b80156129d55780601f106129aa576101008083540402835291602001916129d5565b820191906000526020600020905b8154815290600101906020018083116129b857829003601f168201915b5050505050908060030180546129ea906132f0565b80601f0160208091040260200160405190810160405280929190818152602001828054612a16906132f0565b8015612a635780601f10612a3857610100808354040283529160200191612a63565b820191906000526020600020905b815481529060010190602001808311612a4657829003601f168201915b505050600490930154919250506001600160a01b0381169060ff600160a01b9091041686565b634e487b7160e01b600052604160045260246000fd5b600082601f830112612ab057600080fd5b813567ffffffffffffffff80821115612acb57612acb612a89565b604051601f8301601f19908116603f01168101908282118183101715612af357612af3612a89565b81604052838152866020858801011115612b0c57600080fd5b836020870160208301376000602085830101528094505050505092915050565b80356001600160a01b038116811461094c57600080fd5b80356002811061094c57600080fd5b80356003811061094c57600080fd5b60008060008060008060c08789031215612b7a57600080fd5b863567ffffffffffffffff80821115612b9257600080fd5b612b9e8a838b01612a9f565b975060208901359650612bb360408a01612b2c565b95506060890135915080821115612bc957600080fd5b50612bd689828a01612a9f565b935050612be560808801612b43565b9150612bf360a08801612b52565b90509295509295509295565b60005b83811015612c1a578181015183820152602001612c02565b50506000910152565b60008151808452612c3b816020860160208601612bff565b601f01601f19169290920160200192915050565b602081526000612c626020830184612c23565b9392505050565b600060208284031215612c7b57600080fd5b5035919050565b634e487b7160e01b600052602160045260246000fd5b60028110612ca857612ca8612c82565b9052565b602081526000825160c06020840152612cc860e0840182612c23565b90506020840151604084015260018060a01b0360408501511660608401526060840151601f19848303016080850152612d018282612c23565b9150506080840151612d1660a0850182612c98565b5060a084015160038110612d2c57612d2c612c82565b60c0939093019290925250919050565b60008060008060808587031215612d5257600080fd5b843567ffffffffffffffff80821115612d6a57600080fd5b612d7688838901612a9f565b95506020870135915080821115612d8c57600080fd5b612d9888838901612a9f565b94506040870135915080821115612dae57600080fd5b50612dbb87828801612a9f565b925050606085013560ff81168114612dd257600080fd5b939692955090935050565b600060208284031215612def57600080fd5b813567ffffffffffffffff811115612e0657600080fd5b612e1284828501612a9f565b949350505050565b608081526000612e2d6080830187612c23565b8281036020840152612e3f8187612c23565b90508281036040840152612e538186612c23565b91505060ff8316606083015295945050505050565b60008060408385031215612e7b57600080fd5b50508035926020909101359150565b85815260a060208201526000612ea360a0830187612c23565b8281036040840152612eb58187612c23565b6001600160a01b038616606085015291506105db90506080830184612c98565b600060208284031215612ee757600080fd5b612c6282612b2c565b60008060008060008060c08789031215612f0957600080fd5b86359550602087013567ffffffffffffffff80821115612f2857600080fd5b612f348a838b01612a9f565b9650612bb360408a01612b2c565b60006020808301818452808551808352604092508286019150828160051b87010184880160005b8381101561300a57603f19898403018552815160c08151818652612f8f82870182612c23565b91505088820151898601528782015185820389870152612faf8282612c23565b91505060608083015186830382880152612fc98382612c23565b6080858101516001600160a01b03169089015260a094850151949093509150612ff6905086820184612c98565b509588019593505090860190600101612f69565b509098975050505050505050565b6000806000806080858703121561302e57600080fd5b843567ffffffffffffffff8082111561304657600080fd5b61305288838901612a9f565b955060208701359450604087013591508082111561306f57600080fd5b61307b88838901612a9f565b9350606087013591508082111561309157600080fd5b5061309e87828801612a9f565b91505092959194509250565b6000806000606084860312156130bf57600080fd5b83359250602084013567ffffffffffffffff808211156130de57600080fd5b6130ea87838801612a9f565b9350604086013591508082111561310057600080fd5b5061310d86828701612a9f565b9150509250925092565b60008060006060848603121561312c57600080fd5b833592506020840135915061314360408501612b43565b90509250925092565b6000806000806080858703121561316257600080fd5b8435935060208501359250604085013567ffffffffffffffff81111561318757600080fd5b61319387828801612a9f565b9250506131a260608601612b43565b905092959194509250565b60006020808301818452808551808352604092508286019150828160051b87010184880160005b8381101561300a57603f19898403018552815160a08151855288820151818a87015261320282870182612c23565b915050878201518582038987015261321a8282612c23565b6060848101516001600160a01b03169088015260809384015193909250905061324581870184612c98565b5095880195935050908601906001016131d4565b60c08152600061326c60c0830189612c23565b87602084015282810360408401526132848188612c23565b905082810360608401526132988187612c23565b6001600160a01b038616608085015291506132b8905060a0830184612c98565b979650505050505050565b6020808252601390820152722737ba1030b71030b1ba34bb329020b236b4b760691b604082015260600190565b600181811c9082168061330457607f821691505b60208210810361332457634e487b7160e01b600052602260045260246000fd5b50919050565b601f82111561337457600081815260208120601f850160051c810160208610156133515750805b601f850160051c820191505b818110156133705782815560010161335d565b5050505b505050565b815167ffffffffffffffff81111561339357613393612a89565b6133a7816133a184546132f0565b8461332a565b602080601f8311600181146133dc57600084156133c45750858301515b600019600386901b1c1916600185901b178555613370565b600085815260208120601f198616915b8281101561340b578886015182559484019460019091019084016133ec565b50858210156134295787850151600019600388901b60f8161c191681555b5050505050600190811b01905550565b60006001820161345957634e487b7160e01b600052601160045260246000fd5b5060010190565b6020808252601a908201527f4e6f7420616e20616374697665204c6576656c20312055736572000000000000604082015260600190565b600082516134a9818460208701612bff565b9190910192915050565b60008083546134c1816132f0565b600182811680156134d957600181146134ee5761351d565b60ff198416875282151583028701945061351d565b8760005260208060002060005b858110156135145781548a8201529084019082016134fb565b50505082870194505b50929695505050505050565b6020808252600e908201526d2737ba1029bab832b920b236b4b760911b604082015260600190565b60208082526013908201527210d85cd948191bd95cc81b9bdd08195e1a5cdd606a1b604082015260600190565b634e487b7160e01b600052603260045260246000fd5b6040815260006135a76040830185612c23565b905060018060a01b0383166020830152939250505056fe596f752063616e6e6f74206c6f67696e2c20706c6561736520636f6e746163742041646d696e206f7220537570657241646d696ea2646970667358221220d17040ef531d47996bf7aea70754f4c59a36b296c65b340ac3b4f400cc420c7c64736f6c63430008130033",
    "sourcePath": "/home/juthindu/Blockchsin/11/contracts/SecureEvidence.sol",
    "compiler": {
        "name": "solc",
        "version": "0.8.19+commit.7dd6d404"
    },
    "functionHashes": {
        "accountCount()": "e4af29fc",
        "addCase(string,uint256,string,string)": "9f67c3bf",
        "addEvidence(uint256,string,string)": "a4f56830",
        "addNewUser(string,uint256,address,string,uint8,uint8)": "0515f315",
        "addType(string,string,string,uint8)": "1334ee30",
        "caseCount()": "da2d7e95",
        "caseEvidence(uint256,uint256)": "3a92f489",
        "cases(uint256)": "f09790dd",
        "changeSuperAdmin(address)": "41858c4b",
        "evidenceCount()": "a2ed5af0",
        "getAdminByID(uint256)": "1002078b",
        "getCaseByType(string)": "7ecba1a9",
        "getEvidenceByCaseID(uint256)": "e30c3ba7",
        "getUserByID(uint256)": "6d3b5f18",
        "guidelineHash()": "832581e8",
        "login(string)": "3a7d280c",
        "setGuidelineHash(string)": "41d48cd2",
        "typeCount()": "602d7fe6",
        "types(string)": "31ba8c0e",
        "updateCaseStatus(uint256,uint256,string,uint8)": "d06c2883",
        "updateEvidenceStatus(uint256,uint256,uint8)": "b90e9c50",
        "updateGuidelineHash(string)": "ce4fd42f",
        "updateUser(uint256,string,address,string,uint8,uint8)": "703cfe4b"
    },
    "gasEstimates": {
        "creation": {
            "codeDepositCost": "2772800",
            "executionCost": "infinite",
            "totalCost": "infinite"
        },
        "external": {
            "accountCount()": "2405",
            "addCase(string,uint256,string,string)": "infinite",
            "addEvidence(uint256,string,string)": "infinite",
            "addNewUser(string,uint256,address,string,uint8,uint8)": "infinite",
            "addType(string,string,string,uint8)": "infinite",
            "caseCount()": "2361",
            "caseEvidence(uint256,uint256)": "infinite",
            "cases(uint256)": "infinite",
            "changeSuperAdmin(address)": "28141",
            "evidenceCount()": "2384",
            "getAdminByID(uint256)": "infinite",
            "getCaseByType(string)": "infinite",
            "getEvidenceByCaseID(uint256)": "infinite",
            "getUserByID(uint256)": "infinite",
            "guidelineHash()": "infinite",
            "login(string)": "infinite",
            "setGuidelineHash(string)": "infinite",
            "typeCount()": "2384",
            "types(string)": "infinite",
            "updateCaseStatus(uint256,uint256,string,uint8)": "infinite",
            "updateEvidenceStatus(uint256,uint256,uint8)": "40287",
            "updateGuidelineHash(string)": "infinite",
            "updateUser(uint256,string,address,string,uint8,uint8)": "infinite"
        },
        "internal": {
            "addressToIndex(uint256)": "infinite"
        }
    }
}