{
  "contractName": "AddType",
  "abi": [
    {
      "anonymous": false,
      "inputs": [
        {
          "indexed": false,
          "internalType": "string",
          "name": "newGuidelineHash",
          "type": "string"
        },
        {
          "indexed": false,
          "internalType": "address",
          "name": "updatedBy",
          "type": "address"
        }
      ],
      "name": "GuidelineHashUpdated",
      "type": "event"
    },
    {
      "anonymous": false,
      "inputs": [
        {
          "indexed": false,
          "internalType": "address",
          "name": "oldSuperAdmin",
          "type": "address"
        },
        {
          "indexed": false,
          "internalType": "string",
          "name": "oldSuperAdminUsername",
          "type": "string"
        },
        {
          "indexed": false,
          "internalType": "address",
          "name": "newSuperAdmin",
          "type": "address"
        },
        {
          "indexed": false,
          "internalType": "string",
          "name": "newSuperAdminUsername",
          "type": "string"
        }
      ],
      "name": "SuperAdminChanged",
      "type": "event"
    },
    {
      "inputs": [],
      "name": "caseCount",
      "outputs": [
        {
          "internalType": "uint256",
          "name": "",
          "type": "uint256"
        }
      ],
      "stateMutability": "view",
      "type": "function",
      "constant": true
    },
    {
      "inputs": [],
      "name": "guidelineHash",
      "outputs": [
        {
          "internalType": "string",
          "name": "",
          "type": "string"
        }
      ],
      "stateMutability": "view",
      "type": "function",
      "constant": true
    },
    {
      "inputs": [],
      "name": "typeCount",
      "outputs": [
        {
          "internalType": "uint256",
          "name": "",
          "type": "uint256"
        }
      ],
      "stateMutability": "view",
      "type": "function",
      "constant": true
    },
    {
      "inputs": [
        {
          "internalType": "string",
          "name": "_caseTypeID",
          "type": "string"
        },
        {
          "internalType": "string",
          "name": "_description",
          "type": "string"
        },
        {
          "internalType": "string",
          "name": "_category",
          "type": "string"
        },
        {
          "internalType": "uint8",
          "name": "_level",
          "type": "uint8"
        }
      ],
      "name": "addType",
      "outputs": [],
      "stateMutability": "nonpayable",
      "type": "function"
    },
    {
      "inputs": [
        {
          "internalType": "string",
          "name": "_caseTypeID",
          "type": "string"
        }
      ],
      "name": "getType",
      "outputs": [
        {
          "internalType": "string",
          "name": "caseTypeID",
          "type": "string"
        },
        {
          "internalType": "string",
          "name": "category",
          "type": "string"
        },
        {
          "internalType": "uint8",
          "name": "level",
          "type": "uint8"
        },
        {
          "internalType": "string",
          "name": "description",
          "type": "string"
        }
      ],
      "stateMutability": "view",
      "type": "function",
      "constant": true
    }
  ],
  "bytecode": "0x608060405273ae66570c9252ad7c82a76371dce460129538d7d76000806101000a81548173ffffffffffffffffffffffffffffffffffffffff021916908373ffffffffffffffffffffffffffffffffffffffff1602179055506040518060400160405280600a81526020017f537570657241646d696e0000000000000000000000000000000000000000000081525060019080519060200190620000a5929190620000ba565b50348015620000b357600080fd5b50620001cf565b828054620000c8906200016a565b90600052602060002090601f016020900481019282620000ec576000855562000138565b82601f106200010757805160ff191683800117855562000138565b8280016001018555821562000138579182015b82811115620001375782518255916020019190600101906200011a565b5b5090506200014791906200014b565b5090565b5b80821115620001665760008160009055506001016200014c565b5090565b600060028204905060018216806200018357607f821691505b602082108114156200019a5762000199620001a0565b5b50919050565b7f4e487b7100000000000000000000000000000000000000000000000000000000600052602260045260246000fd5b6112dc80620001df6000396000f3fe608060405234801561001057600080fd5b50600436106100575760003560e01c80631334ee301461005c578063602d7fe614610078578063832581e814610096578063985ba97f146100b4578063da2d7e95146100e7575b600080fd5b61007660048036038101906100719190610d34565b610105565b005b6100806105b2565b60405161008d919061107a565b60405180910390f35b61009e6105b8565b6040516100ab9190610f7e565b60405180910390f35b6100ce60048036038101906100c99190610cf3565b610646565b6040516100de9493929190610fa0565b60405180910390f35b6100ef610bcd565b6040516100fc919061107a565b60405180910390f35b60018081111561013e577f4e487b7100000000000000000000000000000000000000000000000000000000600052602160045260246000fd5b600260003373ffffffffffffffffffffffffffffffffffffffff1673ffffffffffffffffffffffffffffffffffffffff16815260200190815260200160002060040160009054906101000a900460ff1660018111156101c6577f4e487b7100000000000000000000000000000000000000000000000000000000600052602160045260246000fd5b14801561035b5750600280811115610207577f4e487b7100000000000000000000000000000000000000000000000000000000600052602160045260246000fd5b600260003373ffffffffffffffffffffffffffffffffffffffff1673ffffffffffffffffffffffffffffffffffffffff16815260200190815260200160002060040160019054906101000a900460ff16600281111561028f577f4e487b7100000000000000000000000000000000000000000000000000000000600052602160045260246000fd5b148061035a5750600160028111156102d0577f4e487b7100000000000000000000000000000000000000000000000000000000600052602160045260246000fd5b600260003373ffffffffffffffffffffffffffffffffffffffff1673ffffffffffffffffffffffffffffffffffffffff16815260200190815260200160002060040160019054906101000a900460ff166002811115610358577f4e487b7100000000000000000000000000000000000000000000000000000000600052602160045260246000fd5b145b5b806103b1575060008054906101000a900473ffffffffffffffffffffffffffffffffffffffff1673ffffffffffffffffffffffffffffffffffffffff163373ffffffffffffffffffffffffffffffffffffffff16145b6103f0576040517f08c379a00000000000000000000000000000000000000000000000000000000081526004016103e79061105a565b60405180910390fd5b6000845111610434576040517f08c379a000000000000000000000000000000000000000000000000000000000815260040161042b9061103a565b60405180910390fd5b6005846040516104449190610f67565b908152602001604051809103902060009054906101000a900460ff16156104a0576040517f08c379a00000000000000000000000000000000000000000000000000000000081526004016104979061101a565b60405180910390fd5b60405180608001604052808581526020018481526020018381526020018260ff168152506007856040516104d49190610f67565b908152602001604051809103902060008201518160000190805190602001906104fe929190610bd3565b50602082015181600101908051906020019061051b929190610bd3565b506040820151816002019080519060200190610538929190610bd3565b5060608201518160030160006101000a81548160ff021916908360ff160217905550905050600160058560405161056f9190610f67565b908152602001604051809103902060006101000a81548160ff021916908315150217905550600d60008154809291906105a7906111a8565b919050555050505050565b600d5481565b600e80546105c590611176565b80601f01602080910402602001604051908101604052809291908181526020018280546105f190611176565b801561063e5780601f106106135761010080835404028352916020019161063e565b820191906000526020600020905b81548152906001019060200180831161062157829003601f168201915b505050505081565b60608060006060600180811115610686577f4e487b7100000000000000000000000000000000000000000000000000000000600052602160045260246000fd5b600260003373ffffffffffffffffffffffffffffffffffffffff1673ffffffffffffffffffffffffffffffffffffffff16815260200190815260200160002060040160009054906101000a900460ff16600181111561070e577f4e487b7100000000000000000000000000000000000000000000000000000000600052602160045260246000fd5b1480156108a3575060028081111561074f577f4e487b7100000000000000000000000000000000000000000000000000000000600052602160045260246000fd5b600260003373ffffffffffffffffffffffffffffffffffffffff1673ffffffffffffffffffffffffffffffffffffffff16815260200190815260200160002060040160019054906101000a900460ff1660028111156107d7577f4e487b7100000000000000000000000000000000000000000000000000000000600052602160045260246000fd5b14806108a2575060016002811115610818577f4e487b7100000000000000000000000000000000000000000000000000000000600052602160045260246000fd5b600260003373ffffffffffffffffffffffffffffffffffffffff1673ffffffffffffffffffffffffffffffffffffffff16815260200190815260200160002060040160019054906101000a900460ff1660028111156108a0577f4e487b7100000000000000000000000000000000000000000000000000000000600052602160045260246000fd5b145b5b806108f9575060008054906101000a900473ffffffffffffffffffffffffffffffffffffffff1673ffffffffffffffffffffffffffffffffffffffff163373ffffffffffffffffffffffffffffffffffffffff16145b610938576040517f08c379a000000000000000000000000000000000000000000000000000000000815260040161092f9061105a565b60405180910390fd5b600060078660405161094a9190610f67565b9081526020016040518091039020600001805461096690611176565b905014156109a9576040517f08c379a00000000000000000000000000000000000000000000000000000000081526004016109a090610ffa565b60405180910390fd5b60006007866040516109bb9190610f67565b90815260200160405180910390206040518060800160405290816000820180546109e490611176565b80601f0160208091040260200160405190810160405280929190818152602001828054610a1090611176565b8015610a5d5780601f10610a3257610100808354040283529160200191610a5d565b820191906000526020600020905b815481529060010190602001808311610a4057829003601f168201915b50505050508152602001600182018054610a7690611176565b80601f0160208091040260200160405190810160405280929190818152602001828054610aa290611176565b8015610aef5780601f10610ac457610100808354040283529160200191610aef565b820191906000526020600020905b815481529060010190602001808311610ad257829003601f168201915b50505050508152602001600282018054610b0890611176565b80601f0160208091040260200160405190810160405280929190818152602001828054610b3490611176565b8015610b815780601f10610b5657610100808354040283529160200191610b81565b820191906000526020600020905b815481529060010190602001808311610b6457829003601f168201915b505050505081526020016003820160009054906101000a900460ff1660ff1660ff1681525050905080600001518160400151826060015183602001519450945094509450509193509193565b600c5481565b828054610bdf90611176565b90600052602060002090601f016020900481019282610c015760008555610c48565b82601f10610c1a57805160ff1916838001178555610c48565b82800160010185558215610c48579182015b82811115610c47578251825591602001919060010190610c2c565b5b509050610c559190610c59565b5090565b5b80821115610c72576000816000905550600101610c5a565b5090565b6000610c89610c84846110c6565b611095565b905082815260208101848484011115610ca157600080fd5b610cac848285611134565b509392505050565b600082601f830112610cc557600080fd5b8135610cd5848260208601610c76565b91505092915050565b600081359050610ced8161128f565b92915050565b600060208284031215610d0557600080fd5b600082013567ffffffffffffffff811115610d1f57600080fd5b610d2b84828501610cb4565b91505092915050565b60008060008060808587031215610d4a57600080fd5b600085013567ffffffffffffffff811115610d6457600080fd5b610d7087828801610cb4565b945050602085013567ffffffffffffffff811115610d8d57600080fd5b610d9987828801610cb4565b935050604085013567ffffffffffffffff811115610db657600080fd5b610dc287828801610cb4565b9250506060610dd387828801610cde565b91505092959194509250565b6000610dea826110f6565b610df48185611101565b9350610e04818560208601611143565b610e0d8161127e565b840191505092915050565b6000610e23826110f6565b610e2d8185611112565b9350610e3d818560208601611143565b80840191505092915050565b6000610e56601383611101565b91507f436173652074797065206e6f7420666f756e64000000000000000000000000006000830152602082019050919050565b6000610e96601883611101565b91507f43617365207479706520616c72656164792065786973747300000000000000006000830152602082019050919050565b6000610ed6601c83611101565b91507f4361736520747970652049442063616e6e6f7420626520656d707479000000006000830152602082019050919050565b6000610f16601a83611101565b91507f4e6f7420616e20616374697665204c6576656c203120557365720000000000006000830152602082019050919050565b610f528161111d565b82525050565b610f6181611127565b82525050565b6000610f738284610e18565b915081905092915050565b60006020820190508181036000830152610f988184610ddf565b905092915050565b60006080820190508181036000830152610fba8187610ddf565b90508181036020830152610fce8186610ddf565b9050610fdd6040830185610f58565b8181036060830152610fef8184610ddf565b905095945050505050565b6000602082019050818103600083015261101381610e49565b9050919050565b6000602082019050818103600083015261103381610e89565b9050919050565b6000602082019050818103600083015261105381610ec9565b9050919050565b6000602082019050818103600083015261107381610f09565b9050919050565b600060208201905061108f6000830184610f49565b92915050565b6000604051905081810181811067ffffffffffffffff821117156110bc576110bb61124f565b5b8060405250919050565b600067ffffffffffffffff8211156110e1576110e061124f565b5b601f19601f8301169050602081019050919050565b600081519050919050565b600082825260208201905092915050565b600081905092915050565b6000819050919050565b600060ff82169050919050565b82818337600083830152505050565b60005b83811015611161578082015181840152602081019050611146565b83811115611170576000848401525b50505050565b6000600282049050600182168061118e57607f821691505b602082108114156111a2576111a1611220565b5b50919050565b60006111b38261111d565b91507fffffffffffffffffffffffffffffffffffffffffffffffffffffffffffffffff8214156111e6576111e56111f1565b5b600182019050919050565b7f4e487b7100000000000000000000000000000000000000000000000000000000600052601160045260246000fd5b7f4e487b7100000000000000000000000000000000000000000000000000000000600052602260045260246000fd5b7f4e487b7100000000000000000000000000000000000000000000000000000000600052604160045260246000fd5b6000601f19601f8301169050919050565b61129881611127565b81146112a357600080fd5b5056fea2646970667358221220d98eb862a1145dff6d9032d5ac12c733c9e05368156f0d28a82208381a771e2664736f6c63430008000033",
  "immutableReferences": {},
  "source": "// SPDX-License-Identifier: MIT\npragma solidity ^0.8.0;\n\nimport \"./SecureEvidence.sol\";\n\ncontract AddType is SecureEvidence {\n\n    function addType(\n        string memory _caseTypeID,\n        string memory _description,\n        string memory _category,\n        uint8 _level\n    ) public onlyLevelOne {\n        require(bytes(_caseTypeID).length > 0, \"Case type ID cannot be empty\");\n        require(!caseType[_caseTypeID], \"Case type already exists\");\n\n        typesByID[_caseTypeID] = Type({\n            caseTypeID: _caseTypeID,\n            description: _description,\n            category: _category,\n            level: _level\n        });\n\n        caseType[_caseTypeID] = true;\n        typeCount++;\n    }\n\n    function getType(string memory _caseTypeID) \n        public \n        view \n        onlyLevelOne \n        returns (string memory caseTypeID, string memory category, uint8 level,string memory description) \n    {\n        require(bytes(typesByID[_caseTypeID].caseTypeID).length != 0, \"Case type not found\");\n\n        Type memory _type = typesByID[_caseTypeID];\n        return (_type.caseTypeID, _type.category, _type.level,_type.description);\n    }\n\n\n}\n",
  "sourcePath": "/home/juthindu/Blockchsin/25/12/contracts/AddType.sol",
  "compiler": {
    "name": "solc",
    "version": "0.8.0+commit.c7dfd78e.Emscripten.clang"
  },
  "schemaVersion": "3.4.16",
  "updatedAt": "2024-07-19T12:04:05.485Z",
  "networkType": "ethereum",
  "devdoc": {
    "kind": "dev",
    "methods": {},
    "version": 1
  },
  "userdoc": {
    "kind": "user",
    "methods": {},
    "version": 1
  }
}