{
  "contractName": "Case",
  "abi": [
    {
      "anonymous": false,
      "inputs": [
        {
          "indexed": false,
          "internalType": "string",
          "name": "newGuidelineHash",
          "type": "string"
        },
        {
          "indexed": false,
          "internalType": "address",
          "name": "updatedBy",
          "type": "address"
        }
      ],
      "name": "GuidelineHashUpdated",
      "type": "event"
    },
    {
      "anonymous": false,
      "inputs": [
        {
          "indexed": false,
          "internalType": "address",
          "name": "oldSuperAdmin",
          "type": "address"
        },
        {
          "indexed": false,
          "internalType": "string",
          "name": "oldSuperAdminUsername",
          "type": "string"
        },
        {
          "indexed": false,
          "internalType": "address",
          "name": "newSuperAdmin",
          "type": "address"
        },
        {
          "indexed": false,
          "internalType": "string",
          "name": "newSuperAdminUsername",
          "type": "string"
        }
      ],
      "name": "SuperAdminChanged",
      "type": "event"
    },
    {
      "inputs": [],
      "name": "caseCount",
      "outputs": [
        {
          "internalType": "uint256",
          "name": "",
          "type": "uint256"
        }
      ],
      "stateMutability": "view",
      "type": "function",
      "constant": true
    },
    {
      "inputs": [],
      "name": "evidenceCount",
      "outputs": [
        {
          "internalType": "uint256",
          "name": "",
          "type": "uint256"
        }
      ],
      "stateMutability": "view",
      "type": "function",
      "constant": true
    },
    {
      "inputs": [
        {
          "internalType": "string",
          "name": "",
          "type": "string"
        }
      ],
      "name": "evidenceIndexByID",
      "outputs": [
        {
          "internalType": "uint256",
          "name": "",
          "type": "uint256"
        }
      ],
      "stateMutability": "view",
      "type": "function",
      "constant": true
    },
    {
      "inputs": [],
      "name": "guidelineHash",
      "outputs": [
        {
          "internalType": "string",
          "name": "",
          "type": "string"
        }
      ],
      "stateMutability": "view",
      "type": "function",
      "constant": true
    },
    {
      "inputs": [],
      "name": "typeCount",
      "outputs": [
        {
          "internalType": "uint256",
          "name": "",
          "type": "uint256"
        }
      ],
      "stateMutability": "view",
      "type": "function",
      "constant": true
    },
    {
      "inputs": [
        {
          "internalType": "string",
          "name": "_caseTypeID",
          "type": "string"
        },
        {
          "internalType": "string",
          "name": "_description",
          "type": "string"
        },
        {
          "internalType": "string",
          "name": "_category",
          "type": "string"
        },
        {
          "internalType": "uint8",
          "name": "_level",
          "type": "uint8"
        }
      ],
      "name": "addType",
      "outputs": [],
      "stateMutability": "nonpayable",
      "type": "function"
    },
    {
      "inputs": [
        {
          "internalType": "string",
          "name": "_caseTypeID",
          "type": "string"
        }
      ],
      "name": "getType",
      "outputs": [
        {
          "internalType": "string",
          "name": "category",
          "type": "string"
        },
        {
          "internalType": "uint8",
          "name": "level",
          "type": "uint8"
        },
        {
          "internalType": "string",
          "name": "description",
          "type": "string"
        }
      ],
      "stateMutability": "view",
      "type": "function",
      "constant": true
    },
    {
      "inputs": [
        {
          "internalType": "string",
          "name": "_caseTitle",
          "type": "string"
        },
        {
          "internalType": "string",
          "name": "_caseID",
          "type": "string"
        },
        {
          "internalType": "string",
          "name": "_caseTypeID",
          "type": "string"
        },
        {
          "internalType": "string",
          "name": "_reportHash",
          "type": "string"
        }
      ],
      "name": "addCase",
      "outputs": [],
      "stateMutability": "nonpayable",
      "type": "function"
    },
    {
      "inputs": [
        {
          "internalType": "string",
          "name": "_caseID",
          "type": "string"
        },
        {
          "internalType": "enum SecureEvidence.Status",
          "name": "_status",
          "type": "uint8"
        }
      ],
      "name": "updateCaseStatus",
      "outputs": [],
      "stateMutability": "nonpayable",
      "type": "function"
    },
    {
      "inputs": [
        {
          "internalType": "string",
          "name": "_caseID",
          "type": "string"
        }
      ],
      "name": "getCase",
      "outputs": [
        {
          "internalType": "string",
          "name": "caseTitle",
          "type": "string"
        },
        {
          "internalType": "string",
          "name": "caseTypeID",
          "type": "string"
        },
        {
          "internalType": "string",
          "name": "reportHash",
          "type": "string"
        },
        {
          "internalType": "address",
          "name": "addedBy",
          "type": "address"
        },
        {
          "internalType": "enum SecureEvidence.Status",
          "name": "status",
          "type": "uint8"
        }
      ],
      "stateMutability": "view",
      "type": "function",
      "constant": true
    },
    {
      "inputs": [
        {
          "internalType": "string",
          "name": "_caseID",
          "type": "string"
        },
        {
          "internalType": "string",
          "name": "_evidenceID",
          "type": "string"
        },
        {
          "internalType": "string",
          "name": "_evidenceType",
          "type": "string"
        },
        {
          "internalType": "string",
          "name": "_evidenceHash",
          "type": "string"
        }
      ],
      "name": "addEvidence",
      "outputs": [],
      "stateMutability": "nonpayable",
      "type": "function"
    },
    {
      "inputs": [
        {
          "internalType": "string",
          "name": "_caseID",
          "type": "string"
        },
        {
          "internalType": "string",
          "name": "_evidenceID",
          "type": "string"
        },
        {
          "internalType": "enum SecureEvidence.Status",
          "name": "_status",
          "type": "uint8"
        }
      ],
      "name": "updateEvidenceStatus",
      "outputs": [],
      "stateMutability": "nonpayable",
      "type": "function"
    },
    {
      "inputs": [
        {
          "internalType": "string",
          "name": "_caseID",
          "type": "string"
        },
        {
          "internalType": "string",
          "name": "_evidenceID",
          "type": "string"
        }
      ],
      "name": "getEvidence",
      "outputs": [
        {
          "internalType": "string",
          "name": "evidenceType",
          "type": "string"
        },
        {
          "internalType": "string",
          "name": "evidenceHash",
          "type": "string"
        },
        {
          "internalType": "address",
          "name": "addedBy",
          "type": "address"
        },
        {
          "internalType": "enum SecureEvidence.Status",
          "name": "status",
          "type": "uint8"
        }
      ],
      "stateMutability": "view",
      "type": "function",
      "constant": true
    }
  ],
  "bytecode": "0x608060405273ae66570c9252ad7c82a76371dce460129538d7d76000806101000a81548173ffffffffffffffffffffffffffffffffffffffff021916908373ffffffffffffffffffffffffffffffffffffffff1602179055506040518060400160405280600a81526020017f537570657241646d696e0000000000000000000000000000000000000000000081525060019080519060200190620000a5929190620000ba565b50348015620000b357600080fd5b50620001cf565b828054620000c8906200016a565b90600052602060002090601f016020900481019282620000ec576000855562000138565b82601f106200010757805160ff191683800117855562000138565b8280016001018555821562000138579182015b82811115620001375782518255916020019190600101906200011a565b5b5090506200014791906200014b565b5090565b5b80821115620001665760008160009055506001016200014c565b5090565b600060028204905060018216806200018357607f821691505b602082108114156200019a5762000199620001a0565b5b50919050565b7f4e487b7100000000000000000000000000000000000000000000000000000000600052602260045260246000fd5b61411e80620001df6000396000f3fe608060405234801561001057600080fd5b50600436106100cf5760003560e01c8063985ba97f1161008c578063b55675c111610066578063b55675c114610217578063d23f4a5014610233578063d4e068261461024f578063da2d7e9514610283576100cf565b8063985ba97f146101ab578063a2ed5af0146101dd578063a669e8b1146101fb576100cf565b80631230b191146100d45780631334ee30146100f057806339b5e5fa1461010c57806345b576311461013f578063602d7fe61461016f578063832581e81461018d575b600080fd5b6100ee60048036038101906100e99190613671565b6102a1565b005b61010a60048036038101906101059190613734565b610ab3565b005b61012660048036038101906101219190613586565b610f60565b6040516101369493929190613b7e565b60405180910390f35b610159600480360381019061015491906134f1565b6116ab565b6040516101669190613dde565b60405180910390f35b6101776116d9565b6040516101849190613dde565b60405180910390f35b6101956116df565b6040516101a29190613b5c565b60405180910390f35b6101c560048036038101906101c091906134f1565b61176d565b6040516101d493929190613c39565b60405180910390f35b6101e5611cec565b6040516101f29190613dde565b60405180910390f35b610215600480360381019061021091906135f2565b611cf2565b005b610231600480360381019061022c9190613532565b61220c565b005b61024d60048036038101906102489190613671565b6125db565b005b610269600480360381019061026491906134f1565b612cd3565b60405161027a959493929190613bd1565b60405180910390f35b61028b6133b6565b6040516102989190613dde565b60405180910390f35b6001808111156102da577f4e487b7100000000000000000000000000000000000000000000000000000000600052602160045260246000fd5b600260003373ffffffffffffffffffffffffffffffffffffffff1673ffffffffffffffffffffffffffffffffffffffff16815260200190815260200160002060040160009054906101000a900460ff166001811115610362577f4e487b7100000000000000000000000000000000000000000000000000000000600052602160045260246000fd5b1480156105c157506002808111156103a3577f4e487b7100000000000000000000000000000000000000000000000000000000600052602160045260246000fd5b600260003373ffffffffffffffffffffffffffffffffffffffff1673ffffffffffffffffffffffffffffffffffffffff16815260200190815260200160002060040160019054906101000a900460ff16600281111561042b577f4e487b7100000000000000000000000000000000000000000000000000000000600052602160045260246000fd5b14806104f657506001600281111561046c577f4e487b7100000000000000000000000000000000000000000000000000000000600052602160045260246000fd5b600260003373ffffffffffffffffffffffffffffffffffffffff1673ffffffffffffffffffffffffffffffffffffffff16815260200190815260200160002060040160019054906101000a900460ff1660028111156104f4577f4e487b7100000000000000000000000000000000000000000000000000000000600052602160045260246000fd5b145b806105c0575060006002811115610536577f4e487b7100000000000000000000000000000000000000000000000000000000600052602160045260246000fd5b600260003373ffffffffffffffffffffffffffffffffffffffff1673ffffffffffffffffffffffffffffffffffffffff16815260200190815260200160002060040160019054906101000a900460ff1660028111156105be577f4e487b7100000000000000000000000000000000000000000000000000000000600052602160045260246000fd5b145b5b80610617575060008054906101000a900473ffffffffffffffffffffffffffffffffffffffff1673ffffffffffffffffffffffffffffffffffffffff163373ffffffffffffffffffffffffffffffffffffffff16145b610656576040517f08c379a000000000000000000000000000000000000000000000000000000000815260040161064d90613d3e565b60405180910390fd5b60006005856040516106689190613b45565b9081526020016040518091039020600101805461068490613f65565b905014156106c7576040517f08c379a00000000000000000000000000000000000000000000000000000000081526004016106be90613d5e565b60405180910390fd5b60006009846040516106d99190613b45565b908152602001604051809103902060000180546106f590613f65565b905014610737576040517f08c379a000000000000000000000000000000000000000000000000000000000815260040161072e90613d9e565b60405180910390fd5b60006040518060c001604052808681526020018581526020018481526020018381526020013373ffffffffffffffffffffffffffffffffffffffff1681526020016001808111156107b1577f4e487b7100000000000000000000000000000000000000000000000000000000600052602160045260246000fd5b81525090506008856040516107c69190613b45565b9081526020016040518091039020819080600181540180825580915050600190039060005260206000209060050201600090919091909150600082015181600001908051906020019061081a9291906133bc565b5060208201518160010190805190602001906108379291906133bc565b5060408201518160020190805190602001906108549291906133bc565b5060608201518160030190805190602001906108719291906133bc565b5060808201518160040160006101000a81548173ffffffffffffffffffffffffffffffffffffffff021916908373ffffffffffffffffffffffffffffffffffffffff16021790555060a08201518160040160146101000a81548160ff0219169083600181111561090a577f4e487b7100000000000000000000000000000000000000000000000000000000600052602160045260246000fd5b02179055505050806009856040516109229190613b45565b9081526020016040518091039020600082015181600001908051906020019061094c9291906133bc565b5060208201518160010190805190602001906109699291906133bc565b5060408201518160020190805190602001906109869291906133bc565b5060608201518160030190805190602001906109a39291906133bc565b5060808201518160040160006101000a81548173ffffffffffffffffffffffffffffffffffffffff021916908373ffffffffffffffffffffffffffffffffffffffff16021790555060a08201518160040160146101000a81548160ff02191690836001811115610a3c577f4e487b7100000000000000000000000000000000000000000000000000000000600052602160045260246000fd5b02179055509050506001600886604051610a569190613b45565b908152602001604051809103902080549050610a729190613e81565b600a85604051610a829190613b45565b908152602001604051809103902081905550600c6000815480929190610aa790613f97565b91905055505050505050565b600180811115610aec577f4e487b7100000000000000000000000000000000000000000000000000000000600052602160045260246000fd5b600260003373ffffffffffffffffffffffffffffffffffffffff1673ffffffffffffffffffffffffffffffffffffffff16815260200190815260200160002060040160009054906101000a900460ff166001811115610b74577f4e487b7100000000000000000000000000000000000000000000000000000000600052602160045260246000fd5b148015610d095750600280811115610bb5577f4e487b7100000000000000000000000000000000000000000000000000000000600052602160045260246000fd5b600260003373ffffffffffffffffffffffffffffffffffffffff1673ffffffffffffffffffffffffffffffffffffffff16815260200190815260200160002060040160019054906101000a900460ff166002811115610c3d577f4e487b7100000000000000000000000000000000000000000000000000000000600052602160045260246000fd5b1480610d08575060016002811115610c7e577f4e487b7100000000000000000000000000000000000000000000000000000000600052602160045260246000fd5b600260003373ffffffffffffffffffffffffffffffffffffffff1673ffffffffffffffffffffffffffffffffffffffff16815260200190815260200160002060040160019054906101000a900460ff166002811115610d06577f4e487b7100000000000000000000000000000000000000000000000000000000600052602160045260246000fd5b145b5b80610d5f575060008054906101000a900473ffffffffffffffffffffffffffffffffffffffff1673ffffffffffffffffffffffffffffffffffffffff163373ffffffffffffffffffffffffffffffffffffffff16145b610d9e576040517f08c379a0000000000000000000000000000000000000000000000000000000008152600401610d9590613dbe565b60405180910390fd5b6000845111610de2576040517f08c379a0000000000000000000000000000000000000000000000000000000008152600401610dd990613d7e565b60405180910390fd5b600484604051610df29190613b45565b908152602001604051809103902060009054906101000a900460ff1615610e4e576040517f08c379a0000000000000000000000000000000000000000000000000000000008152600401610e4590613cfe565b60405180910390fd5b60405180608001604052808581526020018481526020018381526020018260ff16815250600685604051610e829190613b45565b90815260200160405180910390206000820151816000019080519060200190610eac9291906133bc565b506020820151816001019080519060200190610ec99291906133bc565b506040820151816002019080519060200190610ee69291906133bc565b5060608201518160030160006101000a81548160ff021916908360ff1602179055509050506001600485604051610f1d9190613b45565b908152602001604051809103902060006101000a81548160ff021916908315150217905550600e6000815480929190610f5590613f97565b919050555050505050565b606080600080600180811115610f9f577f4e487b7100000000000000000000000000000000000000000000000000000000600052602160045260246000fd5b600260003373ffffffffffffffffffffffffffffffffffffffff1673ffffffffffffffffffffffffffffffffffffffff16815260200190815260200160002060040160009054906101000a900460ff166001811115611027577f4e487b7100000000000000000000000000000000000000000000000000000000600052602160045260246000fd5b1480156111bc5750600280811115611068577f4e487b7100000000000000000000000000000000000000000000000000000000600052602160045260246000fd5b600260003373ffffffffffffffffffffffffffffffffffffffff1673ffffffffffffffffffffffffffffffffffffffff16815260200190815260200160002060040160019054906101000a900460ff1660028111156110f0577f4e487b7100000000000000000000000000000000000000000000000000000000600052602160045260246000fd5b14806111bb575060016002811115611131577f4e487b7100000000000000000000000000000000000000000000000000000000600052602160045260246000fd5b600260003373ffffffffffffffffffffffffffffffffffffffff1673ffffffffffffffffffffffffffffffffffffffff16815260200190815260200160002060040160019054906101000a900460ff1660028111156111b9577f4e487b7100000000000000000000000000000000000000000000000000000000600052602160045260246000fd5b145b5b80611212575060008054906101000a900473ffffffffffffffffffffffffffffffffffffffff1673ffffffffffffffffffffffffffffffffffffffff163373ffffffffffffffffffffffffffffffffffffffff16145b611251576040517f08c379a000000000000000000000000000000000000000000000000000000000815260040161124890613dbe565b60405180910390fd5b60006005876040516112639190613b45565b9081526020016040518091039020600101805461127f90613f65565b905014156112c2576040517f08c379a00000000000000000000000000000000000000000000000000000000081526004016112b990613d5e565b60405180910390fd5b60006009866040516112d49190613b45565b908152602001604051809103902060000180546112f090613f65565b90501415611333576040517f08c379a000000000000000000000000000000000000000000000000000000000815260040161132a90613c7e565b60405180910390fd5b60006009866040516113459190613b45565b90815260200160405180910390206040518060c001604052908160008201805461136e90613f65565b80601f016020809104026020016040519081016040528092919081815260200182805461139a90613f65565b80156113e75780601f106113bc576101008083540402835291602001916113e7565b820191906000526020600020905b8154815290600101906020018083116113ca57829003601f168201915b5050505050815260200160018201805461140090613f65565b80601f016020809104026020016040519081016040528092919081815260200182805461142c90613f65565b80156114795780601f1061144e57610100808354040283529160200191611479565b820191906000526020600020905b81548152906001019060200180831161145c57829003601f168201915b5050505050815260200160028201805461149290613f65565b80601f01602080910402602001604051908101604052809291908181526020018280546114be90613f65565b801561150b5780601f106114e05761010080835404028352916020019161150b565b820191906000526020600020905b8154815290600101906020018083116114ee57829003601f168201915b5050505050815260200160038201805461152490613f65565b80601f016020809104026020016040519081016040528092919081815260200182805461155090613f65565b801561159d5780601f106115725761010080835404028352916020019161159d565b820191906000526020600020905b81548152906001019060200180831161158057829003601f168201915b505050505081526020016004820160009054906101000a900473ffffffffffffffffffffffffffffffffffffffff1673ffffffffffffffffffffffffffffffffffffffff1673ffffffffffffffffffffffffffffffffffffffff1681526020016004820160149054906101000a900460ff166001811115611647577f4e487b7100000000000000000000000000000000000000000000000000000000600052602160045260246000fd5b600181111561167f577f4e487b7100000000000000000000000000000000000000000000000000000000600052602160045260246000fd5b8152505090508060400151816060015182608001518360a0015194509450945094505092959194509250565b600a818051602081018201805184825260208301602085012081835280955050505050506000915090505481565b600e5481565b600f80546116ec90613f65565b80601f016020809104026020016040519081016040528092919081815260200182805461171890613f65565b80156117655780601f1061173a57610100808354040283529160200191611765565b820191906000526020600020905b81548152906001019060200180831161174857829003601f168201915b505050505081565b6060600060606001808111156117ac577f4e487b7100000000000000000000000000000000000000000000000000000000600052602160045260246000fd5b600260003373ffffffffffffffffffffffffffffffffffffffff1673ffffffffffffffffffffffffffffffffffffffff16815260200190815260200160002060040160009054906101000a900460ff166001811115611834577f4e487b7100000000000000000000000000000000000000000000000000000000600052602160045260246000fd5b1480156119c95750600280811115611875577f4e487b7100000000000000000000000000000000000000000000000000000000600052602160045260246000fd5b600260003373ffffffffffffffffffffffffffffffffffffffff1673ffffffffffffffffffffffffffffffffffffffff16815260200190815260200160002060040160019054906101000a900460ff1660028111156118fd577f4e487b7100000000000000000000000000000000000000000000000000000000600052602160045260246000fd5b14806119c857506001600281111561193e577f4e487b7100000000000000000000000000000000000000000000000000000000600052602160045260246000fd5b600260003373ffffffffffffffffffffffffffffffffffffffff1673ffffffffffffffffffffffffffffffffffffffff16815260200190815260200160002060040160019054906101000a900460ff1660028111156119c6577f4e487b7100000000000000000000000000000000000000000000000000000000600052602160045260246000fd5b145b5b80611a1f575060008054906101000a900473ffffffffffffffffffffffffffffffffffffffff1673ffffffffffffffffffffffffffffffffffffffff163373ffffffffffffffffffffffffffffffffffffffff16145b611a5e576040517f08c379a0000000000000000000000000000000000000000000000000000000008152600401611a5590613dbe565b60405180910390fd5b6000600685604051611a709190613b45565b90815260200160405180910390206000018054611a8c90613f65565b90501415611acf576040517f08c379a0000000000000000000000000000000000000000000000000000000008152600401611ac690613cbe565b60405180910390fd5b6000600685604051611ae19190613b45565b9081526020016040518091039020604051806080016040529081600082018054611b0a90613f65565b80601f0160208091040260200160405190810160405280929190818152602001828054611b3690613f65565b8015611b835780601f10611b5857610100808354040283529160200191611b83565b820191906000526020600020905b815481529060010190602001808311611b6657829003601f168201915b50505050508152602001600182018054611b9c90613f65565b80601f0160208091040260200160405190810160405280929190818152602001828054611bc890613f65565b8015611c155780601f10611bea57610100808354040283529160200191611c15565b820191906000526020600020905b815481529060010190602001808311611bf857829003601f168201915b50505050508152602001600282018054611c2e90613f65565b80601f0160208091040260200160405190810160405280929190818152602001828054611c5a90613f65565b8015611ca75780601f10611c7c57610100808354040283529160200191611ca7565b820191906000526020600020905b815481529060010190602001808311611c8a57829003601f168201915b505050505081526020016003820160009054906101000a900460ff1660ff1660ff16815250509050806040015181606001518260200151935093509350509193909250565b600c5481565b600180811115611d2b577f4e487b7100000000000000000000000000000000000000000000000000000000600052602160045260246000fd5b600260003373ffffffffffffffffffffffffffffffffffffffff1673ffffffffffffffffffffffffffffffffffffffff16815260200190815260200160002060040160009054906101000a900460ff166001811115611db3577f4e487b7100000000000000000000000000000000000000000000000000000000600052602160045260246000fd5b148015611f485750600280811115611df4577f4e487b7100000000000000000000000000000000000000000000000000000000600052602160045260246000fd5b600260003373ffffffffffffffffffffffffffffffffffffffff1673ffffffffffffffffffffffffffffffffffffffff16815260200190815260200160002060040160019054906101000a900460ff166002811115611e7c577f4e487b7100000000000000000000000000000000000000000000000000000000600052602160045260246000fd5b1480611f47575060016002811115611ebd577f4e487b7100000000000000000000000000000000000000000000000000000000600052602160045260246000fd5b600260003373ffffffffffffffffffffffffffffffffffffffff1673ffffffffffffffffffffffffffffffffffffffff16815260200190815260200160002060040160019054906101000a900460ff166002811115611f45577f4e487b7100000000000000000000000000000000000000000000000000000000600052602160045260246000fd5b145b5b80611f9e575060008054906101000a900473ffffffffffffffffffffffffffffffffffffffff1673ffffffffffffffffffffffffffffffffffffffff163373ffffffffffffffffffffffffffffffffffffffff16145b611fdd576040517f08c379a0000000000000000000000000000000000000000000000000000000008152600401611fd490613dbe565b60405180910390fd5b6000600584604051611fef9190613b45565b9081526020016040518091039020600101805461200b90613f65565b9050141561204e576040517f08c379a000000000000000000000000000000000000000000000000000000000815260040161204590613d5e565b60405180910390fd5b60006009836040516120609190613b45565b9081526020016040518091039020600001805461207c90613f65565b905014156120bf576040517f08c379a00000000000000000000000000000000000000000000000000000000081526004016120b690613c7e565b60405180910390fd5b806009836040516120d09190613b45565b908152602001604051809103902060040160146101000a81548160ff02191690836001811115612129577f4e487b7100000000000000000000000000000000000000000000000000000000600052602160045260246000fd5b02179055506000600a836040516121409190613b45565b9081526020016040518091039020549050816008856040516121629190613b45565b908152602001604051809103902082815481106121a8577f4e487b7100000000000000000000000000000000000000000000000000000000600052603260045260246000fd5b906000526020600020906005020160040160146101000a81548160ff02191690836001811115612201577f4e487b7100000000000000000000000000000000000000000000000000000000600052602160045260246000fd5b021790555050505050565b600180811115612245577f4e487b7100000000000000000000000000000000000000000000000000000000600052602160045260246000fd5b600260003373ffffffffffffffffffffffffffffffffffffffff1673ffffffffffffffffffffffffffffffffffffffff16815260200190815260200160002060040160009054906101000a900460ff1660018111156122cd577f4e487b7100000000000000000000000000000000000000000000000000000000600052602160045260246000fd5b148015612462575060028081111561230e577f4e487b7100000000000000000000000000000000000000000000000000000000600052602160045260246000fd5b600260003373ffffffffffffffffffffffffffffffffffffffff1673ffffffffffffffffffffffffffffffffffffffff16815260200190815260200160002060040160019054906101000a900460ff166002811115612396577f4e487b7100000000000000000000000000000000000000000000000000000000600052602160045260246000fd5b14806124615750600160028111156123d7577f4e487b7100000000000000000000000000000000000000000000000000000000600052602160045260246000fd5b600260003373ffffffffffffffffffffffffffffffffffffffff1673ffffffffffffffffffffffffffffffffffffffff16815260200190815260200160002060040160019054906101000a900460ff16600281111561245f577f4e487b7100000000000000000000000000000000000000000000000000000000600052602160045260246000fd5b145b5b806124b8575060008054906101000a900473ffffffffffffffffffffffffffffffffffffffff1673ffffffffffffffffffffffffffffffffffffffff163373ffffffffffffffffffffffffffffffffffffffff16145b6124f7576040517f08c379a00000000000000000000000000000000000000000000000000000000081526004016124ee90613dbe565b60405180910390fd5b60006005836040516125099190613b45565b9081526020016040518091039020600101805461252590613f65565b90501415612568576040517f08c379a000000000000000000000000000000000000000000000000000000000815260040161255f90613d5e565b60405180910390fd5b806005836040516125799190613b45565b908152602001604051809103902060040160146101000a81548160ff021916908360018111156125d2577f4e487b7100000000000000000000000000000000000000000000000000000000600052602160045260246000fd5b02179055505050565b600180811115612614577f4e487b7100000000000000000000000000000000000000000000000000000000600052602160045260246000fd5b600260003373ffffffffffffffffffffffffffffffffffffffff1673ffffffffffffffffffffffffffffffffffffffff16815260200190815260200160002060040160009054906101000a900460ff16600181111561269c577f4e487b7100000000000000000000000000000000000000000000000000000000600052602160045260246000fd5b14801561283157506002808111156126dd577f4e487b7100000000000000000000000000000000000000000000000000000000600052602160045260246000fd5b600260003373ffffffffffffffffffffffffffffffffffffffff1673ffffffffffffffffffffffffffffffffffffffff16815260200190815260200160002060040160019054906101000a900460ff166002811115612765577f4e487b7100000000000000000000000000000000000000000000000000000000600052602160045260246000fd5b14806128305750600160028111156127a6577f4e487b7100000000000000000000000000000000000000000000000000000000600052602160045260246000fd5b600260003373ffffffffffffffffffffffffffffffffffffffff1673ffffffffffffffffffffffffffffffffffffffff16815260200190815260200160002060040160019054906101000a900460ff16600281111561282e577f4e487b7100000000000000000000000000000000000000000000000000000000600052602160045260246000fd5b145b5b80612887575060008054906101000a900473ffffffffffffffffffffffffffffffffffffffff1673ffffffffffffffffffffffffffffffffffffffff163373ffffffffffffffffffffffffffffffffffffffff16145b6128c6576040517f08c379a00000000000000000000000000000000000000000000000000000000081526004016128bd90613dbe565b60405180910390fd5b60006006836040516128d89190613b45565b908152602001604051809103902060000180546128f490613f65565b90501415612937576040517f08c379a000000000000000000000000000000000000000000000000000000000815260040161292e90613d1e565b60405180910390fd5b60006005846040516129499190613b45565b9081526020016040518091039020600101805461296590613f65565b9050146129a7576040517f08c379a000000000000000000000000000000000000000000000000000000000815260040161299e90613c9e565b60405180910390fd5b60006040518060c001604052808681526020018581526020018481526020018381526020013373ffffffffffffffffffffffffffffffffffffffff168152602001600180811115612a21577f4e487b7100000000000000000000000000000000000000000000000000000000600052602160045260246000fd5b815250905080600585604051612a379190613b45565b90815260200160405180910390206000820151816000019080519060200190612a619291906133bc565b506020820151816001019080519060200190612a7e9291906133bc565b506040820151816002019080519060200190612a9b9291906133bc565b506060820151816003019080519060200190612ab89291906133bc565b5060808201518160040160006101000a81548173ffffffffffffffffffffffffffffffffffffffff021916908373ffffffffffffffffffffffffffffffffffffffff16021790555060a08201518160040160146101000a81548160ff02191690836001811115612b51577f4e487b7100000000000000000000000000000000000000000000000000000000600052602160045260246000fd5b0217905550905050600d6000815480929190612b6c90613f97565b9190505550600783604051612b819190613b45565b90815260200160405180910390208190806001815401808255809150506001900390600052602060002090600502016000909190919091506000820151816000019080519060200190612bd59291906133bc565b506020820151816001019080519060200190612bf29291906133bc565b506040820151816002019080519060200190612c0f9291906133bc565b506060820151816003019080519060200190612c2c9291906133bc565b5060808201518160040160006101000a81548173ffffffffffffffffffffffffffffffffffffffff021916908373ffffffffffffffffffffffffffffffffffffffff16021790555060a08201518160040160146101000a81548160ff02191690836001811115612cc5577f4e487b7100000000000000000000000000000000000000000000000000000000600052602160045260246000fd5b021790555050505050505050565b6060806060600080600180811115612d14577f4e487b7100000000000000000000000000000000000000000000000000000000600052602160045260246000fd5b600260003373ffffffffffffffffffffffffffffffffffffffff1673ffffffffffffffffffffffffffffffffffffffff16815260200190815260200160002060040160009054906101000a900460ff166001811115612d9c577f4e487b7100000000000000000000000000000000000000000000000000000000600052602160045260246000fd5b148015612f315750600280811115612ddd577f4e487b7100000000000000000000000000000000000000000000000000000000600052602160045260246000fd5b600260003373ffffffffffffffffffffffffffffffffffffffff1673ffffffffffffffffffffffffffffffffffffffff16815260200190815260200160002060040160019054906101000a900460ff166002811115612e65577f4e487b7100000000000000000000000000000000000000000000000000000000600052602160045260246000fd5b1480612f30575060016002811115612ea6577f4e487b7100000000000000000000000000000000000000000000000000000000600052602160045260246000fd5b600260003373ffffffffffffffffffffffffffffffffffffffff1673ffffffffffffffffffffffffffffffffffffffff16815260200190815260200160002060040160019054906101000a900460ff166002811115612f2e577f4e487b7100000000000000000000000000000000000000000000000000000000600052602160045260246000fd5b145b5b80612f87575060008054906101000a900473ffffffffffffffffffffffffffffffffffffffff1673ffffffffffffffffffffffffffffffffffffffff163373ffffffffffffffffffffffffffffffffffffffff16145b612fc6576040517f08c379a0000000000000000000000000000000000000000000000000000000008152600401612fbd90613dbe565b60405180910390fd5b6000600587604051612fd89190613b45565b90815260200160405180910390206001018054612ff490613f65565b90501415613037576040517f08c379a000000000000000000000000000000000000000000000000000000000815260040161302e90613cde565b60405180910390fd5b60006005876040516130499190613b45565b90815260200160405180910390206040518060c001604052908160008201805461307290613f65565b80601f016020809104026020016040519081016040528092919081815260200182805461309e90613f65565b80156130eb5780601f106130c0576101008083540402835291602001916130eb565b820191906000526020600020905b8154815290600101906020018083116130ce57829003601f168201915b5050505050815260200160018201805461310490613f65565b80601f016020809104026020016040519081016040528092919081815260200182805461313090613f65565b801561317d5780601f106131525761010080835404028352916020019161317d565b820191906000526020600020905b81548152906001019060200180831161316057829003601f168201915b5050505050815260200160028201805461319690613f65565b80601f01602080910402602001604051908101604052809291908181526020018280546131c290613f65565b801561320f5780601f106131e45761010080835404028352916020019161320f565b820191906000526020600020905b8154815290600101906020018083116131f257829003601f168201915b5050505050815260200160038201805461322890613f65565b80601f016020809104026020016040519081016040528092919081815260200182805461325490613f65565b80156132a15780601f10613276576101008083540402835291602001916132a1565b820191906000526020600020905b81548152906001019060200180831161328457829003601f168201915b505050505081526020016004820160009054906101000a900473ffffffffffffffffffffffffffffffffffffffff1673ffffffffffffffffffffffffffffffffffffffff1673ffffffffffffffffffffffffffffffffffffffff1681526020016004820160149054906101000a900460ff16600181111561334b577f4e487b7100000000000000000000000000000000000000000000000000000000600052602160045260246000fd5b6001811115613383577f4e487b7100000000000000000000000000000000000000000000000000000000600052602160045260246000fd5b81525050905080600001518160400151826060015183608001518460a00151955095509550955095505091939590929450565b600d5481565b8280546133c890613f65565b90600052602060002090601f0160209004810192826133ea5760008555613431565b82601f1061340357805160ff1916838001178555613431565b82800160010185558215613431579182015b82811115613430578251825591602001919060010190613415565b5b50905061343e9190613442565b5090565b5b8082111561345b576000816000905550600101613443565b5090565b600061347261346d84613e2a565b613df9565b90508281526020810184848401111561348a57600080fd5b613495848285613f23565b509392505050565b6000813590506134ac816140c1565b92915050565b600082601f8301126134c357600080fd5b81356134d384826020860161345f565b91505092915050565b6000813590506134eb816140d1565b92915050565b60006020828403121561350357600080fd5b600082013567ffffffffffffffff81111561351d57600080fd5b613529848285016134b2565b91505092915050565b6000806040838503121561354557600080fd5b600083013567ffffffffffffffff81111561355f57600080fd5b61356b858286016134b2565b925050602061357c8582860161349d565b9150509250929050565b6000806040838503121561359957600080fd5b600083013567ffffffffffffffff8111156135b357600080fd5b6135bf858286016134b2565b925050602083013567ffffffffffffffff8111156135dc57600080fd5b6135e8858286016134b2565b9150509250929050565b60008060006060848603121561360757600080fd5b600084013567ffffffffffffffff81111561362157600080fd5b61362d868287016134b2565b935050602084013567ffffffffffffffff81111561364a57600080fd5b613656868287016134b2565b92505060406136678682870161349d565b9150509250925092565b6000806000806080858703121561368757600080fd5b600085013567ffffffffffffffff8111156136a157600080fd5b6136ad878288016134b2565b945050602085013567ffffffffffffffff8111156136ca57600080fd5b6136d6878288016134b2565b935050604085013567ffffffffffffffff8111156136f357600080fd5b6136ff878288016134b2565b925050606085013567ffffffffffffffff81111561371c57600080fd5b613728878288016134b2565b91505092959194509250565b6000806000806080858703121561374a57600080fd5b600085013567ffffffffffffffff81111561376457600080fd5b613770878288016134b2565b945050602085013567ffffffffffffffff81111561378d57600080fd5b613799878288016134b2565b935050604085013567ffffffffffffffff8111156137b657600080fd5b6137c2878288016134b2565b92505060606137d3878288016134dc565b91505092959194509250565b6137e881613eb5565b82525050565b6137f781613f11565b82525050565b600061380882613e5a565b6138128185613e65565b9350613822818560208601613f32565b61382b8161409c565b840191505092915050565b600061384182613e5a565b61384b8185613e76565b935061385b818560208601613f32565b80840191505092915050565b6000613874601783613e65565b91507f45766964656e636520646f6573206e6f742065786973740000000000000000006000830152602082019050919050565b60006138b4601683613e65565b91507f4361736520494420616c726561647920657869737473000000000000000000006000830152602082019050919050565b60006138f4601383613e65565b91507f436173652074797065206e6f7420666f756e64000000000000000000000000006000830152602082019050919050565b6000613934600e83613e65565b91507f43617365206e6f7420666f756e640000000000000000000000000000000000006000830152602082019050919050565b6000613974601883613e65565b91507f43617365207479706520616c72656164792065786973747300000000000000006000830152602082019050919050565b60006139b4601883613e65565b91507f43617365207479706520646f6573206e6f7420657869737400000000000000006000830152602082019050919050565b60006139f4601a83613e65565b91507f4e6f7420616e20616374697665204c6576656c203220557365720000000000006000830152602082019050919050565b6000613a34601383613e65565b91507f4361736520646f6573206e6f74206578697374000000000000000000000000006000830152602082019050919050565b6000613a74601c83613e65565b91507f4361736520747970652049442063616e6e6f7420626520656d707479000000006000830152602082019050919050565b6000613ab4601a83613e65565b91507f45766964656e636520494420616c7265616479206578697374730000000000006000830152602082019050919050565b6000613af4601a83613e65565b91507f4e6f7420616e20616374697665204c6576656c203120557365720000000000006000830152602082019050919050565b613b3081613efa565b82525050565b613b3f81613f04565b82525050565b6000613b518284613836565b915081905092915050565b60006020820190508181036000830152613b7681846137fd565b905092915050565b60006080820190508181036000830152613b9881876137fd565b90508181036020830152613bac81866137fd565b9050613bbb60408301856137df565b613bc860608301846137ee565b95945050505050565b600060a0820190508181036000830152613beb81886137fd565b90508181036020830152613bff81876137fd565b90508181036040830152613c1381866137fd565b9050613c2260608301856137df565b613c2f60808301846137ee565b9695505050505050565b60006060820190508181036000830152613c5381866137fd565b9050613c626020830185613b36565b8181036040830152613c7481846137fd565b9050949350505050565b60006020820190508181036000830152613c9781613867565b9050919050565b60006020820190508181036000830152613cb7816138a7565b9050919050565b60006020820190508181036000830152613cd7816138e7565b9050919050565b60006020820190508181036000830152613cf781613927565b9050919050565b60006020820190508181036000830152613d1781613967565b9050919050565b60006020820190508181036000830152613d37816139a7565b9050919050565b60006020820190508181036000830152613d57816139e7565b9050919050565b60006020820190508181036000830152613d7781613a27565b9050919050565b60006020820190508181036000830152613d9781613a67565b9050919050565b60006020820190508181036000830152613db781613aa7565b9050919050565b60006020820190508181036000830152613dd781613ae7565b9050919050565b6000602082019050613df36000830184613b27565b92915050565b6000604051905081810181811067ffffffffffffffff82111715613e2057613e1f61406d565b5b8060405250919050565b600067ffffffffffffffff821115613e4557613e4461406d565b5b601f19601f8301169050602081019050919050565b600081519050919050565b600082825260208201905092915050565b600081905092915050565b6000613e8c82613efa565b9150613e9783613efa565b925082821015613eaa57613ea9613fe0565b5b828203905092915050565b6000613ec082613eda565b9050919050565b6000819050613ed5826140ad565b919050565b600073ffffffffffffffffffffffffffffffffffffffff82169050919050565b6000819050919050565b600060ff82169050919050565b6000613f1c82613ec7565b9050919050565b82818337600083830152505050565b60005b83811015613f50578082015181840152602081019050613f35565b83811115613f5f576000848401525b50505050565b60006002820490506001821680613f7d57607f821691505b60208210811415613f9157613f9061403e565b5b50919050565b6000613fa282613efa565b91507fffffffffffffffffffffffffffffffffffffffffffffffffffffffffffffffff821415613fd557613fd4613fe0565b5b600182019050919050565b7f4e487b7100000000000000000000000000000000000000000000000000000000600052601160045260246000fd5b7f4e487b7100000000000000000000000000000000000000000000000000000000600052602160045260246000fd5b7f4e487b7100000000000000000000000000000000000000000000000000000000600052602260045260246000fd5b7f4e487b7100000000000000000000000000000000000000000000000000000000600052604160045260246000fd5b6000601f19601f8301169050919050565b600281106140be576140bd61400f565b5b50565b600281106140ce57600080fd5b50565b6140da81613f04565b81146140e557600080fd5b5056fea2646970667358221220021f572f6328c90bcdbbeac331ba2da14b714aa4dab859adcfb1870cd1ddb55964736f6c63430008000033",
  "immutableReferences": {},
  "source": "// SPDX-License-Identifier: MIT\npragma solidity ^0.8.0;\n\nimport \"./SecureEvidence.sol\";\n\ncontract Case is SecureEvidence {\n\n        function addType(\n        string memory _caseTypeID,\n        string memory _description,\n        string memory _category,\n        uint8 _level\n    ) public onlyLevelOne {\n        require(bytes(_caseTypeID).length > 0, \"Case type ID cannot be empty\");\n        require(!caseType[_caseTypeID], \"Case type already exists\");\n\n        typesByID[_caseTypeID] = Type({\n            caseTypeID: _caseTypeID,\n            description: _description,\n            category: _category,\n            level: _level\n        });\n\n        caseType[_caseTypeID] = true;\n        typeCount++;\n    }\n\n    function getType(\n        string memory _caseTypeID) \n        public \n        view \n        onlyLevelOne \n        returns (\n            string memory category, \n            uint8 level,\n            string memory description) \n    {\n        require(bytes(typesByID[_caseTypeID].caseTypeID).length != 0, \"Case type not found\");\n\n        Type memory _type = typesByID[_caseTypeID];\n        return (_type.category, _type.level,_type.description);\n    }\n\n    function addCase(\n        string memory _caseTitle,\n        string memory _caseID,\n        string memory _caseTypeID,\n        string memory _reportHash\n    ) public onlyLevelOne {\n        require(bytes(typesByID[_caseTypeID].caseTypeID).length != 0, \"Case type does not exist\");\n        require(bytes(cases[_caseID].caseID).length == 0, \"Case ID already exists\");\n\n        Case memory newCase = Case({\n            caseTitle: _caseTitle,\n            caseID: _caseID,\n            caseTypeID: _caseTypeID,\n            reportHash: _reportHash,\n            addedBy: msg.sender,\n            status: Status.Active\n        });\n\n        cases[_caseID] = newCase;\n        caseCount++;\n        casesByType[_caseTypeID].push(newCase);\n    }\n\n    function updateCaseStatus(\n        string memory _caseID,\n        Status _status\n    ) public onlyLevelOne {\n        require(bytes(cases[_caseID].caseID).length != 0, \"Case does not exist\");\n        cases[_caseID].status = _status;\n    }\n\n    function getCase(string memory _caseID) \n        public \n        view \n        onlyLevelOne \n        returns (\n            string memory caseTitle, \n            string memory caseTypeID, \n            string memory reportHash, \n            address addedBy, \n            Status status\n        ) \n    {\n        require(bytes(cases[_caseID].caseID).length != 0, \"Case not found\");\n\n        Case memory _case = cases[_caseID];\n        return (_case.caseTitle, _case.caseTypeID, _case.reportHash, _case.addedBy, _case.status);\n    }\n\n        function addEvidence(\n        string memory _caseID, \n        string memory _evidenceID,\n        string memory _evidenceType, \n        string memory _evidenceHash\n        ) public onlyLevelTwo {\n            require(bytes(cases[_caseID].caseID).length != 0, \"Case does not exist\");\n            require(bytes(evidenceByID[_evidenceID].caseID).length == 0, \"Evidence ID already exists\");\n\n            Evidence memory newEvidence = Evidence({\n                caseID: _caseID,\n                evidenceID: _evidenceID,\n                evidenceType: _evidenceType,\n                evidenceHash: _evidenceHash,\n                addedBy: msg.sender,\n                status: Status.Active\n            });\n\n            caseEvidence[_caseID].push(newEvidence);\n            evidenceByID[_evidenceID] = newEvidence;\n            evidenceIndexByID[_evidenceID] = caseEvidence[_caseID].length - 1;\n            evidenceCount++;\n            }\n\n    function updateEvidenceStatus(\n        string memory _caseID, \n        string memory  _evidenceID, \n        Status _status\n        ) public onlyLevelOne {\n            require(bytes(cases[_caseID].caseID).length != 0, \"Case does not exist\");\n            require(bytes(evidenceByID[_evidenceID].caseID).length != 0, \"Evidence does not exist\");\n\n            evidenceByID[_evidenceID].status = _status;\n\n            uint256 evidenceIndex = evidenceIndexByID[_evidenceID];\n            caseEvidence[_caseID][evidenceIndex].status = _status;\n            }\n\n    function getEvidence(\n        string memory _caseID, \n        string memory _evidenceID \n        ) public view onlyLevelOne returns (\n            string memory evidenceType, \n            string memory evidenceHash, \n            address addedBy, \n            Status status) {\n                require(bytes(cases[_caseID].caseID).length != 0, \"Case does not exist\");\n                require(bytes(evidenceByID[_evidenceID].caseID).length != 0, \"Evidence does not exist\");\n\n                Evidence memory _evidence = evidenceByID[_evidenceID];\n                return (_evidence.evidenceType, _evidence.evidenceHash, _evidence.addedBy, _evidence.status);\n                }\n\n\n}\n",
  "sourcePath": "/home/juthindu/Blockchsin/25/12/contracts/Case.sol",
  "compiler": {
    "name": "solc",
    "version": "0.8.0+commit.c7dfd78e.Emscripten.clang"
  },
  "schemaVersion": "3.4.16",
  "updatedAt": "2024-09-06T07:02:09.626Z",
  "networkType": "ethereum",
  "devdoc": {
    "kind": "dev",
    "methods": {},
    "version": 1
  },
  "userdoc": {
    "kind": "user",
    "methods": {},
    "version": 1
  }
}