{
  "contractName": "Evidence",
  "abi": [
    {
      "anonymous": false,
      "inputs": [
        {
          "indexed": false,
          "internalType": "string",
          "name": "newGuidelineHash",
          "type": "string"
        },
        {
          "indexed": false,
          "internalType": "address",
          "name": "updatedBy",
          "type": "address"
        }
      ],
      "name": "GuidelineHashUpdated",
      "type": "event"
    },
    {
      "anonymous": false,
      "inputs": [
        {
          "indexed": false,
          "internalType": "address",
          "name": "oldSuperAdmin",
          "type": "address"
        },
        {
          "indexed": false,
          "internalType": "string",
          "name": "oldSuperAdminUsername",
          "type": "string"
        },
        {
          "indexed": false,
          "internalType": "address",
          "name": "newSuperAdmin",
          "type": "address"
        },
        {
          "indexed": false,
          "internalType": "string",
          "name": "newSuperAdminUsername",
          "type": "string"
        }
      ],
      "name": "SuperAdminChanged",
      "type": "event"
    },
    {
      "inputs": [],
      "name": "caseCount",
      "outputs": [
        {
          "internalType": "uint256",
          "name": "",
          "type": "uint256"
        }
      ],
      "stateMutability": "view",
      "type": "function",
      "constant": true
    },
    {
      "inputs": [],
      "name": "evidenceCount",
      "outputs": [
        {
          "internalType": "uint256",
          "name": "",
          "type": "uint256"
        }
      ],
      "stateMutability": "view",
      "type": "function",
      "constant": true
    },
    {
      "inputs": [
        {
          "internalType": "uint256",
          "name": "",
          "type": "uint256"
        }
      ],
      "name": "evidenceIndexByID",
      "outputs": [
        {
          "internalType": "uint256",
          "name": "",
          "type": "uint256"
        }
      ],
      "stateMutability": "view",
      "type": "function",
      "constant": true
    },
    {
      "inputs": [],
      "name": "guidelineHash",
      "outputs": [
        {
          "internalType": "string",
          "name": "",
          "type": "string"
        }
      ],
      "stateMutability": "view",
      "type": "function",
      "constant": true
    },
    {
      "inputs": [],
      "name": "typeCount",
      "outputs": [
        {
          "internalType": "uint256",
          "name": "",
          "type": "uint256"
        }
      ],
      "stateMutability": "view",
      "type": "function",
      "constant": true
    }
  ],
  "bytecode": "0x608060405273ae66570c9252ad7c82a76371dce460129538d7d76000806101000a81548173ffffffffffffffffffffffffffffffffffffffff021916908373ffffffffffffffffffffffffffffffffffffffff1602179055506040518060400160405280600a81526020017f537570657241646d696e00000000000000000000000000000000000000000000815250600190805190602001906100a39291906100b6565b503480156100b057600080fd5b506101ba565b8280546100c290610159565b90600052602060002090601f0160209004810192826100e4576000855561012b565b82601f106100fd57805160ff191683800117855561012b565b8280016001018555821561012b579182015b8281111561012a57825182559160200191906001019061010f565b5b509050610138919061013c565b5090565b5b8082111561015557600081600090555060010161013d565b5090565b6000600282049050600182168061017157607f821691505b602082108114156101855761018461018b565b5b50919050565b7f4e487b7100000000000000000000000000000000000000000000000000000000600052602260045260246000fd5b610397806101c96000396000f3fe608060405234801561001057600080fd5b50600436106100575760003560e01c8063602d7fe61461005c578063832581e81461007a578063a2ed5af014610098578063afeba576146100b6578063da2d7e95146100e6575b600080fd5b610064610104565b6040516100719190610264565b60405180910390f35b61008261010a565b60405161008f9190610242565b60405180910390f35b6100a0610198565b6040516100ad9190610264565b60405180910390f35b6100d060048036038101906100cb91906101d1565b61019e565b6040516100dd9190610264565b60405180910390f35b6100ee6101b6565b6040516100fb9190610264565b60405180910390f35b600f5481565b60108054610117906102d8565b80601f0160208091040260200160405190810160405280929190818152602001828054610143906102d8565b80156101905780601f1061016557610100808354040283529160200191610190565b820191906000526020600020905b81548152906001019060200180831161017357829003601f168201915b505050505081565b600d5481565b600b6020528060005260406000206000915090505481565b600e5481565b6000813590506101cb8161034a565b92915050565b6000602082840312156101e357600080fd5b60006101f1848285016101bc565b91505092915050565b60006102058261027f565b61020f818561028a565b935061021f8185602086016102a5565b61022881610339565b840191505092915050565b61023c8161029b565b82525050565b6000602082019050818103600083015261025c81846101fa565b905092915050565b60006020820190506102796000830184610233565b92915050565b600081519050919050565b600082825260208201905092915050565b6000819050919050565b60005b838110156102c35780820151818401526020810190506102a8565b838111156102d2576000848401525b50505050565b600060028204905060018216806102f057607f821691505b602082108114156103045761030361030a565b5b50919050565b7f4e487b7100000000000000000000000000000000000000000000000000000000600052602260045260246000fd5b6000601f19601f8301169050919050565b6103538161029b565b811461035e57600080fd5b5056fea26469706673582212207b6c994fd06919a05ea93fb3dc5baf68b08304d9b26eb0049e195597d293bef664736f6c63430008000033",
  "immutableReferences": {},
  "source": "// SPDX-License-Identifier: MIT\npragma solidity ^0.8.0;\n\nimport \"./SecureEvidence.sol\";\n\ncontract Evidence is SecureEvidence {\n    \n\n\n}\n",
  "sourcePath": "/home/juthindu/Blockchsin/25/12/contracts/Evidence.sol",
  "compiler": {
    "name": "solc",
    "version": "0.8.0+commit.c7dfd78e.Emscripten.clang"
  },
  "schemaVersion": "3.4.16",
  "updatedAt": "2024-07-19T12:04:05.493Z",
  "networkType": "ethereum",
  "devdoc": {
    "kind": "dev",
    "methods": {},
    "version": 1
  },
  "userdoc": {
    "kind": "user",
    "methods": {},
    "version": 1
  }
}