{
  "contractName": "ImageStore",
  "abi": [
    {
      "anonymous": false,
      "inputs": [
        {
          "indexed": true,
          "internalType": "uint256",
          "name": "imageId",
          "type": "uint256"
        },
        {
          "indexed": false,
          "internalType": "string",
          "name": "name",
          "type": "string"
        },
        {
          "indexed": false,
          "internalType": "string",
          "name": "ipfsHash",
          "type": "string"
        },
        {
          "indexed": false,
          "internalType": "address",
          "name": "uploader",
          "type": "address"
        }
      ],
      "name": "ImageUploaded",
      "type": "event"
    },
    {
      "inputs": [],
      "name": "imageCount",
      "outputs": [
        {
          "internalType": "uint256",
          "name": "",
          "type": "uint256"
        }
      ],
      "stateMutability": "view",
      "type": "function",
      "constant": true
    },
    {
      "inputs": [
        {
          "internalType": "uint256",
          "name": "",
          "type": "uint256"
        }
      ],
      "name": "images",
      "outputs": [
        {
          "internalType": "string",
          "name": "name",
          "type": "string"
        },
        {
          "internalType": "string",
          "name": "ipfsHash",
          "type": "string"
        }
      ],
      "stateMutability": "view",
      "type": "function",
      "constant": true
    },
    {
      "inputs": [
        {
          "internalType": "string",
          "name": "_name",
          "type": "string"
        },
        {
          "internalType": "string",
          "name": "_ipfsHash",
          "type": "string"
        }
      ],
      "name": "uploadImage",
      "outputs": [],
      "stateMutability": "nonpayable",
      "type": "function"
    },
    {
      "inputs": [
        {
          "internalType": "string",
          "name": "_name",
          "type": "string"
        }
      ],
      "name": "getImagePath",
      "outputs": [
        {
          "internalType": "string",
          "name": "",
          "type": "string"
        }
      ],
      "stateMutability": "view",
      "type": "function",
      "constant": true
    }
  ],
  "bytecode": "0x6080604052600060015534801561001557600080fd5b50610bef806100256000396000f3fe608060405234801561001057600080fd5b506004361061004c5760003560e01c80635dda76d814610051578063848564821461008157806392053b63146100b2578063a91b8314146100d0575b600080fd5b61006b600480360381019061006691906105d2565b6100ec565b6040516100789190610855565b60405180910390f35b61009b6004803603810190610096919061067f565b610230565b6040516100a9929190610877565b60405180910390f35b6100ba610364565b6040516100c79190610953565b60405180910390f35b6100ea60048036038101906100e59190610613565b61036a565b005b60606000600190505b60015481116101ef578280519060200120600080838152602001908152602001600020600001604051610128919061083e565b604051809103902014156101dc57600080828152602001908152602001600020600101805461015690610a89565b80601f016020809104026020016040519081016040528092919081815260200182805461018290610a89565b80156101cf5780601f106101a4576101008083540402835291602001916101cf565b820191906000526020600020905b8154815290600101906020018083116101b257829003601f168201915b505050505091505061022b565b80806101e790610abb565b9150506100f5565b506040517f08c379a000000000000000000000000000000000000000000000000000000000815260040161022290610913565b60405180910390fd5b919050565b600060205280600052604060002060009150905080600001805461025390610a89565b80601f016020809104026020016040519081016040528092919081815260200182805461027f90610a89565b80156102cc5780601f106102a1576101008083540402835291602001916102cc565b820191906000526020600020905b8154815290600101906020018083116102af57829003601f168201915b5050505050908060010180546102e190610a89565b80601f016020809104026020016040519081016040528092919081815260200182805461030d90610a89565b801561035a5780601f1061032f5761010080835404028352916020019161035a565b820191906000526020600020905b81548152906001019060200180831161033d57829003601f168201915b5050505050905082565b60015481565b60008251116103ae576040517f08c379a00000000000000000000000000000000000000000000000000000000081526004016103a590610933565b60405180910390fd5b60008151116103f2576040517f08c379a00000000000000000000000000000000000000000000000000000000081526004016103e9906108f3565b60405180910390fd5b6001600081548092919061040590610abb565b91905055506040518060400160405280838152602001828152506000806001548152602001908152602001600020600082015181600001908051906020019061044f9291906104b2565b50602082015181600101908051906020019061046c9291906104b2565b509050506001547fda2401c4b004175413cd23bba3c971b53de5c9d4a59698fc9cd5cc86d6592eed8383336040516104a6939291906108ae565b60405180910390a25050565b8280546104be90610a89565b90600052602060002090601f0160209004810192826104e05760008555610527565b82601f106104f957805160ff1916838001178555610527565b82800160010185558215610527579182015b8281111561052657825182559160200191906001019061050b565b5b5090506105349190610538565b5090565b5b80821115610551576000816000905550600101610539565b5090565b60006105686105638461099f565b61096e565b90508281526020810184848401111561058057600080fd5b61058b848285610a47565b509392505050565b600082601f8301126105a457600080fd5b81356105b4848260208601610555565b91505092915050565b6000813590506105cc81610ba2565b92915050565b6000602082840312156105e457600080fd5b600082013567ffffffffffffffff8111156105fe57600080fd5b61060a84828501610593565b91505092915050565b6000806040838503121561062657600080fd5b600083013567ffffffffffffffff81111561064057600080fd5b61064c85828601610593565b925050602083013567ffffffffffffffff81111561066957600080fd5b61067585828601610593565b9150509250929050565b60006020828403121561069157600080fd5b600061069f848285016105bd565b91505092915050565b6106b181610a0b565b82525050565b600081546106c481610a89565b6106ce81866109ef565b945060018216600081146106e957600181146106fa5761072d565b60ff1983168652818601935061072d565b610703856109cf565b60005b8381101561072557815481890152600182019150602081019050610706565b838801955050505b50505092915050565b6000610741826109e4565b61074b81856109fa565b935061075b818560208601610a56565b61076481610b91565b840191505092915050565b600061077c6015836109fa565b91507f49504653206861736820697320726571756972656400000000000000000000006000830152602082019050919050565b60006107bc600f836109fa565b91507f496d616765206e6f7420666f756e6400000000000000000000000000000000006000830152602082019050919050565b60006107fc6010836109fa565b91507f4e616d65206973207265717569726564000000000000000000000000000000006000830152602082019050919050565b61083881610a3d565b82525050565b600061084a82846106b7565b915081905092915050565b6000602082019050818103600083015261086f8184610736565b905092915050565b600060408201905081810360008301526108918185610736565b905081810360208301526108a58184610736565b90509392505050565b600060608201905081810360008301526108c88186610736565b905081810360208301526108dc8185610736565b90506108eb60408301846106a8565b949350505050565b6000602082019050818103600083015261090c8161076f565b9050919050565b6000602082019050818103600083015261092c816107af565b9050919050565b6000602082019050818103600083015261094c816107ef565b9050919050565b6000602082019050610968600083018461082f565b92915050565b6000604051905081810181811067ffffffffffffffff8211171561099557610994610b62565b5b8060405250919050565b600067ffffffffffffffff8211156109ba576109b9610b62565b5b601f19601f8301169050602081019050919050565b60008190508160005260206000209050919050565b600081519050919050565b600081905092915050565b600082825260208201905092915050565b6000610a1682610a1d565b9050919050565b600073ffffffffffffffffffffffffffffffffffffffff82169050919050565b6000819050919050565b82818337600083830152505050565b60005b83811015610a74578082015181840152602081019050610a59565b83811115610a83576000848401525b50505050565b60006002820490506001821680610aa157607f821691505b60208210811415610ab557610ab4610b33565b5b50919050565b6000610ac682610a3d565b91507fffffffffffffffffffffffffffffffffffffffffffffffffffffffffffffffff821415610af957610af8610b04565b5b600182019050919050565b7f4e487b7100000000000000000000000000000000000000000000000000000000600052601160045260246000fd5b7f4e487b7100000000000000000000000000000000000000000000000000000000600052602260045260246000fd5b7f4e487b7100000000000000000000000000000000000000000000000000000000600052604160045260246000fd5b6000601f19601f8301169050919050565b610bab81610a3d565b8114610bb657600080fd5b5056fea2646970667358221220714eee8fe0ddc95fdfa5715784878b10716d0d1e01e69122f4e2ba0a275273f464736f6c63430008000033",
  "immutableReferences": {},
  "source": "// SPDX-License-Identifier: MIT\npragma solidity ^0.8.0;\n\ncontract ImageStore {\n    struct Image {\n        string name;\n        string ipfsHash;\n    }\n\n    mapping(uint256 => Image) public images;\n    uint256 public imageCount = 0;\n\n    event ImageUploaded(\n        uint256 indexed imageId,\n        string name,\n        string ipfsHash,\n        address uploader\n    );\n\n    function uploadImage(string memory _name, string memory _ipfsHash) public {\n        require(bytes(_name).length > 0, \"Name is required\");\n        require(bytes(_ipfsHash).length > 0, \"IPFS hash is required\");\n\n        imageCount++;\n        images[imageCount] = Image(_name, _ipfsHash);\n\n        emit ImageUploaded(imageCount, _name, _ipfsHash, msg.sender);\n    }\n        function getImagePath(string memory _name) public view returns (string memory) {\n        for (uint256 i = 1; i <= imageCount; i++) {\n            if (keccak256(bytes(images[i].name)) == keccak256(bytes(_name))) {\n                return images[i].ipfsHash;\n            }\n        }\n        revert(\"Image not found\");\n    }\n}\n",
  "sourcePath": "/home/juthindu/Blockchsin/25/12/contracts/ImageStore.sol",
  "compiler": {
    "name": "solc",
    "version": "0.8.0+commit.c7dfd78e.Emscripten.clang"
  },
  "schemaVersion": "3.4.16",
  "updatedAt": "2024-07-19T12:04:05.471Z",
  "networkType": "ethereum",
  "devdoc": {
    "kind": "dev",
    "methods": {},
    "version": 1
  },
  "userdoc": {
    "kind": "user",
    "methods": {},
    "version": 1
  }
}