{
  "contractName": "SecureEvidence",
  "abi": [
    {
      "anonymous": false,
      "inputs": [
        {
          "indexed": false,
          "internalType": "string",
          "name": "newGuidelineHash",
          "type": "string"
        },
        {
          "indexed": false,
          "internalType": "address",
          "name": "updatedBy",
          "type": "address"
        }
      ],
      "name": "GuidelineHashUpdated",
      "type": "event"
    },
    {
      "anonymous": false,
      "inputs": [
        {
          "indexed": false,
          "internalType": "address",
          "name": "oldSuperAdmin",
          "type": "address"
        },
        {
          "indexed": false,
          "internalType": "string",
          "name": "oldSuperAdminUsername",
          "type": "string"
        },
        {
          "indexed": false,
          "internalType": "address",
          "name": "newSuperAdmin",
          "type": "address"
        },
        {
          "indexed": false,
          "internalType": "string",
          "name": "newSuperAdminUsername",
          "type": "string"
        }
      ],
      "name": "SuperAdminChanged",
      "type": "event"
    },
    {
      "inputs": [],
      "name": "caseCount",
      "outputs": [
        {
          "internalType": "uint256",
          "name": "",
          "type": "uint256"
        }
      ],
      "stateMutability": "view",
      "type": "function",
      "constant": true
    },
    {
      "inputs": [],
      "name": "evidenceCount",
      "outputs": [
        {
          "internalType": "uint256",
          "name": "",
          "type": "uint256"
        }
      ],
      "stateMutability": "view",
      "type": "function",
      "constant": true
    },
    {
      "inputs": [
        {
          "internalType": "string",
          "name": "",
          "type": "string"
        }
      ],
      "name": "evidenceIndexByID",
      "outputs": [
        {
          "internalType": "uint256",
          "name": "",
          "type": "uint256"
        }
      ],
      "stateMutability": "view",
      "type": "function",
      "constant": true
    },
    {
      "inputs": [],
      "name": "guidelineHash",
      "outputs": [
        {
          "internalType": "string",
          "name": "",
          "type": "string"
        }
      ],
      "stateMutability": "view",
      "type": "function",
      "constant": true
    },
    {
      "inputs": [],
      "name": "typeCount",
      "outputs": [
        {
          "internalType": "uint256",
          "name": "",
          "type": "uint256"
        }
      ],
      "stateMutability": "view",
      "type": "function",
      "constant": true
    }
  ],
  "bytecode": "0x608060405273ae66570c9252ad7c82a76371dce460129538d7d76000806101000a81548173ffffffffffffffffffffffffffffffffffffffff021916908373ffffffffffffffffffffffffffffffffffffffff1602179055506040518060400160405280600a81526020017f537570657241646d696e00000000000000000000000000000000000000000000815250600190805190602001906100a39291906100b6565b503480156100b057600080fd5b506101ba565b8280546100c290610159565b90600052602060002090601f0160209004810192826100e4576000855561012b565b82601f106100fd57805160ff191683800117855561012b565b8280016001018555821561012b579182015b8281111561012a57825182559160200191906001019061010f565b5b509050610138919061013c565b5090565b5b8082111561015557600081600090555060010161013d565b5090565b6000600282049050600182168061017157607f821691505b602082108114156101855761018461018b565b5b50919050565b7f4e487b7100000000000000000000000000000000000000000000000000000000600052602260045260246000fd5b6104a0806101c96000396000f3fe608060405234801561001057600080fd5b50600436106100575760003560e01c806345b576311461005c578063602d7fe61461008c578063832581e8146100aa578063a2ed5af0146100c8578063da2d7e95146100e6575b600080fd5b6100766004803603810190610071919061023a565b610104565b60405161008391906102e5565b60405180910390f35b610094610132565b6040516100a191906102e5565b60405180910390f35b6100b2610138565b6040516100bf91906102c3565b60405180910390f35b6100d06101c6565b6040516100dd91906102e5565b60405180910390f35b6100ee6101cc565b6040516100fb91906102e5565b60405180910390f35b600a818051602081018201805184825260208301602085012081835280955050505050506000915090505481565b600e5481565b600f8054610145906103c9565b80601f0160208091040260200160405190810160405280929190818152602001828054610171906103c9565b80156101be5780601f10610193576101008083540402835291602001916101be565b820191906000526020600020905b8154815290600101906020018083116101a157829003601f168201915b505050505081565b600c5481565b600d5481565b60006101e56101e084610331565b610300565b9050828152602081018484840111156101fd57600080fd5b610208848285610387565b509392505050565b600082601f83011261022157600080fd5b81356102318482602086016101d2565b91505092915050565b60006020828403121561024c57600080fd5b600082013567ffffffffffffffff81111561026657600080fd5b61027284828501610210565b91505092915050565b600061028682610361565b610290818561036c565b93506102a0818560208601610396565b6102a981610459565b840191505092915050565b6102bd8161037d565b82525050565b600060208201905081810360008301526102dd818461027b565b905092915050565b60006020820190506102fa60008301846102b4565b92915050565b6000604051905081810181811067ffffffffffffffff821117156103275761032661042a565b5b8060405250919050565b600067ffffffffffffffff82111561034c5761034b61042a565b5b601f19601f8301169050602081019050919050565b600081519050919050565b600082825260208201905092915050565b6000819050919050565b82818337600083830152505050565b60005b838110156103b4578082015181840152602081019050610399565b838111156103c3576000848401525b50505050565b600060028204905060018216806103e157607f821691505b602082108114156103f5576103f46103fb565b5b50919050565b7f4e487b7100000000000000000000000000000000000000000000000000000000600052602260045260246000fd5b7f4e487b7100000000000000000000000000000000000000000000000000000000600052604160045260246000fd5b6000601f19601f830116905091905056fea26469706673582212202041ad48de97407728e126c18bf1ea58b6a95e0d74c0c909c27fbaaaccdd493264736f6c63430008000033",
  "immutableReferences": {},
  "source": "// SPDX-License-Identifier: MIT\npragma solidity ^0.8.0;\n\ncontract SecureEvidence {\n    address superAdminAddress = 0xaE66570C9252Ad7c82A76371Dce460129538d7D7;\n    string superAdminUsername = \"SuperAdmin\";\n\n    enum Status {Inactive, Active}\n    enum UserRole {LevelTwo, LevelOne, Admin}\n    event SuperAdminChanged(address oldSuperAdmin, string oldSuperAdminUsername, address newSuperAdmin, string newSuperAdminUsername);\n    event GuidelineHashUpdated(string newGuidelineHash, address updatedBy);\n    \n    struct Account {\n        string name;\n        string ID;\n        address accountAddress;\n        string username;\n        Status status;\n        UserRole role;\n    }\n\n    struct Type {\n        string caseTypeID;\n        string description;\n        string category;\n        uint8 level;\n    }\n\n    struct Case {\n        string caseTitle;\n        string caseID;\n        string caseTypeID;\n        string reportHash;\n        address addedBy;\n        Status status;\n    }\n\n    struct Evidence {\n        string caseID;\n        string evidenceID;\n        string evidenceType;\n        string evidenceHash;\n        address addedBy;\n        Status status;\n    }\n\n    mapping(address => Account) accounts;\n    mapping(string => address) accountIDs;\n    mapping(string => bool) caseType;\n    mapping(string => Case) cases;\n    mapping(string => Type) typesByID;\n    mapping(string => Case[]) casesByType;\n    mapping(string => Evidence[]) caseEvidence;\n    mapping(string => Evidence) evidenceByID;\n    mapping(string => uint256) public evidenceIndexByID;\n    \n    uint256 accountCount;\n    uint256 public evidenceCount;\n    uint256 public caseCount;\n    uint256 public typeCount;\n    string public guidelineHash; \n\n    modifier onlySuperAdmin() {\n        require(msg.sender == superAdminAddress, \"Not SuperAdmin\");\n        _;\n    }\n\n    modifier onlyAdmin() {\n        require(accounts[msg.sender].status == Status.Active &&\n        accounts[msg.sender].role == UserRole.Admin ||\n        msg.sender == superAdminAddress, \"Not an active Admin\");\n        _;\n    }\n\n    modifier onlyLevelOne() {\n        require(\n            accounts[msg.sender].status == Status.Active &&\n            (accounts[msg.sender].role == UserRole.Admin || accounts[msg.sender].role == UserRole.LevelOne) ||\n            msg.sender == superAdminAddress, \"Not an active Level 1 User\");\n            _;\n    }\n\n    modifier onlyLevelTwo() {\n        require(\n            accounts[msg.sender].status == Status.Active && \n            (accounts[msg.sender].role == UserRole.Admin || accounts[msg.sender].role == UserRole.LevelOne || accounts[msg.sender].role == UserRole.LevelTwo) || \n            msg.sender == superAdminAddress, \n            \"Not an active Level 2 User\"\n        );\n        _;\n    }\n    \n    function addressToIndex(string memory _id) private view returns (address) {\n        return accountIDs[_id];\n    }\n}\n",
  "sourcePath": "/home/juthindu/Blockchsin/25/12/contracts/SecureEvidence.sol",
  "compiler": {
    "name": "solc",
    "version": "0.8.0+commit.c7dfd78e.Emscripten.clang"
  },
  "schemaVersion": "3.4.16",
  "updatedAt": "2024-09-06T07:02:09.634Z",
  "networkType": "ethereum",
  "devdoc": {
    "kind": "dev",
    "methods": {},
    "version": 1
  },
  "userdoc": {
    "kind": "user",
    "methods": {},
    "version": 1
  }
}