{
  "contractName": "SuperAdmin",
  "abi": [
    {
      "anonymous": false,
      "inputs": [
        {
          "indexed": false,
          "internalType": "string",
          "name": "newGuidelineHash",
          "type": "string"
        },
        {
          "indexed": false,
          "internalType": "address",
          "name": "updatedBy",
          "type": "address"
        }
      ],
      "name": "GuidelineHashUpdated",
      "type": "event"
    },
    {
      "anonymous": false,
      "inputs": [
        {
          "indexed": false,
          "internalType": "address",
          "name": "oldSuperAdmin",
          "type": "address"
        },
        {
          "indexed": false,
          "internalType": "string",
          "name": "oldSuperAdminUsername",
          "type": "string"
        },
        {
          "indexed": false,
          "internalType": "address",
          "name": "newSuperAdmin",
          "type": "address"
        },
        {
          "indexed": false,
          "internalType": "string",
          "name": "newSuperAdminUsername",
          "type": "string"
        }
      ],
      "name": "SuperAdminChanged",
      "type": "event"
    },
    {
      "inputs": [],
      "name": "caseCount",
      "outputs": [
        {
          "internalType": "uint256",
          "name": "",
          "type": "uint256"
        }
      ],
      "stateMutability": "view",
      "type": "function",
      "constant": true
    },
    {
      "inputs": [],
      "name": "evidenceCount",
      "outputs": [
        {
          "internalType": "uint256",
          "name": "",
          "type": "uint256"
        }
      ],
      "stateMutability": "view",
      "type": "function",
      "constant": true
    },
    {
      "inputs": [
        {
          "internalType": "string",
          "name": "",
          "type": "string"
        }
      ],
      "name": "evidenceIndexByID",
      "outputs": [
        {
          "internalType": "uint256",
          "name": "",
          "type": "uint256"
        }
      ],
      "stateMutability": "view",
      "type": "function",
      "constant": true
    },
    {
      "inputs": [],
      "name": "guidelineHash",
      "outputs": [
        {
          "internalType": "string",
          "name": "",
          "type": "string"
        }
      ],
      "stateMutability": "view",
      "type": "function",
      "constant": true
    },
    {
      "inputs": [],
      "name": "typeCount",
      "outputs": [
        {
          "internalType": "uint256",
          "name": "",
          "type": "uint256"
        }
      ],
      "stateMutability": "view",
      "type": "function",
      "constant": true
    },
    {
      "inputs": [
        {
          "internalType": "address",
          "name": "_newSuperAdmin",
          "type": "address"
        },
        {
          "internalType": "string",
          "name": "_newSuperAdminUsername",
          "type": "string"
        }
      ],
      "name": "changeSuperAdmin",
      "outputs": [],
      "stateMutability": "nonpayable",
      "type": "function"
    },
    {
      "inputs": [
        {
          "internalType": "string",
          "name": "_guidelineHash",
          "type": "string"
        }
      ],
      "name": "setGuidelineHash",
      "outputs": [],
      "stateMutability": "nonpayable",
      "type": "function"
    },
    {
      "inputs": [
        {
          "internalType": "string",
          "name": "_newGuidelineHash",
          "type": "string"
        }
      ],
      "name": "updateGuidelineHash",
      "outputs": [],
      "stateMutability": "nonpayable",
      "type": "function"
    }
  ],
  "bytecode": "0x608060405273ae66570c9252ad7c82a76371dce460129538d7d76000806101000a81548173ffffffffffffffffffffffffffffffffffffffff021916908373ffffffffffffffffffffffffffffffffffffffff1602179055506040518060400160405280600a81526020017f537570657241646d696e0000000000000000000000000000000000000000000081525060019080519060200190620000a5929190620000ba565b50348015620000b357600080fd5b50620001cf565b828054620000c8906200016a565b90600052602060002090601f016020900481019282620000ec576000855562000138565b82601f106200010757805160ff191683800117855562000138565b8280016001018555821562000138579182015b82811115620001375782518255916020019190600101906200011a565b5b5090506200014791906200014b565b5090565b5b80821115620001665760008160009055506001016200014c565b5090565b600060028204905060018216806200018357607f821691505b602082108114156200019a5762000199620001a0565b5b50919050565b7f4e487b7100000000000000000000000000000000000000000000000000000000600052602260045260246000fd5b610c4680620001df6000396000f3fe608060405234801561001057600080fd5b50600436106100885760003560e01c8063a2ed5af01161005b578063a2ed5af014610115578063ce4fd42f14610133578063da2d7e951461014f578063fcd434131461016d57610088565b806341d48cd21461008d57806345b57631146100a9578063602d7fe6146100d9578063832581e8146100f7575b600080fd5b6100a760048036038101906100a291906107e5565b610189565b005b6100c360048036038101906100be91906107e5565b610231565b6040516100d09190610a42565b60405180910390f35b6100e161025f565b6040516100ee9190610a42565b60405180910390f35b6100ff610265565b60405161010c9190610990565b60405180910390f35b61011d6102f3565b60405161012a9190610a42565b60405180910390f35b61014d600480360381019061014891906107e5565b6102f9565b005b6101576103da565b6040516101649190610a42565b60405180910390f35b61018760048036038101906101829190610791565b6103e0565b005b60008054906101000a900473ffffffffffffffffffffffffffffffffffffffff1673ffffffffffffffffffffffffffffffffffffffff163373ffffffffffffffffffffffffffffffffffffffff1614610217576040517f08c379a000000000000000000000000000000000000000000000000000000000815260040161020e90610a02565b60405180910390fd5b80600f908051906020019061022d929190610671565b5050565b600a818051602081018201805184825260208301602085012081835280955050505050506000915090505481565b600e5481565b600f805461027290610b58565b80601f016020809104026020016040519081016040528092919081815260200182805461029e90610b58565b80156102eb5780601f106102c0576101008083540402835291602001916102eb565b820191906000526020600020905b8154815290600101906020018083116102ce57829003601f168201915b505050505081565b600c5481565b60008054906101000a900473ffffffffffffffffffffffffffffffffffffffff1673ffffffffffffffffffffffffffffffffffffffff163373ffffffffffffffffffffffffffffffffffffffff1614610387576040517f08c379a000000000000000000000000000000000000000000000000000000000815260040161037e90610a02565b60405180910390fd5b80600f908051906020019061039d929190610671565b507fc62ca91ca94c9146a6a839a13f5f2056e44cf023b56a2b19696bb251b13d64b281336040516103cf9291906109b2565b60405180910390a150565b600d5481565b60008054906101000a900473ffffffffffffffffffffffffffffffffffffffff1673ffffffffffffffffffffffffffffffffffffffff163373ffffffffffffffffffffffffffffffffffffffff161461046e576040517f08c379a000000000000000000000000000000000000000000000000000000000815260040161046590610a02565b60405180910390fd5b600073ffffffffffffffffffffffffffffffffffffffff168273ffffffffffffffffffffffffffffffffffffffff1614156104de576040517f08c379a00000000000000000000000000000000000000000000000000000000081526004016104d590610a22565b60405180910390fd5b6000815111610522576040517f08c379a0000000000000000000000000000000000000000000000000000000008152600401610519906109e2565b60405180910390fd5b60008060009054906101000a900473ffffffffffffffffffffffffffffffffffffffff16905060006001805461055790610b58565b80601f016020809104026020016040519081016040528092919081815260200182805461058390610b58565b80156105d05780601f106105a5576101008083540402835291602001916105d0565b820191906000526020600020905b8154815290600101906020018083116105b357829003601f168201915b50505050509050836000806101000a81548173ffffffffffffffffffffffffffffffffffffffff021916908373ffffffffffffffffffffffffffffffffffffffff160217905550826001908051906020019061062d929190610671565b507fb10a5020ca253b6544717c672fba256d5d1f51999898602ad4f236eba2c76f1682828686604051610663949392919061093d565b60405180910390a150505050565b82805461067d90610b58565b90600052602060002090601f01602090048101928261069f57600085556106e6565b82601f106106b857805160ff19168380011785556106e6565b828001600101855582156106e6579182015b828111156106e55782518255916020019190600101906106ca565b5b5090506106f391906106f7565b5090565b5b808211156107105760008160009055506001016106f8565b5090565b600061072761072284610a8e565b610a5d565b90508281526020810184848401111561073f57600080fd5b61074a848285610b16565b509392505050565b60008135905061076181610bf9565b92915050565b600082601f83011261077857600080fd5b8135610788848260208601610714565b91505092915050565b600080604083850312156107a457600080fd5b60006107b285828601610752565b925050602083013567ffffffffffffffff8111156107cf57600080fd5b6107db85828601610767565b9150509250929050565b6000602082840312156107f757600080fd5b600082013567ffffffffffffffff81111561081157600080fd5b61081d84828501610767565b91505092915050565b61082f81610ada565b82525050565b600061084082610abe565b61084a8185610ac9565b935061085a818560208601610b25565b61086381610be8565b840191505092915050565b600061087b601f83610ac9565b91507f496e76616c6964206e657720537570657241646d696e20757365726e616d65006000830152602082019050919050565b60006108bb600e83610ac9565b91507f4e6f7420537570657241646d696e0000000000000000000000000000000000006000830152602082019050919050565b60006108fb601e83610ac9565b91507f496e76616c6964206e657720537570657241646d696e206164647265737300006000830152602082019050919050565b61093781610b0c565b82525050565b60006080820190506109526000830187610826565b81810360208301526109648186610835565b90506109736040830185610826565b81810360608301526109858184610835565b905095945050505050565b600060208201905081810360008301526109aa8184610835565b905092915050565b600060408201905081810360008301526109cc8185610835565b90506109db6020830184610826565b9392505050565b600060208201905081810360008301526109fb8161086e565b9050919050565b60006020820190508181036000830152610a1b816108ae565b9050919050565b60006020820190508181036000830152610a3b816108ee565b9050919050565b6000602082019050610a57600083018461092e565b92915050565b6000604051905081810181811067ffffffffffffffff82111715610a8457610a83610bb9565b5b8060405250919050565b600067ffffffffffffffff821115610aa957610aa8610bb9565b5b601f19601f8301169050602081019050919050565b600081519050919050565b600082825260208201905092915050565b6000610ae582610aec565b9050919050565b600073ffffffffffffffffffffffffffffffffffffffff82169050919050565b6000819050919050565b82818337600083830152505050565b60005b83811015610b43578082015181840152602081019050610b28565b83811115610b52576000848401525b50505050565b60006002820490506001821680610b7057607f821691505b60208210811415610b8457610b83610b8a565b5b50919050565b7f4e487b7100000000000000000000000000000000000000000000000000000000600052602260045260246000fd5b7f4e487b7100000000000000000000000000000000000000000000000000000000600052604160045260246000fd5b6000601f19601f8301169050919050565b610c0281610ada565b8114610c0d57600080fd5b5056fea26469706673582212202dddfaf44328cee3c078b35404125405c36d84a6a52f3b50c500178d75216ed364736f6c63430008000033",
  "immutableReferences": {},
  "source": "// SPDX-License-Identifier: MIT\npragma solidity ^0.8.0;\n\nimport \"./SecureEvidence.sol\";\n\ncontract SuperAdmin is SecureEvidence {\n    function changeSuperAdmin(\n        address _newSuperAdmin, \n        string memory _newSuperAdminUsername) public onlySuperAdmin {\n        require(_newSuperAdmin != address(0), \"Invalid new SuperAdmin address\");\n        require(bytes(_newSuperAdminUsername).length > 0, \"Invalid new SuperAdmin username\");\n\n        address _oldSuperAdmin = superAdminAddress;\n        string memory _oldSuperAdminUsername = superAdminUsername;\n\n        superAdminAddress = _newSuperAdmin;\n        superAdminUsername = _newSuperAdminUsername;\n\n        emit SuperAdminChanged(_oldSuperAdmin, _oldSuperAdminUsername, _newSuperAdmin, _newSuperAdminUsername);\n    }\n\n    function setGuidelineHash(string memory _guidelineHash) public onlySuperAdmin {\n        guidelineHash = _guidelineHash;\n    }\n\n    function updateGuidelineHash(string memory _newGuidelineHash) public onlySuperAdmin {\n        guidelineHash = _newGuidelineHash;\n        emit GuidelineHashUpdated(_newGuidelineHash, msg.sender);\n    }\n\n}\n",
  "sourcePath": "/home/juthindu/Blockchsin/25/12/contracts/SuperAdmin.sol",
  "compiler": {
    "name": "solc",
    "version": "0.8.0+commit.c7dfd78e.Emscripten.clang"
  },
  "schemaVersion": "3.4.16",
  "updatedAt": "2024-09-06T07:02:09.638Z",
  "networkType": "ethereum",
  "devdoc": {
    "kind": "dev",
    "methods": {},
    "version": 1
  },
  "userdoc": {
    "kind": "user",
    "methods": {},
    "version": 1
  }
}