{
  "contractName": "TypeAndId",
  "abi": [
    {
      "anonymous": false,
      "inputs": [
        {
          "indexed": false,
          "internalType": "string",
          "name": "newGuidelineHash",
          "type": "string"
        },
        {
          "indexed": false,
          "internalType": "address",
          "name": "updatedBy",
          "type": "address"
        }
      ],
      "name": "GuidelineHashUpdated",
      "type": "event"
    },
    {
      "anonymous": false,
      "inputs": [
        {
          "indexed": false,
          "internalType": "address",
          "name": "oldSuperAdmin",
          "type": "address"
        },
        {
          "indexed": false,
          "internalType": "string",
          "name": "oldSuperAdminUsername",
          "type": "string"
        },
        {
          "indexed": false,
          "internalType": "address",
          "name": "newSuperAdmin",
          "type": "address"
        },
        {
          "indexed": false,
          "internalType": "string",
          "name": "newSuperAdminUsername",
          "type": "string"
        }
      ],
      "name": "SuperAdminChanged",
      "type": "event"
    },
    {
      "inputs": [],
      "name": "caseCount",
      "outputs": [
        {
          "internalType": "uint256",
          "name": "",
          "type": "uint256"
        }
      ],
      "stateMutability": "view",
      "type": "function",
      "constant": true
    },
    {
      "inputs": [],
      "name": "evidenceCount",
      "outputs": [
        {
          "internalType": "uint256",
          "name": "",
          "type": "uint256"
        }
      ],
      "stateMutability": "view",
      "type": "function",
      "constant": true
    },
    {
      "inputs": [
        {
          "internalType": "string",
          "name": "",
          "type": "string"
        }
      ],
      "name": "evidenceIndexByID",
      "outputs": [
        {
          "internalType": "uint256",
          "name": "",
          "type": "uint256"
        }
      ],
      "stateMutability": "view",
      "type": "function",
      "constant": true
    },
    {
      "inputs": [],
      "name": "guidelineHash",
      "outputs": [
        {
          "internalType": "string",
          "name": "",
          "type": "string"
        }
      ],
      "stateMutability": "view",
      "type": "function",
      "constant": true
    },
    {
      "inputs": [],
      "name": "typeCount",
      "outputs": [
        {
          "internalType": "uint256",
          "name": "",
          "type": "uint256"
        }
      ],
      "stateMutability": "view",
      "type": "function",
      "constant": true
    },
    {
      "inputs": [
        {
          "internalType": "string",
          "name": "_caseTypeID",
          "type": "string"
        }
      ],
      "name": "getCaseByType",
      "outputs": [
        {
          "internalType": "string[]",
          "name": "caseTitles",
          "type": "string[]"
        },
        {
          "internalType": "string[]",
          "name": "caseIDs",
          "type": "string[]"
        },
        {
          "internalType": "string[]",
          "name": "caseTypeIDs",
          "type": "string[]"
        },
        {
          "internalType": "string[]",
          "name": "reportHashes",
          "type": "string[]"
        },
        {
          "internalType": "address[]",
          "name": "addedBys",
          "type": "address[]"
        },
        {
          "internalType": "enum SecureEvidence.Status[]",
          "name": "statuses",
          "type": "uint8[]"
        }
      ],
      "stateMutability": "view",
      "type": "function",
      "constant": true
    },
    {
      "inputs": [
        {
          "internalType": "string",
          "name": "_caseID",
          "type": "string"
        }
      ],
      "name": "getAllEvidenceByCaseID",
      "outputs": [
        {
          "internalType": "string[]",
          "name": "caseIDs",
          "type": "string[]"
        },
        {
          "internalType": "string[]",
          "name": "evidenceTypes",
          "type": "string[]"
        },
        {
          "internalType": "string[]",
          "name": "evidenceHashes",
          "type": "string[]"
        },
        {
          "internalType": "address[]",
          "name": "addedBys",
          "type": "address[]"
        },
        {
          "internalType": "enum SecureEvidence.Status[]",
          "name": "statuses",
          "type": "uint8[]"
        }
      ],
      "stateMutability": "view",
      "type": "function",
      "constant": true
    }
  ],
  "bytecode": "0x608060405273ae66570c9252ad7c82a76371dce460129538d7d76000806101000a81548173ffffffffffffffffffffffffffffffffffffffff021916908373ffffffffffffffffffffffffffffffffffffffff1602179055506040518060400160405280600a81526020017f537570657241646d696e0000000000000000000000000000000000000000000081525060019080519060200190620000a5929190620000ba565b50348015620000b357600080fd5b50620001cf565b828054620000c8906200016a565b90600052602060002090601f016020900481019282620000ec576000855562000138565b82601f106200010757805160ff191683800117855562000138565b8280016001018555821562000138579182015b82811115620001375782518255916020019190600101906200011a565b5b5090506200014791906200014b565b5090565b5b80821115620001665760008160009055506001016200014c565b5090565b600060028204905060018216806200018357607f821691505b602082108114156200019a5762000199620001a0565b5b50919050565b7f4e487b7100000000000000000000000000000000000000000000000000000000600052602260045260246000fd5b61246580620001df6000396000f3fe608060405234801561001057600080fd5b506004361061007d5760003560e01c8063832581e81161005b578063832581e814610105578063a2ed5af014610123578063adf43ee414610141578063da2d7e95146101755761007d565b806345b5763114610082578063602d7fe6146100b25780637ecba1a9146100d0575b600080fd5b61009c60048036038101906100979190611b91565b610193565b6040516100a991906120d1565b60405180910390f35b6100ba6101c1565b6040516100c791906120d1565b60405180910390f35b6100ea60048036038101906100e59190611b91565b6101c7565b6040516100fc96959493929190611fa4565b60405180910390f35b61010d610ef0565b60405161011a919061202f565b60405180910390f35b61012b610f7e565b60405161013891906120d1565b60405180910390f35b61015b60048036038101906101569190611b91565b610f84565b60405161016c959493929190611f2e565b60405180910390f35b61017d611b23565b60405161018a91906120d1565b60405180910390f35b600a818051602081018201805184825260208301602085012081835280955050505050506000915090505481565b600e5481565b606080606080606080600180811115610209577f4e487b7100000000000000000000000000000000000000000000000000000000600052602160045260246000fd5b600260003373ffffffffffffffffffffffffffffffffffffffff1673ffffffffffffffffffffffffffffffffffffffff16815260200190815260200160002060040160009054906101000a900460ff166001811115610291577f4e487b7100000000000000000000000000000000000000000000000000000000600052602160045260246000fd5b1480156104f057506002808111156102d2577f4e487b7100000000000000000000000000000000000000000000000000000000600052602160045260246000fd5b600260003373ffffffffffffffffffffffffffffffffffffffff1673ffffffffffffffffffffffffffffffffffffffff16815260200190815260200160002060040160019054906101000a900460ff16600281111561035a577f4e487b7100000000000000000000000000000000000000000000000000000000600052602160045260246000fd5b148061042557506001600281111561039b577f4e487b7100000000000000000000000000000000000000000000000000000000600052602160045260246000fd5b600260003373ffffffffffffffffffffffffffffffffffffffff1673ffffffffffffffffffffffffffffffffffffffff16815260200190815260200160002060040160019054906101000a900460ff166002811115610423577f4e487b7100000000000000000000000000000000000000000000000000000000600052602160045260246000fd5b145b806104ef575060006002811115610465577f4e487b7100000000000000000000000000000000000000000000000000000000600052602160045260246000fd5b600260003373ffffffffffffffffffffffffffffffffffffffff1673ffffffffffffffffffffffffffffffffffffffff16815260200190815260200160002060040160019054906101000a900460ff1660028111156104ed577f4e487b7100000000000000000000000000000000000000000000000000000000600052602160045260246000fd5b145b5b80610546575060008054906101000a900473ffffffffffffffffffffffffffffffffffffffff1673ffffffffffffffffffffffffffffffffffffffff163373ffffffffffffffffffffffffffffffffffffffff16145b610585576040517f08c379a000000000000000000000000000000000000000000000000000000000815260040161057c90612071565b60405180910390fd5b60006006886040516105979190611f17565b908152602001604051809103902060000180546105b3906122d3565b905014156105f6576040517f08c379a00000000000000000000000000000000000000000000000000000000081526004016105ed90612051565b60405180910390fd5b60006007886040516106089190611f17565b90815260200160405180910390208054905090508067ffffffffffffffff81111561065c577f4e487b7100000000000000000000000000000000000000000000000000000000600052604160045260246000fd5b60405190808252806020026020018201604052801561068f57816020015b606081526020019060019003908161067a5790505b5096508067ffffffffffffffff8111156106d2577f4e487b7100000000000000000000000000000000000000000000000000000000600052604160045260246000fd5b60405190808252806020026020018201604052801561070557816020015b60608152602001906001900390816106f05790505b5095508067ffffffffffffffff811115610748577f4e487b7100000000000000000000000000000000000000000000000000000000600052604160045260246000fd5b60405190808252806020026020018201604052801561077b57816020015b60608152602001906001900390816107665790505b5094508067ffffffffffffffff8111156107be577f4e487b7100000000000000000000000000000000000000000000000000000000600052604160045260246000fd5b6040519080825280602002602001820160405280156107f157816020015b60608152602001906001900390816107dc5790505b5093508067ffffffffffffffff811115610834577f4e487b7100000000000000000000000000000000000000000000000000000000600052604160045260246000fd5b6040519080825280602002602001820160405280156108625781602001602082028036833780820191505090505b5092508067ffffffffffffffff8111156108a5577f4e487b7100000000000000000000000000000000000000000000000000000000600052604160045260246000fd5b6040519080825280602002602001820160405280156108d35781602001602082028036833780820191505090505b50915060005b81811015610ee557600060078a6040516108f39190611f17565b90815260200160405180910390208281548110610939577f4e487b7100000000000000000000000000000000000000000000000000000000600052603260045260246000fd5b90600052602060002090600502016040518060c0016040529081600082018054610962906122d3565b80601f016020809104026020016040519081016040528092919081815260200182805461098e906122d3565b80156109db5780601f106109b0576101008083540402835291602001916109db565b820191906000526020600020905b8154815290600101906020018083116109be57829003601f168201915b505050505081526020016001820180546109f4906122d3565b80601f0160208091040260200160405190810160405280929190818152602001828054610a20906122d3565b8015610a6d5780601f10610a4257610100808354040283529160200191610a6d565b820191906000526020600020905b815481529060010190602001808311610a5057829003601f168201915b50505050508152602001600282018054610a86906122d3565b80601f0160208091040260200160405190810160405280929190818152602001828054610ab2906122d3565b8015610aff5780601f10610ad457610100808354040283529160200191610aff565b820191906000526020600020905b815481529060010190602001808311610ae257829003601f168201915b50505050508152602001600382018054610b18906122d3565b80601f0160208091040260200160405190810160405280929190818152602001828054610b44906122d3565b8015610b915780601f10610b6657610100808354040283529160200191610b91565b820191906000526020600020905b815481529060010190602001808311610b7457829003601f168201915b505050505081526020016004820160009054906101000a900473ffffffffffffffffffffffffffffffffffffffff1673ffffffffffffffffffffffffffffffffffffffff1673ffffffffffffffffffffffffffffffffffffffff1681526020016004820160149054906101000a900460ff166001811115610c3b577f4e487b7100000000000000000000000000000000000000000000000000000000600052602160045260246000fd5b6001811115610c73577f4e487b7100000000000000000000000000000000000000000000000000000000600052602160045260246000fd5b8152505090508060000151898381518110610cb7577f4e487b7100000000000000000000000000000000000000000000000000000000600052603260045260246000fd5b60200260200101819052508060200151888381518110610d00577f4e487b7100000000000000000000000000000000000000000000000000000000600052603260045260246000fd5b60200260200101819052508060400151878381518110610d49577f4e487b7100000000000000000000000000000000000000000000000000000000600052603260045260246000fd5b60200260200101819052508060600151868381518110610d92577f4e487b7100000000000000000000000000000000000000000000000000000000600052603260045260246000fd5b60200260200101819052508060800151858381518110610ddb577f4e487b7100000000000000000000000000000000000000000000000000000000600052603260045260246000fd5b602002602001019073ffffffffffffffffffffffffffffffffffffffff16908173ffffffffffffffffffffffffffffffffffffffff16815250508060a00151848381518110610e53577f4e487b7100000000000000000000000000000000000000000000000000000000600052603260045260246000fd5b60200260200101906001811115610e93577f4e487b7100000000000000000000000000000000000000000000000000000000600052602160045260246000fd5b90816001811115610ecd577f4e487b7100000000000000000000000000000000000000000000000000000000600052602160045260246000fd5b81525050508080610edd90612305565b9150506108d9565b505091939550919395565b600f8054610efd906122d3565b80601f0160208091040260200160405190810160405280929190818152602001828054610f29906122d3565b8015610f765780601f10610f4b57610100808354040283529160200191610f76565b820191906000526020600020905b815481529060010190602001808311610f5957829003601f168201915b505050505081565b600c5481565b6060806060806060600180811115610fc5577f4e487b7100000000000000000000000000000000000000000000000000000000600052602160045260246000fd5b600260003373ffffffffffffffffffffffffffffffffffffffff1673ffffffffffffffffffffffffffffffffffffffff16815260200190815260200160002060040160009054906101000a900460ff16600181111561104d577f4e487b7100000000000000000000000000000000000000000000000000000000600052602160045260246000fd5b1480156111e2575060028081111561108e577f4e487b7100000000000000000000000000000000000000000000000000000000600052602160045260246000fd5b600260003373ffffffffffffffffffffffffffffffffffffffff1673ffffffffffffffffffffffffffffffffffffffff16815260200190815260200160002060040160019054906101000a900460ff166002811115611116577f4e487b7100000000000000000000000000000000000000000000000000000000600052602160045260246000fd5b14806111e1575060016002811115611157577f4e487b7100000000000000000000000000000000000000000000000000000000600052602160045260246000fd5b600260003373ffffffffffffffffffffffffffffffffffffffff1673ffffffffffffffffffffffffffffffffffffffff16815260200190815260200160002060040160019054906101000a900460ff1660028111156111df577f4e487b7100000000000000000000000000000000000000000000000000000000600052602160045260246000fd5b145b5b80611238575060008054906101000a900473ffffffffffffffffffffffffffffffffffffffff1673ffffffffffffffffffffffffffffffffffffffff163373ffffffffffffffffffffffffffffffffffffffff16145b611277576040517f08c379a000000000000000000000000000000000000000000000000000000000815260040161126e906120b1565b60405180910390fd5b60006005876040516112899190611f17565b908152602001604051809103902060010180546112a5906122d3565b905014156112e8576040517f08c379a00000000000000000000000000000000000000000000000000000000081526004016112df90612091565b60405180910390fd5b60006008876040516112fa9190611f17565b90815260200160405180910390208054905090508067ffffffffffffffff81111561134e577f4e487b7100000000000000000000000000000000000000000000000000000000600052604160045260246000fd5b60405190808252806020026020018201604052801561138157816020015b606081526020019060019003908161136c5790505b5095508067ffffffffffffffff8111156113c4577f4e487b7100000000000000000000000000000000000000000000000000000000600052604160045260246000fd5b6040519080825280602002602001820160405280156113f757816020015b60608152602001906001900390816113e25790505b5094508067ffffffffffffffff81111561143a577f4e487b7100000000000000000000000000000000000000000000000000000000600052604160045260246000fd5b60405190808252806020026020018201604052801561146d57816020015b60608152602001906001900390816114585790505b5093508067ffffffffffffffff8111156114b0577f4e487b7100000000000000000000000000000000000000000000000000000000600052604160045260246000fd5b6040519080825280602002602001820160405280156114de5781602001602082028036833780820191505090505b5092508067ffffffffffffffff811115611521577f4e487b7100000000000000000000000000000000000000000000000000000000600052604160045260246000fd5b60405190808252806020026020018201604052801561154f5781602001602082028036833780820191505090505b50915060005b81811015611b1857600060088960405161156f9190611f17565b908152602001604051809103902082815481106115b5577f4e487b7100000000000000000000000000000000000000000000000000000000600052603260045260246000fd5b90600052602060002090600502016040518060c00160405290816000820180546115de906122d3565b80601f016020809104026020016040519081016040528092919081815260200182805461160a906122d3565b80156116575780601f1061162c57610100808354040283529160200191611657565b820191906000526020600020905b81548152906001019060200180831161163a57829003601f168201915b50505050508152602001600182018054611670906122d3565b80601f016020809104026020016040519081016040528092919081815260200182805461169c906122d3565b80156116e95780601f106116be576101008083540402835291602001916116e9565b820191906000526020600020905b8154815290600101906020018083116116cc57829003601f168201915b50505050508152602001600282018054611702906122d3565b80601f016020809104026020016040519081016040528092919081815260200182805461172e906122d3565b801561177b5780601f106117505761010080835404028352916020019161177b565b820191906000526020600020905b81548152906001019060200180831161175e57829003601f168201915b50505050508152602001600382018054611794906122d3565b80601f01602080910402602001604051908101604052809291908181526020018280546117c0906122d3565b801561180d5780601f106117e25761010080835404028352916020019161180d565b820191906000526020600020905b8154815290600101906020018083116117f057829003601f168201915b505050505081526020016004820160009054906101000a900473ffffffffffffffffffffffffffffffffffffffff1673ffffffffffffffffffffffffffffffffffffffff1673ffffffffffffffffffffffffffffffffffffffff1681526020016004820160149054906101000a900460ff1660018111156118b7577f4e487b7100000000000000000000000000000000000000000000000000000000600052602160045260246000fd5b60018111156118ef577f4e487b7100000000000000000000000000000000000000000000000000000000600052602160045260246000fd5b8152505090508060000151888381518110611933577f4e487b7100000000000000000000000000000000000000000000000000000000600052603260045260246000fd5b6020026020010181905250806040015187838151811061197c577f4e487b7100000000000000000000000000000000000000000000000000000000600052603260045260246000fd5b602002602001018190525080606001518683815181106119c5577f4e487b7100000000000000000000000000000000000000000000000000000000600052603260045260246000fd5b60200260200101819052508060800151858381518110611a0e577f4e487b7100000000000000000000000000000000000000000000000000000000600052603260045260246000fd5b602002602001019073ffffffffffffffffffffffffffffffffffffffff16908173ffffffffffffffffffffffffffffffffffffffff16815250508060a00151848381518110611a86577f4e487b7100000000000000000000000000000000000000000000000000000000600052603260045260246000fd5b60200260200101906001811115611ac6577f4e487b7100000000000000000000000000000000000000000000000000000000600052602160045260246000fd5b90816001811115611b00577f4e487b7100000000000000000000000000000000000000000000000000000000600052602160045260246000fd5b81525050508080611b1090612305565b915050611555565b505091939590929450565b600d5481565b6000611b3c611b378461211d565b6120ec565b905082815260208101848484011115611b5457600080fd5b611b5f848285612291565b509392505050565b600082601f830112611b7857600080fd5b8135611b88848260208601611b29565b91505092915050565b600060208284031215611ba357600080fd5b600082013567ffffffffffffffff811115611bbd57600080fd5b611bc984828501611b67565b91505092915050565b6000611bde8383611c16565b60208301905092915050565b6000611bf68383611d56565b60208301905092915050565b6000611c0e8383611d65565b905092915050565b611c1f81612230565b82525050565b6000611c308261217d565b611c3a81856121d0565b9350611c458361214d565b8060005b83811015611c76578151611c5d8882611bd2565b9750611c68836121a9565b925050600181019050611c49565b5085935050505092915050565b6000611c8e82612188565b611c9881856121f2565b9350611ca38361215d565b8060005b83811015611cd4578151611cbb8882611bea565b9750611cc6836121b6565b925050600181019050611ca7565b5085935050505092915050565b6000611cec82612193565b611cf681856121e1565b935083602082028501611d088561216d565b8060005b85811015611d445784840389528151611d258582611c02565b9450611d30836121c3565b925060208a01995050600181019050611d0c565b50829750879550505050505092915050565b611d5f8161227f565b82525050565b6000611d708261219e565b611d7a8185612203565b9350611d8a8185602086016122a0565b611d938161240a565b840191505092915050565b6000611da98261219e565b611db38185612214565b9350611dc38185602086016122a0565b611dcc8161240a565b840191505092915050565b6000611de28261219e565b611dec8185612225565b9350611dfc8185602086016122a0565b80840191505092915050565b6000611e15601883612214565b91507f43617365207479706520646f6573206e6f7420657869737400000000000000006000830152602082019050919050565b6000611e55601a83612214565b91507f4e6f7420616e20616374697665204c6576656c203220557365720000000000006000830152602082019050919050565b6000611e95601383612214565b91507f4361736520646f6573206e6f74206578697374000000000000000000000000006000830152602082019050919050565b6000611ed5601a83612214565b91507f4e6f7420616e20616374697665204c6576656c203120557365720000000000006000830152602082019050919050565b611f1181612275565b82525050565b6000611f238284611dd7565b915081905092915050565b600060a0820190508181036000830152611f488188611ce1565b90508181036020830152611f5c8187611ce1565b90508181036040830152611f708186611ce1565b90508181036060830152611f848185611c25565b90508181036080830152611f988184611c83565b90509695505050505050565b600060c0820190508181036000830152611fbe8189611ce1565b90508181036020830152611fd28188611ce1565b90508181036040830152611fe68187611ce1565b90508181036060830152611ffa8186611ce1565b9050818103608083015261200e8185611c25565b905081810360a08301526120228184611c83565b9050979650505050505050565b600060208201905081810360008301526120498184611d9e565b905092915050565b6000602082019050818103600083015261206a81611e08565b9050919050565b6000602082019050818103600083015261208a81611e48565b9050919050565b600060208201905081810360008301526120aa81611e88565b9050919050565b600060208201905081810360008301526120ca81611ec8565b9050919050565b60006020820190506120e66000830184611f08565b92915050565b6000604051905081810181811067ffffffffffffffff82111715612113576121126123db565b5b8060405250919050565b600067ffffffffffffffff821115612138576121376123db565b5b601f19601f8301169050602081019050919050565b6000819050602082019050919050565b6000819050602082019050919050565b6000819050602082019050919050565b600081519050919050565b600081519050919050565b600081519050919050565b600081519050919050565b6000602082019050919050565b6000602082019050919050565b6000602082019050919050565b600082825260208201905092915050565b600082825260208201905092915050565b600082825260208201905092915050565b600082825260208201905092915050565b600082825260208201905092915050565b600081905092915050565b600061223b82612255565b9050919050565b60008190506122508261241b565b919050565b600073ffffffffffffffffffffffffffffffffffffffff82169050919050565b6000819050919050565b600061228a82612242565b9050919050565b82818337600083830152505050565b60005b838110156122be5780820151818401526020810190506122a3565b838111156122cd576000848401525b50505050565b600060028204905060018216806122eb57607f821691505b602082108114156122ff576122fe6123ac565b5b50919050565b600061231082612275565b91507fffffffffffffffffffffffffffffffffffffffffffffffffffffffffffffffff8214156123435761234261234e565b5b600182019050919050565b7f4e487b7100000000000000000000000000000000000000000000000000000000600052601160045260246000fd5b7f4e487b7100000000000000000000000000000000000000000000000000000000600052602160045260246000fd5b7f4e487b7100000000000000000000000000000000000000000000000000000000600052602260045260246000fd5b7f4e487b7100000000000000000000000000000000000000000000000000000000600052604160045260246000fd5b6000601f19601f8301169050919050565b6002811061242c5761242b61237d565b5b5056fea2646970667358221220c0fe5ebd3152f6d2702f39f8f417bbd1bdc2aa8e669fcb190da074d52722607264736f6c63430008000033",
  "immutableReferences": {},
  "source": "// SPDX-License-Identifier: MIT\npragma solidity ^0.8.0;\n\nimport \"./SecureEvidence.sol\";\n\ncontract TypeAndId is SecureEvidence {\n\n    function getCaseByType(string memory _caseTypeID) public view onlyLevelTwo returns (\n        string[] memory caseTitles,\n        string[] memory caseIDs,\n        string[] memory caseTypeIDs,\n        string[] memory reportHashes,\n        address[] memory addedBys,\n        Status[] memory statuses\n    ) {\n        require(bytes(typesByID[_caseTypeID].caseTypeID).length != 0, \"Case type does not exist\");\n\n        uint256 casesCount = casesByType[_caseTypeID].length;\n        \n        caseTitles = new string[](casesCount);\n        caseIDs = new string[](casesCount);\n        caseTypeIDs = new string[](casesCount);\n        reportHashes = new string[](casesCount);\n        addedBys = new address[](casesCount);\n        statuses = new Status[](casesCount);\n\n        for (uint256 i = 0; i < casesCount; i++) {\n            Case memory _case = casesByType[_caseTypeID][i];\n            caseTitles[i] = _case.caseTitle;\n            caseIDs[i] = _case.caseID;\n            caseTypeIDs[i] = _case.caseTypeID;\n            reportHashes[i] = _case.reportHash;\n            addedBys[i] = _case.addedBy;\n            statuses[i] = _case.status;\n        }\n\n        return (caseTitles, caseIDs, caseTypeIDs, reportHashes, addedBys, statuses);\n    }\n\n    function getAllEvidenceByCaseID(string memory _caseID) public view onlyLevelOne returns (\n        string[] memory caseIDs,\n        string[] memory evidenceTypes,\n        string[] memory evidenceHashes,\n        address[] memory addedBys,\n        Status[] memory statuses\n    ) {\n        require(bytes(cases[_caseID].caseID).length != 0, \"Case does not exist\");\n        \n        uint256 evidenceCount = caseEvidence[_caseID].length;\n        \n        caseIDs = new string[](evidenceCount);\n        evidenceTypes = new string[](evidenceCount);\n        evidenceHashes = new string[](evidenceCount);\n        addedBys = new address[](evidenceCount);\n        statuses = new Status[](evidenceCount);\n        \n        for (uint256 i = 0; i < evidenceCount; i++) {\n            Evidence memory _evidence = caseEvidence[_caseID][i];\n            caseIDs[i] = _evidence.caseID;\n            evidenceTypes[i] = _evidence.evidenceType;\n            evidenceHashes[i] = _evidence.evidenceHash;\n            addedBys[i] = _evidence.addedBy;\n            statuses[i] = _evidence.status;\n        }\n        \n        return (caseIDs, evidenceTypes, evidenceHashes, addedBys, statuses);\n    }\n}\n",
  "sourcePath": "/home/juthindu/Blockchsin/25/12/contracts/TypeAndId.sol",
  "compiler": {
    "name": "solc",
    "version": "0.8.0+commit.c7dfd78e.Emscripten.clang"
  },
  "schemaVersion": "3.4.16",
  "updatedAt": "2024-09-06T07:02:09.645Z",
  "networkType": "ethereum",
  "devdoc": {
    "kind": "dev",
    "methods": {},
    "version": 1
  },
  "userdoc": {
    "kind": "user",
    "methods": {},
    "version": 1
  }
}