{
  "contractName": "User",
  "abi": [
    {
      "anonymous": false,
      "inputs": [
        {
          "indexed": false,
          "internalType": "string",
          "name": "newGuidelineHash",
          "type": "string"
        },
        {
          "indexed": false,
          "internalType": "address",
          "name": "updatedBy",
          "type": "address"
        }
      ],
      "name": "GuidelineHashUpdated",
      "type": "event"
    },
    {
      "anonymous": false,
      "inputs": [
        {
          "indexed": false,
          "internalType": "address",
          "name": "oldSuperAdmin",
          "type": "address"
        },
        {
          "indexed": false,
          "internalType": "string",
          "name": "oldSuperAdminUsername",
          "type": "string"
        },
        {
          "indexed": false,
          "internalType": "address",
          "name": "newSuperAdmin",
          "type": "address"
        },
        {
          "indexed": false,
          "internalType": "string",
          "name": "newSuperAdminUsername",
          "type": "string"
        }
      ],
      "name": "SuperAdminChanged",
      "type": "event"
    },
    {
      "inputs": [],
      "name": "caseCount",
      "outputs": [
        {
          "internalType": "uint256",
          "name": "",
          "type": "uint256"
        }
      ],
      "stateMutability": "view",
      "type": "function",
      "constant": true
    },
    {
      "inputs": [],
      "name": "evidenceCount",
      "outputs": [
        {
          "internalType": "uint256",
          "name": "",
          "type": "uint256"
        }
      ],
      "stateMutability": "view",
      "type": "function",
      "constant": true
    },
    {
      "inputs": [
        {
          "internalType": "string",
          "name": "",
          "type": "string"
        }
      ],
      "name": "evidenceIndexByID",
      "outputs": [
        {
          "internalType": "uint256",
          "name": "",
          "type": "uint256"
        }
      ],
      "stateMutability": "view",
      "type": "function",
      "constant": true
    },
    {
      "inputs": [],
      "name": "guidelineHash",
      "outputs": [
        {
          "internalType": "string",
          "name": "",
          "type": "string"
        }
      ],
      "stateMutability": "view",
      "type": "function",
      "constant": true
    },
    {
      "inputs": [],
      "name": "typeCount",
      "outputs": [
        {
          "internalType": "uint256",
          "name": "",
          "type": "uint256"
        }
      ],
      "stateMutability": "view",
      "type": "function",
      "constant": true
    },
    {
      "inputs": [
        {
          "internalType": "string",
          "name": "_name",
          "type": "string"
        },
        {
          "internalType": "string",
          "name": "_ID",
          "type": "string"
        },
        {
          "internalType": "address",
          "name": "_accountAddress",
          "type": "address"
        },
        {
          "internalType": "string",
          "name": "_username",
          "type": "string"
        },
        {
          "internalType": "enum SecureEvidence.Status",
          "name": "_status",
          "type": "uint8"
        },
        {
          "internalType": "enum SecureEvidence.UserRole",
          "name": "_role",
          "type": "uint8"
        }
      ],
      "name": "addUser",
      "outputs": [
        {
          "internalType": "string",
          "name": "",
          "type": "string"
        }
      ],
      "stateMutability": "nonpayable",
      "type": "function"
    },
    {
      "inputs": [
        {
          "internalType": "string",
          "name": "_ID",
          "type": "string"
        },
        {
          "internalType": "string",
          "name": "_name",
          "type": "string"
        },
        {
          "internalType": "address",
          "name": "_accountAddress",
          "type": "address"
        },
        {
          "internalType": "string",
          "name": "_username",
          "type": "string"
        },
        {
          "internalType": "enum SecureEvidence.Status",
          "name": "_status",
          "type": "uint8"
        },
        {
          "internalType": "enum SecureEvidence.UserRole",
          "name": "_role",
          "type": "uint8"
        }
      ],
      "name": "updateUser",
      "outputs": [
        {
          "internalType": "string",
          "name": "",
          "type": "string"
        }
      ],
      "stateMutability": "nonpayable",
      "type": "function"
    },
    {
      "inputs": [
        {
          "internalType": "string",
          "name": "_ID",
          "type": "string"
        }
      ],
      "name": "getUserByID",
      "outputs": [
        {
          "internalType": "string",
          "name": "name",
          "type": "string"
        },
        {
          "internalType": "string",
          "name": "ID",
          "type": "string"
        },
        {
          "internalType": "address",
          "name": "accountAddress",
          "type": "address"
        },
        {
          "internalType": "string",
          "name": "username",
          "type": "string"
        },
        {
          "internalType": "enum SecureEvidence.Status",
          "name": "status",
          "type": "uint8"
        },
        {
          "internalType": "enum SecureEvidence.UserRole",
          "name": "role",
          "type": "uint8"
        }
      ],
      "stateMutability": "view",
      "type": "function",
      "constant": true
    },
    {
      "inputs": [
        {
          "internalType": "string",
          "name": "_username",
          "type": "string"
        }
      ],
      "name": "login",
      "outputs": [
        {
          "internalType": "string",
          "name": "",
          "type": "string"
        }
      ],
      "stateMutability": "view",
      "type": "function",
      "constant": true
    }
  ],
  "bytecode": "0x608060405273ae66570c9252ad7c82a76371dce460129538d7d76000806101000a81548173ffffffffffffffffffffffffffffffffffffffff021916908373ffffffffffffffffffffffffffffffffffffffff1602179055506040518060400160405280600a81526020017f537570657241646d696e0000000000000000000000000000000000000000000081525060019080519060200190620000a5929190620000ba565b50348015620000b357600080fd5b50620001cf565b828054620000c8906200016a565b90600052602060002090601f016020900481019282620000ec576000855562000138565b82601f106200010757805160ff191683800117855562000138565b8280016001018555821562000138579182015b82811115620001375782518255916020019190600101906200011a565b5b5090506200014791906200014b565b5090565b5b80821115620001665760008160009055506001016200014c565b5090565b600060028204905060018216806200018357607f821691505b602082108114156200019a5762000199620001a0565b5b50919050565b7f4e487b7100000000000000000000000000000000000000000000000000000000600052602260045260246000fd5b61257880620001df6000396000f3fe608060405234801561001057600080fd5b50600436106100935760003560e01c8063832581e811610066578063832581e814610146578063a2ed5af014610164578063ae3c0aea14610182578063d460a5ff146101b2578063da2d7e95146101e757610093565b80633a7d280c1461009857806345b57631146100c8578063602d7fe6146100f85780637380fd4b14610116575b600080fd5b6100b260048036038101906100ad9190611c84565b610205565b6040516100bf919061208f565b60405180910390f35b6100e260048036038101906100dd9190611c84565b610796565b6040516100ef91906121e7565b60405180910390f35b6101006107c4565b60405161010d91906121e7565b60405180910390f35b610130600480360381019061012b9190611cc5565b6107ca565b60405161013d919061208f565b60405180910390f35b61014e610e61565b60405161015b919061208f565b60405180910390f35b61016c610eef565b60405161017991906121e7565b60405180910390f35b61019c60048036038101906101979190611cc5565b610ef5565b6040516101a9919061208f565b60405180910390f35b6101cc60048036038101906101c79190611c84565b611451565b6040516101de969594939291906120b1565b60405180910390f35b6101ef611b34565b6040516101fc91906121e7565b60405180910390f35b6060600033905060008054906101000a900473ffffffffffffffffffffffffffffffffffffffff1673ffffffffffffffffffffffffffffffffffffffff168173ffffffffffffffffffffffffffffffffffffffff161480156102b3575060016040516020016102749190612078565b604051602081830303815290604052805190602001208360405160200161029b9190612061565b60405160208183030381529060405280519060200120145b156102f6576040518060400160405280601281526020017f57656c636f6d6520537570657241646d696e0000000000000000000000000000815250915050610791565b600073ffffffffffffffffffffffffffffffffffffffff16600260008373ffffffffffffffffffffffffffffffffffffffff1673ffffffffffffffffffffffffffffffffffffffff16815260200190815260200160002060020160009054906101000a900473ffffffffffffffffffffffffffffffffffffffff1673ffffffffffffffffffffffffffffffffffffffff16141580156104215750826040516020016103a19190612061565b60405160208183030381529060405280519060200120600260008373ffffffffffffffffffffffffffffffffffffffff1673ffffffffffffffffffffffffffffffffffffffff1681526020019081526020016000206003016040516020016104099190612078565b60405160208183030381529060405280519060200120145b156107575760018081111561045f577f4e487b7100000000000000000000000000000000000000000000000000000000600052602160045260246000fd5b600260008373ffffffffffffffffffffffffffffffffffffffff1673ffffffffffffffffffffffffffffffffffffffff16815260200190815260200160002060040160009054906101000a900460ff1660018111156104e7577f4e487b7100000000000000000000000000000000000000000000000000000000600052602160045260246000fd5b141561073657600280811115610526577f4e487b7100000000000000000000000000000000000000000000000000000000600052602160045260246000fd5b600260008373ffffffffffffffffffffffffffffffffffffffff1673ffffffffffffffffffffffffffffffffffffffff16815260200190815260200160002060040160019054906101000a900460ff1660028111156105ae577f4e487b7100000000000000000000000000000000000000000000000000000000600052602160045260246000fd5b14156105f2576040518060400160405280600d81526020017f57656c636f6d652041646d696e00000000000000000000000000000000000000815250915050610791565b6001600281111561062c577f4e487b7100000000000000000000000000000000000000000000000000000000600052602160045260246000fd5b600260008373ffffffffffffffffffffffffffffffffffffffff1673ffffffffffffffffffffffffffffffffffffffff16815260200190815260200160002060040160019054906101000a900460ff1660028111156106b4577f4e487b7100000000000000000000000000000000000000000000000000000000600052602160045260246000fd5b14156106f8576040518060400160405280600c81526020017f57656c636f6d6520557365720000000000000000000000000000000000000000815250915050610791565b6040518060400160405280600781526020017f57656c636f6d6500000000000000000000000000000000000000000000000000815250915050610791565b60405180606001604052806034815260200161250f60349139915050610791565b6040518060400160405280601381526020017f55736572206e6f742072656769737465726564000000000000000000000000008152509150505b919050565b600a818051602081018201805184825260208301602085012081835280955050505050506000915090505481565b600e5481565b6060600180811115610805577f4e487b7100000000000000000000000000000000000000000000000000000000600052602160045260246000fd5b600260003373ffffffffffffffffffffffffffffffffffffffff1673ffffffffffffffffffffffffffffffffffffffff16815260200190815260200160002060040160009054906101000a900460ff16600181111561088d577f4e487b7100000000000000000000000000000000000000000000000000000000600052602160045260246000fd5b14801561095857506002808111156108ce577f4e487b7100000000000000000000000000000000000000000000000000000000600052602160045260246000fd5b600260003373ffffffffffffffffffffffffffffffffffffffff1673ffffffffffffffffffffffffffffffffffffffff16815260200190815260200160002060040160019054906101000a900460ff166002811115610956577f4e487b7100000000000000000000000000000000000000000000000000000000600052602160045260246000fd5b145b806109ae575060008054906101000a900473ffffffffffffffffffffffffffffffffffffffff1673ffffffffffffffffffffffffffffffffffffffff163373ffffffffffffffffffffffffffffffffffffffff16145b6109ed576040517f08c379a00000000000000000000000000000000000000000000000000000000081526004016109e4906121c7565b60405180910390fd5b600073ffffffffffffffffffffffffffffffffffffffff16600387604051610a159190612061565b908152602001604051809103902060009054906101000a900473ffffffffffffffffffffffffffffffffffffffff1673ffffffffffffffffffffffffffffffffffffffff1614610a9a576040517f08c379a0000000000000000000000000000000000000000000000000000000008152600401610a9190612127565b60405180910390fd5b600073ffffffffffffffffffffffffffffffffffffffff16600260008773ffffffffffffffffffffffffffffffffffffffff1673ffffffffffffffffffffffffffffffffffffffff16815260200190815260200160002060020160009054906101000a900473ffffffffffffffffffffffffffffffffffffffff1673ffffffffffffffffffffffffffffffffffffffff1614610b6b576040517f08c379a0000000000000000000000000000000000000000000000000000000008152600401610b6290612167565b60405180910390fd5b6040518060c001604052808881526020018781526020018673ffffffffffffffffffffffffffffffffffffffff168152602001858152602001846001811115610bdd577f4e487b7100000000000000000000000000000000000000000000000000000000600052602160045260246000fd5b8152602001836002811115610c1b577f4e487b7100000000000000000000000000000000000000000000000000000000600052602160045260246000fd5b815250600260008773ffffffffffffffffffffffffffffffffffffffff1673ffffffffffffffffffffffffffffffffffffffff1681526020019081526020016000206000820151816000019080519060200190610c79929190611b3a565b506020820151816001019080519060200190610c96929190611b3a565b5060408201518160020160006101000a81548173ffffffffffffffffffffffffffffffffffffffff021916908373ffffffffffffffffffffffffffffffffffffffff1602179055506060820151816003019080519060200190610cfa929190611b3a565b5060808201518160040160006101000a81548160ff02191690836001811115610d4c577f4e487b7100000000000000000000000000000000000000000000000000000000600052602160045260246000fd5b021790555060a08201518160040160016101000a81548160ff02191690836002811115610da2577f4e487b7100000000000000000000000000000000000000000000000000000000600052602160045260246000fd5b021790555090505084600387604051610dbb9190612061565b908152602001604051809103902060006101000a81548173ffffffffffffffffffffffffffffffffffffffff021916908373ffffffffffffffffffffffffffffffffffffffff160217905550600b6000815480929190610e1a90612399565b91905055506040518060400160405280600a81526020017f557365722061646465640000000000000000000000000000000000000000000081525090509695505050505050565b600f8054610e6e90612367565b80601f0160208091040260200160405190810160405280929190818152602001828054610e9a90612367565b8015610ee75780601f10610ebc57610100808354040283529160200191610ee7565b820191906000526020600020905b815481529060010190602001808311610eca57829003601f168201915b505050505081565b600c5481565b6060600180811115610f30577f4e487b7100000000000000000000000000000000000000000000000000000000600052602160045260246000fd5b600260003373ffffffffffffffffffffffffffffffffffffffff1673ffffffffffffffffffffffffffffffffffffffff16815260200190815260200160002060040160009054906101000a900460ff166001811115610fb8577f4e487b7100000000000000000000000000000000000000000000000000000000600052602160045260246000fd5b1480156110835750600280811115610ff9577f4e487b7100000000000000000000000000000000000000000000000000000000600052602160045260246000fd5b600260003373ffffffffffffffffffffffffffffffffffffffff1673ffffffffffffffffffffffffffffffffffffffff16815260200190815260200160002060040160019054906101000a900460ff166002811115611081577f4e487b7100000000000000000000000000000000000000000000000000000000600052602160045260246000fd5b145b806110d9575060008054906101000a900473ffffffffffffffffffffffffffffffffffffffff1673ffffffffffffffffffffffffffffffffffffffff163373ffffffffffffffffffffffffffffffffffffffff16145b611118576040517f08c379a000000000000000000000000000000000000000000000000000000000815260040161110f906121c7565b60405180910390fd5b600073ffffffffffffffffffffffffffffffffffffffff16600260008773ffffffffffffffffffffffffffffffffffffffff1673ffffffffffffffffffffffffffffffffffffffff16815260200190815260200160002060020160009054906101000a900473ffffffffffffffffffffffffffffffffffffffff1673ffffffffffffffffffffffffffffffffffffffff1614156111ea576040517f08c379a00000000000000000000000000000000000000000000000000000000081526004016111e1906121a7565b60405180910390fd5b85600260008773ffffffffffffffffffffffffffffffffffffffff1673ffffffffffffffffffffffffffffffffffffffff1681526020019081526020016000206000019080519060200190611240929190611b3a565b5086600260008773ffffffffffffffffffffffffffffffffffffffff1673ffffffffffffffffffffffffffffffffffffffff1681526020019081526020016000206001019080519060200190611297929190611b3a565b5083600260008773ffffffffffffffffffffffffffffffffffffffff1673ffffffffffffffffffffffffffffffffffffffff16815260200190815260200160002060030190805190602001906112ee929190611b3a565b5082600260008773ffffffffffffffffffffffffffffffffffffffff1673ffffffffffffffffffffffffffffffffffffffff16815260200190815260200160002060040160006101000a81548160ff0219169083600181111561137a577f4e487b7100000000000000000000000000000000000000000000000000000000600052602160045260246000fd5b021790555081600260008773ffffffffffffffffffffffffffffffffffffffff1673ffffffffffffffffffffffffffffffffffffffff16815260200190815260200160002060040160016101000a81548160ff0219169083600281111561140a577f4e487b7100000000000000000000000000000000000000000000000000000000600052602160045260246000fd5b02179055506040518060400160405280600c81526020017f557365722075706461746564000000000000000000000000000000000000000081525090509695505050505050565b60608060006060600080600060038860405161146d9190612061565b908152602001604051809103902060009054906101000a900473ffffffffffffffffffffffffffffffffffffffff169050600073ffffffffffffffffffffffffffffffffffffffff168173ffffffffffffffffffffffffffffffffffffffff16141561150e576040517f08c379a000000000000000000000000000000000000000000000000000000000815260040161150590612147565b60405180910390fd5b6000600260008373ffffffffffffffffffffffffffffffffffffffff1673ffffffffffffffffffffffffffffffffffffffff1681526020019081526020016000206040518060c001604052908160008201805461156a90612367565b80601f016020809104026020016040519081016040528092919081815260200182805461159690612367565b80156115e35780601f106115b8576101008083540402835291602001916115e3565b820191906000526020600020905b8154815290600101906020018083116115c657829003601f168201915b505050505081526020016001820180546115fc90612367565b80601f016020809104026020016040519081016040528092919081815260200182805461162890612367565b80156116755780601f1061164a57610100808354040283529160200191611675565b820191906000526020600020905b81548152906001019060200180831161165857829003601f168201915b505050505081526020016002820160009054906101000a900473ffffffffffffffffffffffffffffffffffffffff1673ffffffffffffffffffffffffffffffffffffffff1673ffffffffffffffffffffffffffffffffffffffff1681526020016003820180546116e490612367565b80601f016020809104026020016040519081016040528092919081815260200182805461171090612367565b801561175d5780601f106117325761010080835404028352916020019161175d565b820191906000526020600020905b81548152906001019060200180831161174057829003601f168201915b505050505081526020016004820160009054906101000a900460ff1660018111156117b1577f4e487b7100000000000000000000000000000000000000000000000000000000600052602160045260246000fd5b60018111156117e9577f4e487b7100000000000000000000000000000000000000000000000000000000600052602160045260246000fd5b81526020016004820160019054906101000a900460ff166002811115611838577f4e487b7100000000000000000000000000000000000000000000000000000000600052602160045260246000fd5b6002811115611870577f4e487b7100000000000000000000000000000000000000000000000000000000600052602160045260246000fd5b8152505090506001808111156118af577f4e487b7100000000000000000000000000000000000000000000000000000000600052602160045260246000fd5b816080015160018111156118ec577f4e487b7100000000000000000000000000000000000000000000000000000000600052602160045260246000fd5b148015611a6a575060028081111561192d577f4e487b7100000000000000000000000000000000000000000000000000000000600052602160045260246000fd5b8160a00151600281111561196a577f4e487b7100000000000000000000000000000000000000000000000000000000600052602160045260246000fd5b14806119ea5750600160028111156119ab577f4e487b7100000000000000000000000000000000000000000000000000000000600052602160045260246000fd5b8160a0015160028111156119e8577f4e487b7100000000000000000000000000000000000000000000000000000000600052602160045260246000fd5b145b80611a69575060006002811115611a2a577f4e487b7100000000000000000000000000000000000000000000000000000000600052602160045260246000fd5b8160a001516002811115611a67577f4e487b7100000000000000000000000000000000000000000000000000000000600052602160045260246000fd5b145b5b80611ac0575060008054906101000a900473ffffffffffffffffffffffffffffffffffffffff1673ffffffffffffffffffffffffffffffffffffffff163373ffffffffffffffffffffffffffffffffffffffff16145b611aff576040517f08c379a0000000000000000000000000000000000000000000000000000000008152600401611af690612187565b60405180910390fd5b806000015181602001518260400151836060015184608001518560a00151975097509750975097509750505091939550919395565b600d5481565b828054611b4690612367565b90600052602060002090601f016020900481019282611b685760008555611baf565b82601f10611b8157805160ff1916838001178555611baf565b82800160010185558215611baf579182015b82811115611bae578251825591602001919060010190611b93565b5b509050611bbc9190611bc0565b5090565b5b80821115611bd9576000816000905550600101611bc1565b5090565b6000611bf0611beb84612233565b612202565b905082815260208101848484011115611c0857600080fd5b611c13848285612325565b509392505050565b600081359050611c2a816124d7565b92915050565b600081359050611c3f816124ee565b92915050565b600081359050611c54816124fe565b92915050565b600082601f830112611c6b57600080fd5b8135611c7b848260208601611bdd565b91505092915050565b600060208284031215611c9657600080fd5b600082013567ffffffffffffffff811115611cb057600080fd5b611cbc84828501611c5a565b91505092915050565b60008060008060008060c08789031215611cde57600080fd5b600087013567ffffffffffffffff811115611cf857600080fd5b611d0489828a01611c5a565b965050602087013567ffffffffffffffff811115611d2157600080fd5b611d2d89828a01611c5a565b9550506040611d3e89828a01611c1b565b945050606087013567ffffffffffffffff811115611d5b57600080fd5b611d6789828a01611c5a565b9350506080611d7889828a01611c30565b92505060a0611d8989828a01611c45565b9150509295509295509295565b611d9f8161229f565b82525050565b611dae81612301565b82525050565b611dbd81612313565b82525050565b6000611dce82612278565b611dd88185612283565b9350611de8818560208601612334565b611df18161249e565b840191505092915050565b6000611e0782612278565b611e118185612294565b9350611e21818560208601612334565b80840191505092915050565b60008154611e3a81612367565b611e448186612294565b94506001821660008114611e5f5760018114611e7057611ea3565b60ff19831686528186019350611ea3565b611e7985612263565b60005b83811015611e9b57815481890152600182019150602081019050611e7c565b838801955050505b50505092915050565b6000611eb9602083612283565b91507f557365722077697468207468697320494420616c7265616479206578697374736000830152602082019050919050565b6000611ef9600e83612283565b91507f55736572206e6f7420666f756e640000000000000000000000000000000000006000830152602082019050919050565b6000611f39602583612283565b91507f5573657220776974682074686973206164647265737320616c7265616479206560008301527f78697374730000000000000000000000000000000000000000000000000000006020830152604082019050919050565b6000611f9f601383612283565b91507f556e617574686f72697a656420616363657373000000000000000000000000006000830152602082019050919050565b6000611fdf601383612283565b91507f5573657220646f6573206e6f74206578697374000000000000000000000000006000830152602082019050919050565b600061201f601383612283565b91507f4e6f7420616e206163746976652041646d696e000000000000000000000000006000830152602082019050919050565b61205b816122f7565b82525050565b600061206d8284611dfc565b915081905092915050565b60006120848284611e2d565b915081905092915050565b600060208201905081810360008301526120a98184611dc3565b905092915050565b600060c08201905081810360008301526120cb8189611dc3565b905081810360208301526120df8188611dc3565b90506120ee6040830187611d96565b81810360608301526121008186611dc3565b905061210f6080830185611da5565b61211c60a0830184611db4565b979650505050505050565b6000602082019050818103600083015261214081611eac565b9050919050565b6000602082019050818103600083015261216081611eec565b9050919050565b6000602082019050818103600083015261218081611f2c565b9050919050565b600060208201905081810360008301526121a081611f92565b9050919050565b600060208201905081810360008301526121c081611fd2565b9050919050565b600060208201905081810360008301526121e081612012565b9050919050565b60006020820190506121fc6000830184612052565b92915050565b6000604051905081810181811067ffffffffffffffff821117156122295761222861246f565b5b8060405250919050565b600067ffffffffffffffff82111561224e5761224d61246f565b5b601f19601f8301169050602081019050919050565b60008190508160005260206000209050919050565b600081519050919050565b600082825260208201905092915050565b600081905092915050565b60006122aa826122d7565b9050919050565b60008190506122bf826124af565b919050565b60008190506122d2826124c3565b919050565b600073ffffffffffffffffffffffffffffffffffffffff82169050919050565b6000819050919050565b600061230c826122b1565b9050919050565b600061231e826122c4565b9050919050565b82818337600083830152505050565b60005b83811015612352578082015181840152602081019050612337565b83811115612361576000848401525b50505050565b6000600282049050600182168061237f57607f821691505b6020821081141561239357612392612440565b5b50919050565b60006123a4826122f7565b91507fffffffffffffffffffffffffffffffffffffffffffffffffffffffffffffffff8214156123d7576123d66123e2565b5b600182019050919050565b7f4e487b7100000000000000000000000000000000000000000000000000000000600052601160045260246000fd5b7f4e487b7100000000000000000000000000000000000000000000000000000000600052602160045260246000fd5b7f4e487b7100000000000000000000000000000000000000000000000000000000600052602260045260246000fd5b7f4e487b7100000000000000000000000000000000000000000000000000000000600052604160045260246000fd5b6000601f19601f8301169050919050565b600281106124c0576124bf612411565b5b50565b600381106124d4576124d3612411565b5b50565b6124e08161229f565b81146124eb57600080fd5b50565b600281106124fb57600080fd5b50565b6003811061250b57600080fd5b5056fe596f752063616e6e6f74206c6f67696e2c20706c6561736520636f6e746163742041646d696e206f7220537570657241646d696ea2646970667358221220bc90ff771bda1e961ea6449656ef71cda6dadf04ea78dd363a663a5fab3bba2c64736f6c63430008000033",
  "immutableReferences": {},
  "source": "// SPDX-License-Identifier: MIT\npragma solidity ^0.8.0;\n\nimport \"./SecureEvidence.sol\";\n\ncontract User is SecureEvidence {\n\n    function addUser(\n        string memory _name,\n        string memory _ID,\n        address _accountAddress,\n        string memory _username,\n        Status _status,\n        UserRole _role\n    ) public onlyAdmin returns (string memory) {\n        require(accountIDs[_ID] == address(0), \"User with this ID already exists\");\n        require(accounts[_accountAddress].accountAddress == address(0), \"User with this address already exists\");\n\n        accounts[_accountAddress] = Account({\n            name: _name,\n            ID: _ID,\n            accountAddress: _accountAddress,\n            username: _username,\n            status: _status,\n            role: _role\n        });\n\n        accountIDs[_ID] = _accountAddress;\n        accountCount++;\n\n        return \"User added\";\n    }\n\n    function updateUser(\n        string memory _ID,\n        string memory _name,\n        address _accountAddress,\n        string memory _username,\n        Status _status,\n        UserRole _role\n    ) public onlyAdmin returns (string memory) {\n        require(accounts[_accountAddress].accountAddress != address(0), \"User does not exist\");\n\n        accounts[_accountAddress].name = _name;\n        accounts[_accountAddress].ID = _ID;\n        accounts[_accountAddress].username = _username;\n        accounts[_accountAddress].status = _status;\n        accounts[_accountAddress].role = _role;\n\n        return \"User updated\";\n    }\n\n    function getUserByID(string memory _ID) public view returns (\n    string memory name,\n    string memory ID,\n    address accountAddress,\n    string memory username,\n    Status status,\n    UserRole role\n) {\n    address userAddress = accountIDs[_ID];\n    require(userAddress != address(0), \"User not found\");\n\n    Account memory user = accounts[userAddress];\n    require(\n        user.status == Status.Active &&\n        (user.role == UserRole.Admin || user.role == UserRole.LevelOne || user.role == UserRole.LevelTwo) ||\n        msg.sender == superAdminAddress, \n        \"Unauthorized access\"\n    );\n\n    return (user.name, user.ID, user.accountAddress, user.username, user.status, user.role);\n}\n    function login(string memory _username) public view returns (string memory) {\n        address _account = msg.sender;\n\n        if (_account == superAdminAddress && keccak256(abi.encodePacked(_username)) == keccak256(abi.encodePacked(superAdminUsername))) {\n            return \"Welcome SuperAdmin\";\n        } else if (accounts[_account].accountAddress != address(0) && keccak256(abi.encodePacked(accounts[_account].username)) == keccak256(abi.encodePacked(_username))) {\n            if (accounts[_account].status == Status.Active) {\n                if (accounts[_account].role ==UserRole.Admin){\n                    return \"Welcome Admin\";\n                }else if (accounts[_account].role ==UserRole.LevelOne){\n                    return \"Welcome User\";\n                }else{\n                    return \"Welcome\";\n                }\n            } else {\n                return \"You cannot login, please contact Admin or SuperAdmin\";\n            }\n        }\n        return \"User not registered\";\n    }\n\n\n}\n",
  "sourcePath": "/home/juthindu/Blockchsin/25/12/contracts/User.sol",
  "compiler": {
    "name": "solc",
    "version": "0.8.0+commit.c7dfd78e.Emscripten.clang"
  },
  "schemaVersion": "3.4.16",
  "updatedAt": "2024-09-06T07:02:09.708Z",
  "networkType": "ethereum",
  "devdoc": {
    "kind": "dev",
    "methods": {},
    "version": 1
  },
  "userdoc": {
    "kind": "user",
    "methods": {},
    "version": 1
  }
}