{
  "contractName": "SecureEvidence",
  "abi": [
    {
      "anonymous": false,
      "inputs": [
        {
          "indexed": false,
          "internalType": "string",
          "name": "newGuidelineHash",
          "type": "string"
        },
        {
          "indexed": false,
          "internalType": "address",
          "name": "updatedBy",
          "type": "address"
        }
      ],
      "name": "GuidelineHashUpdated",
      "type": "event"
    },
    {
      "anonymous": false,
      "inputs": [
        {
          "indexed": false,
          "internalType": "address",
          "name": "oldSuperAdmin",
          "type": "address"
        },
        {
          "indexed": false,
          "internalType": "address",
          "name": "newSuperAdmin",
          "type": "address"
        }
      ],
      "name": "SuperAdminChanged",
      "type": "event"
    },
    {
      "inputs": [],
      "name": "accountCount",
      "outputs": [
        {
          "internalType": "uint256",
          "name": "",
          "type": "uint256"
        }
      ],
      "stateMutability": "view",
      "type": "function",
      "constant": true
    },
    {
      "inputs": [],
      "name": "caseCount",
      "outputs": [
        {
          "internalType": "uint256",
          "name": "",
          "type": "uint256"
        }
      ],
      "stateMutability": "view",
      "type": "function",
      "constant": true
    },
    {
      "inputs": [
        {
          "internalType": "uint256",
          "name": "",
          "type": "uint256"
        },
        {
          "internalType": "uint256",
          "name": "",
          "type": "uint256"
        }
      ],
      "name": "caseEvidence",
      "outputs": [
        {
          "internalType": "uint256",
          "name": "caseID",
          "type": "uint256"
        },
        {
          "internalType": "string",
          "name": "evidenceType",
          "type": "string"
        },
        {
          "internalType": "string",
          "name": "evidenceHash",
          "type": "string"
        },
        {
          "internalType": "address",
          "name": "addedBy",
          "type": "address"
        },
        {
          "internalType": "enum SecureEvidence.Status",
          "name": "status",
          "type": "uint8"
        }
      ],
      "stateMutability": "view",
      "type": "function",
      "constant": true
    },
    {
      "inputs": [
        {
          "internalType": "uint256",
          "name": "",
          "type": "uint256"
        }
      ],
      "name": "cases",
      "outputs": [
        {
          "internalType": "string",
          "name": "caseTitle",
          "type": "string"
        },
        {
          "internalType": "uint256",
          "name": "caseID",
          "type": "uint256"
        },
        {
          "internalType": "string",
          "name": "caseType",
          "type": "string"
        },
        {
          "internalType": "string",
          "name": "reportHash",
          "type": "string"
        },
        {
          "internalType": "address",
          "name": "addedBy",
          "type": "address"
        },
        {
          "internalType": "enum SecureEvidence.Status",
          "name": "status",
          "type": "uint8"
        }
      ],
      "stateMutability": "view",
      "type": "function",
      "constant": true
    },
    {
      "inputs": [],
      "name": "evidenceCount",
      "outputs": [
        {
          "internalType": "uint256",
          "name": "",
          "type": "uint256"
        }
      ],
      "stateMutability": "view",
      "type": "function",
      "constant": true
    },
    {
      "inputs": [],
      "name": "guidelineHash",
      "outputs": [
        {
          "internalType": "string",
          "name": "",
          "type": "string"
        }
      ],
      "stateMutability": "view",
      "type": "function",
      "constant": true
    },
    {
      "inputs": [],
      "name": "typeCount",
      "outputs": [
        {
          "internalType": "uint256",
          "name": "",
          "type": "uint256"
        }
      ],
      "stateMutability": "view",
      "type": "function",
      "constant": true
    },
    {
      "inputs": [
        {
          "internalType": "string",
          "name": "",
          "type": "string"
        }
      ],
      "name": "types",
      "outputs": [
        {
          "internalType": "string",
          "name": "caseType",
          "type": "string"
        },
        {
          "internalType": "string",
          "name": "description",
          "type": "string"
        },
        {
          "internalType": "string",
          "name": "category",
          "type": "string"
        },
        {
          "internalType": "uint8",
          "name": "level",
          "type": "uint8"
        }
      ],
      "stateMutability": "view",
      "type": "function",
      "constant": true
    },
    {
      "inputs": [
        {
          "internalType": "string",
          "name": "_username",
          "type": "string"
        }
      ],
      "name": "login",
      "outputs": [
        {
          "internalType": "string",
          "name": "",
          "type": "string"
        }
      ],
      "stateMutability": "view",
      "type": "function",
      "constant": true
    },
    {
      "inputs": [
        {
          "internalType": "address",
          "name": "_newSuperAdmin",
          "type": "address"
        }
      ],
      "name": "changeSuperAdmin",
      "outputs": [],
      "stateMutability": "nonpayable",
      "type": "function"
    },
    {
      "inputs": [
        {
          "internalType": "string",
          "name": "_guidelineHash",
          "type": "string"
        }
      ],
      "name": "setGuidelineHash",
      "outputs": [],
      "stateMutability": "nonpayable",
      "type": "function"
    },
    {
      "inputs": [
        {
          "internalType": "string",
          "name": "_newGuidelineHash",
          "type": "string"
        }
      ],
      "name": "updateGuidelineHash",
      "outputs": [],
      "stateMutability": "nonpayable",
      "type": "function"
    },
    {
      "inputs": [
        {
          "internalType": "string",
          "name": "_name",
          "type": "string"
        },
        {
          "internalType": "uint256",
          "name": "_ID",
          "type": "uint256"
        },
        {
          "internalType": "address",
          "name": "_accountAddress",
          "type": "address"
        },
        {
          "internalType": "string",
          "name": "_username",
          "type": "string"
        },
        {
          "internalType": "enum SecureEvidence.Status",
          "name": "_status",
          "type": "uint8"
        },
        {
          "internalType": "enum SecureEvidence.UserRole",
          "name": "_role",
          "type": "uint8"
        }
      ],
      "name": "addNewUser",
      "outputs": [
        {
          "internalType": "string",
          "name": "",
          "type": "string"
        }
      ],
      "stateMutability": "nonpayable",
      "type": "function"
    },
    {
      "inputs": [
        {
          "internalType": "uint256",
          "name": "_ID",
          "type": "uint256"
        },
        {
          "internalType": "string",
          "name": "_name",
          "type": "string"
        },
        {
          "internalType": "address",
          "name": "_accountAddress",
          "type": "address"
        },
        {
          "internalType": "string",
          "name": "_username",
          "type": "string"
        },
        {
          "internalType": "enum SecureEvidence.Status",
          "name": "_status",
          "type": "uint8"
        },
        {
          "internalType": "enum SecureEvidence.UserRole",
          "name": "_role",
          "type": "uint8"
        }
      ],
      "name": "updateUser",
      "outputs": [
        {
          "internalType": "string",
          "name": "",
          "type": "string"
        }
      ],
      "stateMutability": "nonpayable",
      "type": "function"
    },
    {
      "inputs": [
        {
          "internalType": "string",
          "name": "_caseType",
          "type": "string"
        },
        {
          "internalType": "string",
          "name": "_description",
          "type": "string"
        },
        {
          "internalType": "string",
          "name": "_category",
          "type": "string"
        },
        {
          "internalType": "uint8",
          "name": "_level",
          "type": "uint8"
        }
      ],
      "name": "addType",
      "outputs": [
        {
          "internalType": "string",
          "name": "",
          "type": "string"
        }
      ],
      "stateMutability": "nonpayable",
      "type": "function"
    },
    {
      "inputs": [
        {
          "internalType": "string",
          "name": "_caseTitle",
          "type": "string"
        },
        {
          "internalType": "uint256",
          "name": "_caseID",
          "type": "uint256"
        },
        {
          "internalType": "string",
          "name": "_caseType",
          "type": "string"
        },
        {
          "internalType": "string",
          "name": "_reportHash",
          "type": "string"
        }
      ],
      "name": "addCase",
      "outputs": [
        {
          "internalType": "string",
          "name": "",
          "type": "string"
        }
      ],
      "stateMutability": "nonpayable",
      "type": "function"
    },
    {
      "inputs": [
        {
          "internalType": "uint256",
          "name": "_caseID",
          "type": "uint256"
        },
        {
          "internalType": "enum SecureEvidence.Status",
          "name": "_status",
          "type": "uint8"
        }
      ],
      "name": "updateCaseStatus",
      "outputs": [],
      "stateMutability": "nonpayable",
      "type": "function"
    },
    {
      "inputs": [
        {
          "internalType": "uint256",
          "name": "_caseID",
          "type": "uint256"
        },
        {
          "internalType": "string",
          "name": "_evidenceType",
          "type": "string"
        },
        {
          "internalType": "string",
          "name": "_evidenceHash",
          "type": "string"
        }
      ],
      "name": "addEvidence",
      "outputs": [
        {
          "internalType": "string",
          "name": "",
          "type": "string"
        }
      ],
      "stateMutability": "nonpayable",
      "type": "function"
    },
    {
      "inputs": [
        {
          "internalType": "uint256",
          "name": "_caseID",
          "type": "uint256"
        },
        {
          "internalType": "uint256",
          "name": "_evidenceIndex",
          "type": "uint256"
        },
        {
          "internalType": "enum SecureEvidence.Status",
          "name": "_status",
          "type": "uint8"
        }
      ],
      "name": "updateEvidenceStatus",
      "outputs": [],
      "stateMutability": "nonpayable",
      "type": "function"
    },
    {
      "inputs": [
        {
          "internalType": "uint256",
          "name": "_caseID",
          "type": "uint256"
        }
      ],
      "name": "getEvidenceByCaseID",
      "outputs": [
        {
          "components": [
            {
              "internalType": "uint256",
              "name": "caseID",
              "type": "uint256"
            },
            {
              "internalType": "string",
              "name": "evidenceType",
              "type": "string"
            },
            {
              "internalType": "string",
              "name": "evidenceHash",
              "type": "string"
            },
            {
              "internalType": "address",
              "name": "addedBy",
              "type": "address"
            },
            {
              "internalType": "enum SecureEvidence.Status",
              "name": "status",
              "type": "uint8"
            }
          ],
          "internalType": "struct SecureEvidence.Evidence[]",
          "name": "",
          "type": "tuple[]"
        }
      ],
      "stateMutability": "view",
      "type": "function",
      "constant": true
    },
    {
      "inputs": [
        {
          "internalType": "uint256",
          "name": "_ID",
          "type": "uint256"
        }
      ],
      "name": "getUserByID",
      "outputs": [
        {
          "components": [
            {
              "internalType": "string",
              "name": "name",
              "type": "string"
            },
            {
              "internalType": "uint256",
              "name": "ID",
              "type": "uint256"
            },
            {
              "internalType": "address",
              "name": "accountAddress",
              "type": "address"
            },
            {
              "internalType": "string",
              "name": "username",
              "type": "string"
            },
            {
              "internalType": "enum SecureEvidence.Status",
              "name": "status",
              "type": "uint8"
            },
            {
              "internalType": "enum SecureEvidence.UserRole",
              "name": "role",
              "type": "uint8"
            }
          ],
          "internalType": "struct SecureEvidence.Account",
          "name": "",
          "type": "tuple"
        }
      ],
      "stateMutability": "view",
      "type": "function",
      "constant": true
    },
    {
      "inputs": [
        {
          "internalType": "uint256",
          "name": "_ID",
          "type": "uint256"
        }
      ],
      "name": "getAdminByID",
      "outputs": [
        {
          "components": [
            {
              "internalType": "string",
              "name": "name",
              "type": "string"
            },
            {
              "internalType": "uint256",
              "name": "ID",
              "type": "uint256"
            },
            {
              "internalType": "address",
              "name": "accountAddress",
              "type": "address"
            },
            {
              "internalType": "string",
              "name": "username",
              "type": "string"
            },
            {
              "internalType": "enum SecureEvidence.Status",
              "name": "status",
              "type": "uint8"
            },
            {
              "internalType": "enum SecureEvidence.UserRole",
              "name": "role",
              "type": "uint8"
            }
          ],
          "internalType": "struct SecureEvidence.Account",
          "name": "",
          "type": "tuple"
        }
      ],
      "stateMutability": "view",
      "type": "function",
      "constant": true
    }
  ],
  "bytecode": "0x600080546001600160a01b03191673c1c05fc13391ac717cf5deb109b651dd5115f27417905560c0604052600a60809081526929bab832b920b236b4b760b11b60a05260019061004f9082610101565b5034801561005c57600080fd5b506101bf565b634e487b7160e01b600052604160045260246000fd5b600181811c9082168061008c57607f821691505b6020821081036100ac57634e487b7160e01b600052602260045260246000fd5b50919050565b601f8211156100fc57806000526020600020601f840160051c810160208510156100d95750805b601f840160051c820191505b818110156100f957600081556001016100e5565b50505b505050565b81516001600160401b0381111561011a5761011a610062565b61012e816101288454610078565b846100b2565b6020601f821160018114610162576000831561014a5750848201515b600019600385901b1c1916600184901b1784556100f9565b600084815260208120601f198516915b828110156101925787850151825560209485019460019092019101610172565b50848210156101b05786840151600019600387901b60f8161c191681555b50505050600190811b01905550565b612f2b806101ce6000396000f3fe608060405234801561001057600080fd5b50600436106101425760003560e01c8063832581e8116100b8578063b90e9c501161007c578063b90e9c50146102ac578063ce4fd42f146102bf578063da2d7e95146102d2578063e30c3ba7146102db578063e4af29fc146102fb578063f09790dd1461030457600080fd5b8063832581e8146102625780638ca767ae1461026a5780639f67c3bf1461027d578063a2ed5af014610290578063a4f568301461029957600080fd5b80633a92f4891161010a5780633a92f489146101d957806341858c4b146101fd57806341d48cd214610212578063602d7fe6146102255780636d3b5f181461023c578063703cfe4b1461024f57600080fd5b80630515f315146101475780631002078b146101705780631334ee301461019057806331ba8c0e146101a35780633a7d280c146101c6575b600080fd5b61015a61015536600461254b565b610329565b604051610167919061263c565b60405180910390f35b61018361017e366004612656565b6105ba565b6040516101679190612699565b61015a61019e366004612729565b610926565b6101b66101b13660046127d3565b610b7f565b604051610167949392919061280f565b61015a6101d43660046127d3565b610d4d565b6101ec6101e736600461285d565b610ffd565b60405161016795949392919061287f565b61021061020b3660046128ca565b611170565b005b6102106102203660046127d3565b611251565b61022e600b5481565b604051908152602001610167565b61018361024a366004612656565b61128b565b61015a61025d3660046128e5565b611496565b61015a611699565b610210610278366004612936565b611727565b61015a61028b366004612962565b61185c565b61022e600c5481565b61015a6102a73660046129fd565b611b1f565b6102106102ba366004612a6d565b611d9f565b6102106102cd3660046127d3565b611f4d565b61022e600a5481565b6102ee6102e9366004612656565b611fc0565b6040516101679190612aa2565b61022e60095481565b610317610312366004612656565b612297565b60405161016796959493929190612b5f565b606060013360009081526002602052604090206004015460ff1660018111156103545761035461266f565b14801561038b5750336000908152600260208190526040822060040154610100900460ff16908111156103895761038961266f565b145b806103a057506000546001600160a01b031633145b6103c55760405162461bcd60e51b81526004016103bc90612bc9565b60405180910390fd5b6001600160a01b038581166000908152600260208190526040909120015416156104275760405162461bcd60e51b81526020600482015260136024820152725573657220616c72656164792065786973747360681b60448201526064016103bc565b6040518060c00160405280888152602001878152602001866001600160a01b031681526020018581526020018460018111156104655761046561266f565b815260200183600281111561047c5761047c61266f565b90526001600160a01b0386166000908152600260205260409020815181906104a49082612c7f565b506020820151600182015560408201516002820180546001600160a01b0319166001600160a01b03909216919091179055606082015160038201906104e99082612c7f565b50608082015160048201805460ff19166001838181111561050c5761050c61266f565b021790555060a082015160048201805461ff0019166101008360028111156105365761053661266f565b02179055505050600086815260036020526040812080546001600160a01b0319166001600160a01b038816179055600980549161057283612d3d565b91905055506040518060400160405280601981526020017f557365722063726561746564207375636365737366756c6c790000000000000081525090505b9695505050505050565b6105f16040805160c08101825260608082526000602083018190529282018390528082015290608082019081526020016000905290565b60013360009081526002602052604090206004015460ff16600181111561061a5761061a61266f565b1480156106515750336000908152600260208190526040822060040154610100900460ff169081111561064f5761064f61266f565b145b8061066657506000546001600160a01b031633145b6106825760405162461bcd60e51b81526004016103bc90612bc9565b6000828152600360205260409020546001600160a01b0316806106d95760405162461bcd60e51b815260206004820152600f60248201526e10591b5a5b881b9bdd08199bdd5b99608a1b60448201526064016103bc565b6001600160a01b0381166000908152600260208190526040822060040154610100900460ff169081111561070f5761070f61266f565b1461074b5760405162461bcd60e51b815260206004820152600c60248201526b2737ba1030b71030b236b4b760a11b60448201526064016103bc565b6001600160a01b03811660009081526002602052604090819020815160c0810190925280548290829061077d90612bf6565b80601f01602080910402602001604051908101604052809291908181526020018280546107a990612bf6565b80156107f65780601f106107cb576101008083540402835291602001916107f6565b820191906000526020600020905b8154815290600101906020018083116107d957829003601f168201915b50505091835250506001820154602082015260028201546001600160a01b0316604082015260038201805460609092019161083090612bf6565b80601f016020809104026020016040519081016040528092919081815260200182805461085c90612bf6565b80156108a95780601f1061087e576101008083540402835291602001916108a9565b820191906000526020600020905b81548152906001019060200180831161088c57829003601f168201915b5050509183525050600482015460209091019060ff1660018111156108d0576108d061266f565b60018111156108e1576108e161266f565b81526020016004820160019054906101000a900460ff1660028111156109095761090961266f565b600281111561091a5761091a61266f565b9052509150505b919050565b606060013360009081526002602052604090206004015460ff1660018111156109515761095161266f565b1480156109bf5750336000908152600260208190526040822060040154610100900460ff16908111156109865761098661266f565b14806109bf5750600133600090815260026020819052604090912060040154610100900460ff16908111156109bd576109bd61266f565b145b806109d457506000546001600160a01b031633145b6109f05760405162461bcd60e51b81526004016103bc90612d64565b600585604051610a009190612d9b565b9081526040519081900360200190205460ff1615610a605760405162461bcd60e51b815260206004820152601860248201527f43617365207479706520616c726561647920657869737473000000000000000060448201526064016103bc565b60405180608001604052808681526020018581526020018481526020018360ff16815250600786604051610a949190612d9b565b90815260405190819003602001902081518190610ab19082612c7f565b5060208201516001820190610ac69082612c7f565b5060408201516002820190610adb9082612c7f565b50606091909101516003909101805460ff191660ff909216919091179055604051600190600590610b0d908890612d9b565b908152604051908190036020019020805491151560ff19909216919091179055600b8054906000610b3d83612d3d565b909155505060408051808201909152601781527f54797065206164646564207375636365737366756c6c79000000000000000000602082015295945050505050565b8051602081830181018051600782529282019190930120915280548190610ba590612bf6565b80601f0160208091040260200160405190810160405280929190818152602001828054610bd190612bf6565b8015610c1e5780601f10610bf357610100808354040283529160200191610c1e565b820191906000526020600020905b815481529060010190602001808311610c0157829003601f168201915b505050505090806001018054610c3390612bf6565b80601f0160208091040260200160405190810160405280929190818152602001828054610c5f90612bf6565b8015610cac5780601f10610c8157610100808354040283529160200191610cac565b820191906000526020600020905b815481529060010190602001808311610c8f57829003601f168201915b505050505090806002018054610cc190612bf6565b80601f0160208091040260200160405190810160405280929190818152602001828054610ced90612bf6565b8015610d3a5780601f10610d0f57610100808354040283529160200191610d3a565b820191906000526020600020905b815481529060010190602001808311610d1d57829003601f168201915b5050506003909301549192505060ff1684565b60005460609033906001600160a01b031681148015610db857506001604051602001610d799190612db7565b6040516020818303038152906040528051906020012083604051602001610da09190612d9b565b60405160208183030381529060405280519060200120145b15610ded5750506040805180820190915260128152712bb2b631b7b6b29029bab832b920b236b4b760711b6020820152919050565b6001600160a01b03818116600090815260026020819052604090912001541615801590610e7d575082604051602001610e269190612d9b565b60408051601f1981840301815282825280516020918201206001600160a01b038516600090815260028352929092209192610e65926003019101612db7565b60405160208183030381529060405280519060200120145b15610fcc5760016001600160a01b03821660009081526002602052604090206004015460ff166001811115610eb457610eb461266f565b03610fac576001600160a01b0381166000908152600260208190526040822060040154610100900460ff1690811115610eef57610eef61266f565b03610f1f57505060408051808201909152600d81526c2bb2b631b7b6b29020b236b4b760991b6020820152919050565b60016001600160a01b038216600090815260026020819052604090912060040154610100900460ff1690811115610f5857610f5861266f565b03610f8757505060408051808201909152600c81526b2bb2b631b7b6b2902ab9b2b960a11b6020820152919050565b505060408051808201909152600781526657656c636f6d6560c81b6020820152919050565b604051806060016040528060348152602001612ec2603491399392505050565b5050604080518082019091526013815272155cd95c881b9bdd081c9959da5cdd195c9959606a1b6020820152919050565b6008602052816000526040600020818154811061101957600080fd5b90600052602060002090600402016000915091505080600001549080600101805461104390612bf6565b80601f016020809104026020016040519081016040528092919081815260200182805461106f90612bf6565b80156110bc5780601f10611091576101008083540402835291602001916110bc565b820191906000526020600020905b81548152906001019060200180831161109f57829003601f168201915b5050505050908060020180546110d190612bf6565b80601f01602080910402602001604051908101604052809291908181526020018280546110fd90612bf6565b801561114a5780601f1061111f5761010080835404028352916020019161114a565b820191906000526020600020905b81548152906001019060200180831161112d57829003601f168201915b505050600390930154919250506001600160a01b0381169060ff600160a01b9091041685565b6000546001600160a01b0316331461119a5760405162461bcd60e51b81526004016103bc90612e2c565b6001600160a01b0381166111f05760405162461bcd60e51b815260206004820152601e60248201527f496e76616c6964206e657720537570657241646d696e2061646472657373000060448201526064016103bc565b600080546001600160a01b038381166001600160a01b031983168117909355604080519190921680825260208201939093527f6a7fb6694616d75391385b86c21a1cc2628072753f9c7da9731e7b1b083a55e4910160405180910390a15050565b6000546001600160a01b0316331461127b5760405162461bcd60e51b81526004016103bc90612e2c565b600d6112878282612c7f565b5050565b6112c26040805160c08101825260608082526000602083018190529282018390528082015290608082019081526020016000905290565b60013360009081526002602052604090206004015460ff1660018111156112eb576112eb61266f565b1480156113595750336000908152600260208190526040822060040154610100900460ff16908111156113205761132061266f565b14806113595750600133600090815260026020819052604090912060040154610100900460ff16908111156113575761135761266f565b145b8061136e57506000546001600160a01b031633145b61138a5760405162461bcd60e51b81526004016103bc90612d64565b6000828152600360205260409020546001600160a01b0316806113e15760405162461bcd60e51b815260206004820152600f60248201526e10591b5a5b881b9bdd08199bdd5b99608a1b60448201526064016103bc565b60016001600160a01b038216600090815260026020819052604090912060040154610100900460ff169081111561141a5761141a61266f565b148061145c575060026001600160a01b038216600090815260026020819052604090912060040154610100900460ff169081111561145a5761145a61266f565b145b61074b5760405162461bcd60e51b815260206004820152600b60248201526a2737ba1030b7103ab9b2b960a91b60448201526064016103bc565b606060013360009081526002602052604090206004015460ff1660018111156114c1576114c161266f565b1480156114f85750336000908152600260208190526040822060040154610100900460ff16908111156114f6576114f661266f565b145b8061150d57506000546001600160a01b031633145b6115295760405162461bcd60e51b81526004016103bc90612bc9565b6001600160a01b03858116600090815260026020819052604090912001541661158a5760405162461bcd60e51b8152602060048201526013602482015272155cd95c88191bd95cc81b9bdd08195e1a5cdd606a1b60448201526064016103bc565b6001600160a01b03851660009081526002602052604090206115ac8782612c7f565b506001600160a01b0385166000908152600260205260409020600181018890556003016115d98582612c7f565b506001600160a01b0385166000908152600260205260409020600401805484919060ff1916600183818111156116115761161161266f565b02179055506001600160a01b03851660009081526002602081905260409091206004018054849261ff0019909116906101009084908111156116555761165561266f565b02179055505060408051808201909152601981527f557365722075706461746564207375636365737366756c6c790000000000000060208201529695505050505050565b600d80546116a690612bf6565b80601f01602080910402602001604051908101604052809291908181526020018280546116d290612bf6565b801561171f5780601f106116f45761010080835404028352916020019161171f565b820191906000526020600020905b81548152906001019060200180831161170257829003601f168201915b505050505081565b60013360009081526002602052604090206004015460ff1660018111156117505761175061266f565b1480156117be5750336000908152600260208190526040822060040154610100900460ff16908111156117855761178561266f565b14806117be5750600133600090815260026020819052604090912060040154610100900460ff16908111156117bc576117bc61266f565b145b806117d357506000546001600160a01b031633145b6117ef5760405162461bcd60e51b81526004016103bc90612d64565b600082815260066020526040812060010154900361181f5760405162461bcd60e51b81526004016103bc90612e54565b6000828152600660205260409020600401805482919060ff60a01b1916600160a01b8360018111156118535761185361266f565b02179055505050565b606060013360009081526002602052604090206004015460ff1660018111156118875761188761266f565b1480156118f55750336000908152600260208190526040822060040154610100900460ff16908111156118bc576118bc61266f565b14806118f55750600133600090815260026020819052604090912060040154610100900460ff16908111156118f3576118f361266f565b145b8061190a57506000546001600160a01b031633145b6119265760405162461bcd60e51b81526004016103bc90612d64565b6007836040516119369190612d9b565b908152604051908190036020019020805461195090612bf6565b90506000036119a15760405162461bcd60e51b815260206004820152601860248201527f43617365207479706520646f6573206e6f74206578697374000000000000000060448201526064016103bc565b600084815260066020526040902060010154156119f95760405162461bcd60e51b81526020600482015260166024820152754361736520494420616c72656164792065786973747360501b60448201526064016103bc565b6040805160c081018252868152602081018690529081018490526060810183905233608082015260a0810160019052600085815260066020526040902081518190611a449082612c7f565b506020820151600182015560408201516002820190611a639082612c7f565b5060608201516003820190611a789082612c7f565b5060808201516004820180546001600160a01b039092166001600160a01b031983168117825560a0850151926001600160a81b03191617600160a01b836001811115611ac657611ac661266f565b021790555050600a805491506000611add83612d3d565b909155505060408051808201909152601781527f43617365206164646564207375636365737366756c6c79000000000000000000602082015295945050505050565b606060013360009081526002602052604090206004015460ff166001811115611b4a57611b4a61266f565b148015611bf05750336000908152600260208190526040822060040154610100900460ff1690811115611b7f57611b7f61266f565b1480611bb85750600133600090815260026020819052604090912060040154610100900460ff1690811115611bb657611bb661266f565b145b80611bf05750600233600090815260026020819052604090912060040154610100900460ff1690811115611bee57611bee61266f565b145b80611c0557506000546001600160a01b031633145b611c515760405162461bcd60e51b815260206004820152601a60248201527f4e6f7420616e20616374697665204c6576656c2032205573657200000000000060448201526064016103bc565b6000848152600660205260408120600101549003611c815760405162461bcd60e51b81526004016103bc90612e54565b6040805160a081018252858152602080820186815282840186905233606084015260016080840181905260008981526008845294852080548083018255908652929094208351600490930201918255519192839290820190611ce39082612c7f565b5060408201516002820190611cf89082612c7f565b5060608201516003820180546001600160a01b039092166001600160a01b03198316811782556080850151926001600160a81b03191617600160a01b836001811115611d4657611d4661266f565b021790555050600c805491506000611d5d83612d3d565b909155505060408051808201909152601b81527f45766964656e6365206164646564207375636365737366756c6c790000000000602082015295945050505050565b60013360009081526002602052604090206004015460ff166001811115611dc857611dc861266f565b148015611e365750336000908152600260208190526040822060040154610100900460ff1690811115611dfd57611dfd61266f565b1480611e365750600133600090815260026020819052604090912060040154610100900460ff1690811115611e3457611e3461266f565b145b80611e4b57506000546001600160a01b031633145b611e675760405162461bcd60e51b81526004016103bc90612d64565b6000838152600660205260408120600101549003611e975760405162461bcd60e51b81526004016103bc90612e54565b6000838152600860205260409020548210611eed5760405162461bcd60e51b8152602060048201526016602482015275092dcecc2d8d2c840caecd2c8cadcc6ca40d2dcc8caf60531b60448201526064016103bc565b6000838152600860205260409020805482919084908110611f1057611f10612e81565b60009182526020909120600360049092020101805460ff60a01b1916600160a01b836001811115611f4357611f4361266f565b0217905550505050565b6000546001600160a01b03163314611f775760405162461bcd60e51b81526004016103bc90612e2c565b600d611f838282612c7f565b507fc62ca91ca94c9146a6a839a13f5f2056e44cf023b56a2b19696bb251b13d64b28133604051611fb5929190612e97565b60405180910390a150565b606060013360009081526002602052604090206004015460ff166001811115611feb57611feb61266f565b1480156120595750336000908152600260208190526040822060040154610100900460ff16908111156120205761202061266f565b14806120595750600133600090815260026020819052604090912060040154610100900460ff16908111156120575761205761266f565b145b8061206e57506000546001600160a01b031633145b61208a5760405162461bcd60e51b81526004016103bc90612d64565b60008281526006602052604081206001015490036120ba5760405162461bcd60e51b81526004016103bc90612e54565b600082815260086020908152604080832080548251818502810185019093528083529193909284015b8282101561228c57838290600052602060002090600402016040518060a00160405290816000820154815260200160018201805461212090612bf6565b80601f016020809104026020016040519081016040528092919081815260200182805461214c90612bf6565b80156121995780601f1061216e57610100808354040283529160200191612199565b820191906000526020600020905b81548152906001019060200180831161217c57829003601f168201915b505050505081526020016002820180546121b290612bf6565b80601f01602080910402602001604051908101604052809291908181526020018280546121de90612bf6565b801561222b5780601f106122005761010080835404028352916020019161222b565b820191906000526020600020905b81548152906001019060200180831161220e57829003601f168201915b505050918352505060038201546001600160a01b0381166020830152604090910190600160a01b900460ff1660018111156122685761226861266f565b60018111156122795761227961266f565b81525050815260200190600101906120e3565b505050509050919050565b6006602052600090815260409020805481906122b290612bf6565b80601f01602080910402602001604051908101604052809291908181526020018280546122de90612bf6565b801561232b5780601f106123005761010080835404028352916020019161232b565b820191906000526020600020905b81548152906001019060200180831161230e57829003601f168201915b50505050509080600101549080600201805461234690612bf6565b80601f016020809104026020016040519081016040528092919081815260200182805461237290612bf6565b80156123bf5780601f10612394576101008083540402835291602001916123bf565b820191906000526020600020905b8154815290600101906020018083116123a257829003601f168201915b5050505050908060030180546123d490612bf6565b80601f016020809104026020016040519081016040528092919081815260200182805461240090612bf6565b801561244d5780601f106124225761010080835404028352916020019161244d565b820191906000526020600020905b81548152906001019060200180831161243057829003601f168201915b505050600490930154919250506001600160a01b0381169060ff600160a01b9091041686565b634e487b7160e01b600052604160045260246000fd5b600082601f83011261249a57600080fd5b81356001600160401b038111156124b3576124b3612473565b604051601f8201601f19908116603f011681016001600160401b03811182821017156124e1576124e1612473565b6040528181528382016020018510156124f957600080fd5b816020850160208301376000918101602001919091529392505050565b80356001600160a01b038116811461092157600080fd5b80356002811061092157600080fd5b80356003811061092157600080fd5b60008060008060008060c0878903121561256457600080fd5b86356001600160401b0381111561257a57600080fd5b61258689828a01612489565b9650506020870135945061259c60408801612516565b935060608701356001600160401b038111156125b757600080fd5b6125c389828a01612489565b9350506125d26080880161252d565b91506125e060a0880161253c565b90509295509295509295565b60005b838110156126075781810151838201526020016125ef565b50506000910152565b600081518084526126288160208601602086016125ec565b601f01601f19169290920160200192915050565b60208152600061264f6020830184612610565b9392505050565b60006020828403121561266857600080fd5b5035919050565b634e487b7160e01b600052602160045260246000fd5b600281106126955761269561266f565b9052565b602081526000825160c060208401526126b560e0840182612610565b90506020840151604084015260018060a01b0360408501511660608401526060840151601f198483030160808501526126ee8282612610565b915050608084015161270360a0850182612685565b5060a0840151600381106127195761271961266f565b60c0939093019290925250919050565b6000806000806080858703121561273f57600080fd5b84356001600160401b0381111561275557600080fd5b61276187828801612489565b94505060208501356001600160401b0381111561277d57600080fd5b61278987828801612489565b93505060408501356001600160401b038111156127a557600080fd5b6127b187828801612489565b925050606085013560ff811681146127c857600080fd5b939692955090935050565b6000602082840312156127e557600080fd5b81356001600160401b038111156127fb57600080fd5b61280784828501612489565b949350505050565b6080815260006128226080830187612610565b82810360208401526128348187612610565b905082810360408401526128488186612610565b91505060ff8316606083015295945050505050565b6000806040838503121561287057600080fd5b50508035926020909101359150565b85815260a06020820152600061289860a0830187612610565b82810360408401526128aa8187612610565b6001600160a01b038616606085015291506105b090506080830184612685565b6000602082840312156128dc57600080fd5b61264f82612516565b60008060008060008060c087890312156128fe57600080fd5b8635955060208701356001600160401b0381111561291b57600080fd5b61292789828a01612489565b95505061259c60408801612516565b6000806040838503121561294957600080fd5b823591506129596020840161252d565b90509250929050565b6000806000806080858703121561297857600080fd5b84356001600160401b0381111561298e57600080fd5b61299a87828801612489565b9450506020850135925060408501356001600160401b038111156129bd57600080fd5b6129c987828801612489565b92505060608501356001600160401b038111156129e557600080fd5b6129f187828801612489565b91505092959194509250565b600080600060608486031215612a1257600080fd5b8335925060208401356001600160401b03811115612a2f57600080fd5b612a3b86828701612489565b92505060408401356001600160401b03811115612a5757600080fd5b612a6386828701612489565b9150509250925092565b600080600060608486031215612a8257600080fd5b8335925060208401359150612a996040850161252d565b90509250925092565b6000602082016020835280845180835260408501915060408160051b86010192506020860160005b82811015612b5357603f19878603018452815180518652602081015160a06020880152612afa60a0880182612610565b905060408201518782036040890152612b138282612610565b6060848101516001600160a01b0316908a015260809384015193909250612b3d9150880183612685565b9550506020938401939190910190600101612aca565b50929695505050505050565b60c081526000612b7260c0830189612610565b8760208401528281036040840152612b8a8188612610565b90508281036060840152612b9e8187612610565b6001600160a01b03861660808501529150612bbe905060a0830184612685565b979650505050505050565b6020808252601390820152722737ba1030b71030b1ba34bb329020b236b4b760691b604082015260600190565b600181811c90821680612c0a57607f821691505b602082108103612c2a57634e487b7160e01b600052602260045260246000fd5b50919050565b601f821115612c7a57806000526020600020601f840160051c81016020851015612c575750805b601f840160051c820191505b81811015612c775760008155600101612c63565b50505b505050565b81516001600160401b03811115612c9857612c98612473565b612cac81612ca68454612bf6565b84612c30565b6020601f821160018114612ce05760008315612cc85750848201515b600019600385901b1c1916600184901b178455612c77565b600084815260208120601f198516915b82811015612d105787850151825560209485019460019092019101612cf0565b5084821015612d2e5786840151600019600387901b60f8161c191681555b50505050600190811b01905550565b600060018201612d5d57634e487b7160e01b600052601160045260246000fd5b5060010190565b6020808252601a908201527f4e6f7420616e20616374697665204c6576656c20312055736572000000000000604082015260600190565b60008251612dad8184602087016125ec565b9190910192915050565b6000808354612dc581612bf6565b600182168015612ddc5760018114612df157612e21565b60ff1983168652811515820286019350612e21565b86600052602060002060005b83811015612e1957815488820152600190910190602001612dfd565b505081860193505b509195945050505050565b6020808252600e908201526d2737ba1029bab832b920b236b4b760911b604082015260600190565b60208082526013908201527210d85cd948191bd95cc81b9bdd08195e1a5cdd606a1b604082015260600190565b634e487b7160e01b600052603260045260246000fd5b604081526000612eaa6040830185612610565b905060018060a01b0383166020830152939250505056fe596f752063616e6e6f74206c6f67696e2c20706c6561736520636f6e746163742041646d696e206f7220537570657241646d696ea2646970667358221220cea05f7dc4f5ed55c0e9bc24a18a0bad6a75fe9d0973ecebf92568ed505d987b64736f6c634300081a0033",
  "immutableReferences": {},
  "source": "// SPDX-License-Identifier: MIT\npragma solidity ^0.8.0;\n\ncontract SecureEvidence {\n    address private superAdminAddress = 0xC1c05FC13391ac717CF5DeB109B651Dd5115F274;\n    string private superAdminUsername = \"SuperAdmin\";\n\n    enum Status {Inactive, Active}\n    enum UserRole {Admin, LevelOne, LevelTwo}\n    event SuperAdminChanged(address oldSuperAdmin, address newSuperAdmin);\n    event GuidelineHashUpdated(string newGuidelineHash, address updatedBy);\n\n\n    struct Account {\n        string name;\n        uint256 ID;\n        address accountAddress;\n        string username;\n        Status status;\n        UserRole role;\n    }\n\n    struct Type {\n        string caseType;\n        string description;\n        string category;\n        uint8 level;\n    }\n\n\n    struct Case {\n        string caseTitle;\n        uint256 caseID;\n        string caseType;\n        string reportHash;\n        address addedBy;\n        Status status;\n    }\n\n    struct Evidence {\n        uint256 caseID;\n        string evidenceType;\n        string evidenceHash;\n        address addedBy;\n        Status status;\n    }\n\n    mapping(address => Account) private accounts;\n    mapping(uint256 => address) private accountIDs;\n    mapping(uint256 => bool) private evidenceIDs;\n    mapping(string => bool) private caseType;\n    mapping(uint256 => Case) public cases;\n    mapping(string => Type) public types;\n    mapping(uint256 => Evidence[]) public caseEvidence;\n\n    \n    uint256 public accountCount;\n    uint256 public caseCount;\n    uint256 public typeCount;\n    uint256 public evidenceCount;\n    string public  guidelineHash; \n\n    modifier onlySuperAdmin() {\n        require(msg.sender == superAdminAddress, \"Not SuperAdmin\");\n        _;\n    }\n\n    modifier onlyAdmin() {\n        require(accounts[msg.sender].status == Status.Active &&\n        accounts[msg.sender].role == UserRole.Admin ||\n        msg.sender == superAdminAddress, \"Not an active Admin\");\n        _;\n    }\n\n    modifier onlyLevelOne() {\n        require(\n            accounts[msg.sender].status == Status.Active &&\n            (accounts[msg.sender].role == UserRole.Admin || accounts[msg.sender].role == UserRole.LevelOne) ||\n            msg.sender == superAdminAddress, \"Not an active Level 1 User\");\n            _;\n    }\n\n    modifier onlyLevelTwo() {\n        require(\n            accounts[msg.sender].status == Status.Active && \n            (accounts[msg.sender].role == UserRole.Admin || accounts[msg.sender].role == UserRole.LevelOne || accounts[msg.sender].role == UserRole.LevelTwo) || \n            msg.sender == superAdminAddress, \n            \"Not an active Level 2 User\"\n        );\n        _;\n    }\n    //done\n    function login(string memory _username) public view returns (string memory) {\n        address _account = msg.sender;\n\n        if (_account == superAdminAddress && keccak256(abi.encodePacked(_username)) == keccak256(abi.encodePacked(superAdminUsername))) {\n            return \"Welcome SuperAdmin\";\n        } else if (accounts[_account].accountAddress != address(0) && keccak256(abi.encodePacked(accounts[_account].username)) == keccak256(abi.encodePacked(_username))) {\n            if (accounts[_account].status == Status.Active) {\n                if (accounts[_account].role ==UserRole.Admin){\n                    return \"Welcome Admin\";\n                }else if (accounts[_account].role ==UserRole.LevelOne){\n                    return \"Welcome User\";\n                }else{\n                    return \"Welcome\";\n                }\n            } else {\n                return \"You cannot login, please contact Admin or SuperAdmin\";\n            }\n        }\n        return \"User not registered\";\n    }\n\n    function changeSuperAdmin(address _newSuperAdmin) public onlySuperAdmin {\n        require(_newSuperAdmin != address(0), \"Invalid new SuperAdmin address\");\n\n        address _oldSuperAdmin = superAdminAddress;\n        superAdminAddress = _newSuperAdmin;\n\n        emit SuperAdminChanged(_oldSuperAdmin, _newSuperAdmin);\n    }\n\n    function setGuidelineHash(string memory _guidelineHash) public onlySuperAdmin {\n        guidelineHash = _guidelineHash;\n    }\n\n    function updateGuidelineHash(string memory _newGuidelineHash) public onlySuperAdmin {\n        guidelineHash = _newGuidelineHash;\n        emit GuidelineHashUpdated(_newGuidelineHash, msg.sender);\n    }\n\n\n    //done\n    function addNewUser(string memory _name,uint256 _ID,address _accountAddress,string memory _username,Status _status,UserRole _role\n    ) public onlyAdmin returns (string memory) {\n        require(accounts[_accountAddress].accountAddress == address(0), \"User already exists\");\n\n        accounts[_accountAddress] = Account({\n            name: _name,\n            ID: _ID,\n            accountAddress: _accountAddress,\n            username: _username,\n            status: _status,\n            role: _role\n        });\n\n        accountIDs[_ID] = _accountAddress;\n        accountCount++;\n\n        return \"User created successfully\";\n    }\n    //done\n    function updateUser(uint256 _ID,string memory _name,address _accountAddress,string memory _username,Status _status,UserRole _role\n    ) public onlyAdmin returns (string memory) {\n        require(accounts[_accountAddress].accountAddress != address(0), \"User does not exist\");\n\n        accounts[_accountAddress].name = _name;\n        accounts[_accountAddress].ID = _ID;\n        accounts[_accountAddress].username = _username;\n        accounts[_accountAddress].status = _status;\n        accounts[_accountAddress].role = _role;\n\n        return \"User updated successfully\";\n    }\n\n\n    function addType(string memory _caseType, string memory _description, string memory _category, uint8 _level\n    ) public onlyLevelOne returns (string memory){\n            require(!caseType[_caseType], \"Case type already exists\");\n            types[_caseType] = Type({\n                caseType: _caseType,\n                description: _description,\n                category: _category,\n                level: _level\n            });\n            caseType[_caseType] = true;\n            typeCount++;\n            return \"Type added successfully\";\n    }\n\n    function addCase(string memory _caseTitle,uint256 _caseID,string memory _caseType,string memory _reportHash) \n    public onlyLevelOne returns (string memory) {\n        require(bytes(types[_caseType].caseType).length != 0, \"Case type does not exist\");\n        require(cases[_caseID].caseID == 0, \"Case ID already exists\");\n        cases[_caseID] = Case({\n            caseTitle: _caseTitle,\n            caseID: _caseID,\n            caseType: _caseType,\n            reportHash: _reportHash,\n            addedBy: msg.sender,\n            status: Status.Active\n        });\n        caseCount++;\n        return \"Case added successfully\";\n    }\n\n    //done\n    function updateCaseStatus(uint256 _caseID, Status _status) \n    public onlyLevelOne {\n        require(cases[_caseID].caseID != 0, \"Case does not exist\");\n\n        cases[_caseID].status = _status;\n    }\n    //done\n    function addEvidence(uint256 _caseID, string memory _evidenceType, string memory _evidenceHash) \n    public onlyLevelTwo returns (string memory) {\n        require(cases[_caseID].caseID != 0, \"Case does not exist\");\n        Evidence memory newEvidence = Evidence({\n            caseID: _caseID,\n            evidenceType: _evidenceType,\n            evidenceHash: _evidenceHash,\n            addedBy: msg.sender,\n            status: Status.Active\n        });\n\n        caseEvidence[_caseID].push(newEvidence);\n        evidenceCount++;\n        return \"Evidence added successfully\";\n    }\n    //done\n    function updateEvidenceStatus(uint256 _caseID, uint256 _evidenceIndex, Status _status) \n    public onlyLevelOne {\n        require(cases[_caseID].caseID != 0, \"Case does not exist\");\n        require(_evidenceIndex < caseEvidence[_caseID].length, \"Invalid evidence index\");\n\n        caseEvidence[_caseID][_evidenceIndex].status = _status;\n    }\n    //done\n    function getEvidenceByCaseID(uint256 _caseID) \n    public onlyLevelOne view returns (Evidence[] memory) {\n        require(cases[_caseID].caseID != 0, \"Case does not exist\");\n        return caseEvidence[_caseID];\n    }\n    \n    //done\n    function getUserByID(uint256 _ID) \n    public view onlyLevelOne returns (Account memory) {\n        address userAddress = accountIDs[_ID];\n        require(userAddress != address(0), \"Admin not found\");\n        require(accounts[userAddress].role == UserRole.LevelOne ||\n        accounts[userAddress].role == UserRole.LevelTwo, \"Not an user\");\n\n        return accounts[userAddress];\n    }\n    //done\n    function getAdminByID(uint256 _ID) \n    public view onlyAdmin returns (Account memory) {\n        address adminAddress = accountIDs[_ID];\n        require(adminAddress != address(0), \"Admin not found\");\n        require(accounts[adminAddress].role == UserRole.Admin, \"Not an admin\");\n\n        return accounts[adminAddress];\n    }\n\n    function addressToIndex(uint256 _id) private view returns (address) {\n        return accountIDs[_id];\n    }\n}\n",
  "sourcePath": "/home/juthindu/Blockchsin/11/contracts/SecureEvidence.sol",
  "compiler": {
    "name": "solc",
    "version": "0.8.26+commit.8a97fa7a.Emscripten.clang"
  },
  "schemaVersion": "3.4.16",
  "updatedAt": "2024-06-08T17:46:59.369Z",
  "networkType": "ethereum",
  "devdoc": {
    "kind": "dev",
    "methods": {},
    "version": 1
  },
  "userdoc": {
    "kind": "user",
    "methods": {},
    "version": 1
  }
}