{
  "contractName": "SecureEvidence",
  "abi": [
    {
      "anonymous": false,
      "inputs": [
        {
          "indexed": false,
          "internalType": "string",
          "name": "newGuidelineHash",
          "type": "string"
        },
        {
          "indexed": false,
          "internalType": "address",
          "name": "updatedBy",
          "type": "address"
        }
      ],
      "name": "GuidelineHashUpdated",
      "type": "event"
    },
    {
      "anonymous": false,
      "inputs": [
        {
          "indexed": false,
          "internalType": "address",
          "name": "oldSuperAdmin",
          "type": "address"
        },
        {
          "indexed": false,
          "internalType": "address",
          "name": "newSuperAdmin",
          "type": "address"
        }
      ],
      "name": "SuperAdminChanged",
      "type": "event"
    },
    {
      "inputs": [],
      "name": "accountCount",
      "outputs": [
        {
          "internalType": "uint256",
          "name": "",
          "type": "uint256"
        }
      ],
      "stateMutability": "view",
      "type": "function",
      "constant": true
    },
    {
      "inputs": [],
      "name": "caseCount",
      "outputs": [
        {
          "internalType": "uint256",
          "name": "",
          "type": "uint256"
        }
      ],
      "stateMutability": "view",
      "type": "function",
      "constant": true
    },
    {
      "inputs": [
        {
          "internalType": "uint256",
          "name": "",
          "type": "uint256"
        },
        {
          "internalType": "uint256",
          "name": "",
          "type": "uint256"
        }
      ],
      "name": "caseEvidence",
      "outputs": [
        {
          "internalType": "uint256",
          "name": "caseID",
          "type": "uint256"
        },
        {
          "internalType": "string",
          "name": "evidenceType",
          "type": "string"
        },
        {
          "internalType": "string",
          "name": "evidenceHash",
          "type": "string"
        },
        {
          "internalType": "address",
          "name": "addedBy",
          "type": "address"
        },
        {
          "internalType": "enum SecureEvidence.Status",
          "name": "status",
          "type": "uint8"
        }
      ],
      "stateMutability": "view",
      "type": "function",
      "constant": true
    },
    {
      "inputs": [
        {
          "internalType": "uint256",
          "name": "",
          "type": "uint256"
        }
      ],
      "name": "cases",
      "outputs": [
        {
          "internalType": "string",
          "name": "caseTitle",
          "type": "string"
        },
        {
          "internalType": "uint256",
          "name": "caseID",
          "type": "uint256"
        },
        {
          "internalType": "string",
          "name": "caseType",
          "type": "string"
        },
        {
          "internalType": "string",
          "name": "reportHash",
          "type": "string"
        },
        {
          "internalType": "address",
          "name": "addedBy",
          "type": "address"
        },
        {
          "internalType": "enum SecureEvidence.Status",
          "name": "status",
          "type": "uint8"
        }
      ],
      "stateMutability": "view",
      "type": "function",
      "constant": true
    },
    {
      "inputs": [],
      "name": "evidenceCount",
      "outputs": [
        {
          "internalType": "uint256",
          "name": "",
          "type": "uint256"
        }
      ],
      "stateMutability": "view",
      "type": "function",
      "constant": true
    },
    {
      "inputs": [],
      "name": "guidelineHash",
      "outputs": [
        {
          "internalType": "string",
          "name": "",
          "type": "string"
        }
      ],
      "stateMutability": "view",
      "type": "function",
      "constant": true
    },
    {
      "inputs": [],
      "name": "typeCount",
      "outputs": [
        {
          "internalType": "uint256",
          "name": "",
          "type": "uint256"
        }
      ],
      "stateMutability": "view",
      "type": "function",
      "constant": true
    },
    {
      "inputs": [
        {
          "internalType": "string",
          "name": "",
          "type": "string"
        }
      ],
      "name": "types",
      "outputs": [
        {
          "internalType": "string",
          "name": "caseType",
          "type": "string"
        },
        {
          "internalType": "string",
          "name": "description",
          "type": "string"
        },
        {
          "internalType": "string",
          "name": "category",
          "type": "string"
        },
        {
          "internalType": "uint8",
          "name": "level",
          "type": "uint8"
        }
      ],
      "stateMutability": "view",
      "type": "function",
      "constant": true
    },
    {
      "inputs": [
        {
          "internalType": "string",
          "name": "_username",
          "type": "string"
        }
      ],
      "name": "login",
      "outputs": [
        {
          "internalType": "string",
          "name": "",
          "type": "string"
        }
      ],
      "stateMutability": "view",
      "type": "function",
      "constant": true
    },
    {
      "inputs": [
        {
          "internalType": "address",
          "name": "_newSuperAdmin",
          "type": "address"
        }
      ],
      "name": "changeSuperAdmin",
      "outputs": [],
      "stateMutability": "nonpayable",
      "type": "function"
    },
    {
      "inputs": [
        {
          "internalType": "string",
          "name": "_guidelineHash",
          "type": "string"
        }
      ],
      "name": "setGuidelineHash",
      "outputs": [],
      "stateMutability": "nonpayable",
      "type": "function"
    },
    {
      "inputs": [
        {
          "internalType": "string",
          "name": "_newGuidelineHash",
          "type": "string"
        }
      ],
      "name": "updateGuidelineHash",
      "outputs": [],
      "stateMutability": "nonpayable",
      "type": "function"
    },
    {
      "inputs": [
        {
          "internalType": "string",
          "name": "_name",
          "type": "string"
        },
        {
          "internalType": "uint256",
          "name": "_ID",
          "type": "uint256"
        },
        {
          "internalType": "address",
          "name": "_accountAddress",
          "type": "address"
        },
        {
          "internalType": "string",
          "name": "_username",
          "type": "string"
        },
        {
          "internalType": "enum SecureEvidence.Status",
          "name": "_status",
          "type": "uint8"
        },
        {
          "internalType": "enum SecureEvidence.UserRole",
          "name": "_role",
          "type": "uint8"
        }
      ],
      "name": "addNewUser",
      "outputs": [
        {
          "internalType": "string",
          "name": "",
          "type": "string"
        }
      ],
      "stateMutability": "nonpayable",
      "type": "function"
    },
    {
      "inputs": [
        {
          "internalType": "uint256",
          "name": "_ID",
          "type": "uint256"
        },
        {
          "internalType": "string",
          "name": "_name",
          "type": "string"
        },
        {
          "internalType": "address",
          "name": "_accountAddress",
          "type": "address"
        },
        {
          "internalType": "string",
          "name": "_username",
          "type": "string"
        },
        {
          "internalType": "enum SecureEvidence.Status",
          "name": "_status",
          "type": "uint8"
        },
        {
          "internalType": "enum SecureEvidence.UserRole",
          "name": "_role",
          "type": "uint8"
        }
      ],
      "name": "updateUser",
      "outputs": [
        {
          "internalType": "string",
          "name": "",
          "type": "string"
        }
      ],
      "stateMutability": "nonpayable",
      "type": "function"
    },
    {
      "inputs": [
        {
          "internalType": "string",
          "name": "_caseType",
          "type": "string"
        },
        {
          "internalType": "string",
          "name": "_description",
          "type": "string"
        },
        {
          "internalType": "string",
          "name": "_category",
          "type": "string"
        },
        {
          "internalType": "uint8",
          "name": "_level",
          "type": "uint8"
        }
      ],
      "name": "addType",
      "outputs": [
        {
          "internalType": "string",
          "name": "",
          "type": "string"
        }
      ],
      "stateMutability": "nonpayable",
      "type": "function"
    },
    {
      "inputs": [
        {
          "internalType": "string",
          "name": "_caseTitle",
          "type": "string"
        },
        {
          "internalType": "uint256",
          "name": "_caseID",
          "type": "uint256"
        },
        {
          "internalType": "string",
          "name": "_caseType",
          "type": "string"
        },
        {
          "internalType": "string",
          "name": "_reportHash",
          "type": "string"
        }
      ],
      "name": "addCase",
      "outputs": [
        {
          "internalType": "string",
          "name": "",
          "type": "string"
        }
      ],
      "stateMutability": "nonpayable",
      "type": "function"
    },
    {
      "inputs": [
        {
          "internalType": "string",
          "name": "_caseType",
          "type": "string"
        }
      ],
      "name": "getCaseByType",
      "outputs": [
        {
          "components": [
            {
              "internalType": "string",
              "name": "caseTitle",
              "type": "string"
            },
            {
              "internalType": "uint256",
              "name": "caseID",
              "type": "uint256"
            },
            {
              "internalType": "string",
              "name": "caseType",
              "type": "string"
            },
            {
              "internalType": "string",
              "name": "reportHash",
              "type": "string"
            },
            {
              "internalType": "address",
              "name": "addedBy",
              "type": "address"
            },
            {
              "internalType": "enum SecureEvidence.Status",
              "name": "status",
              "type": "uint8"
            }
          ],
          "internalType": "struct SecureEvidence.Case[]",
          "name": "",
          "type": "tuple[]"
        }
      ],
      "stateMutability": "view",
      "type": "function",
      "constant": true
    },
    {
      "inputs": [
        {
          "internalType": "uint256",
          "name": "_caseID",
          "type": "uint256"
        },
        {
          "internalType": "uint256",
          "name": "_caseTypeIndex",
          "type": "uint256"
        },
        {
          "internalType": "string",
          "name": "_caseType",
          "type": "string"
        },
        {
          "internalType": "enum SecureEvidence.Status",
          "name": "_status",
          "type": "uint8"
        }
      ],
      "name": "updateCaseStatus",
      "outputs": [],
      "stateMutability": "nonpayable",
      "type": "function"
    },
    {
      "inputs": [
        {
          "internalType": "uint256",
          "name": "_caseID",
          "type": "uint256"
        },
        {
          "internalType": "string",
          "name": "_evidenceType",
          "type": "string"
        },
        {
          "internalType": "string",
          "name": "_evidenceHash",
          "type": "string"
        }
      ],
      "name": "addEvidence",
      "outputs": [
        {
          "internalType": "string",
          "name": "",
          "type": "string"
        }
      ],
      "stateMutability": "nonpayable",
      "type": "function"
    },
    {
      "inputs": [
        {
          "internalType": "uint256",
          "name": "_caseID",
          "type": "uint256"
        },
        {
          "internalType": "uint256",
          "name": "_evidenceIndex",
          "type": "uint256"
        },
        {
          "internalType": "enum SecureEvidence.Status",
          "name": "_status",
          "type": "uint8"
        }
      ],
      "name": "updateEvidenceStatus",
      "outputs": [],
      "stateMutability": "nonpayable",
      "type": "function"
    },
    {
      "inputs": [
        {
          "internalType": "uint256",
          "name": "_caseID",
          "type": "uint256"
        }
      ],
      "name": "getEvidenceByCaseID",
      "outputs": [
        {
          "components": [
            {
              "internalType": "uint256",
              "name": "caseID",
              "type": "uint256"
            },
            {
              "internalType": "string",
              "name": "evidenceType",
              "type": "string"
            },
            {
              "internalType": "string",
              "name": "evidenceHash",
              "type": "string"
            },
            {
              "internalType": "address",
              "name": "addedBy",
              "type": "address"
            },
            {
              "internalType": "enum SecureEvidence.Status",
              "name": "status",
              "type": "uint8"
            }
          ],
          "internalType": "struct SecureEvidence.Evidence[]",
          "name": "",
          "type": "tuple[]"
        }
      ],
      "stateMutability": "view",
      "type": "function",
      "constant": true
    },
    {
      "inputs": [
        {
          "internalType": "uint256",
          "name": "_ID",
          "type": "uint256"
        }
      ],
      "name": "getUserByID",
      "outputs": [
        {
          "components": [
            {
              "internalType": "string",
              "name": "name",
              "type": "string"
            },
            {
              "internalType": "uint256",
              "name": "ID",
              "type": "uint256"
            },
            {
              "internalType": "address",
              "name": "accountAddress",
              "type": "address"
            },
            {
              "internalType": "string",
              "name": "username",
              "type": "string"
            },
            {
              "internalType": "enum SecureEvidence.Status",
              "name": "status",
              "type": "uint8"
            },
            {
              "internalType": "enum SecureEvidence.UserRole",
              "name": "role",
              "type": "uint8"
            }
          ],
          "internalType": "struct SecureEvidence.Account",
          "name": "",
          "type": "tuple"
        }
      ],
      "stateMutability": "view",
      "type": "function",
      "constant": true
    },
    {
      "inputs": [
        {
          "internalType": "uint256",
          "name": "_ID",
          "type": "uint256"
        }
      ],
      "name": "getAdminByID",
      "outputs": [
        {
          "components": [
            {
              "internalType": "string",
              "name": "name",
              "type": "string"
            },
            {
              "internalType": "uint256",
              "name": "ID",
              "type": "uint256"
            },
            {
              "internalType": "address",
              "name": "accountAddress",
              "type": "address"
            },
            {
              "internalType": "string",
              "name": "username",
              "type": "string"
            },
            {
              "internalType": "enum SecureEvidence.Status",
              "name": "status",
              "type": "uint8"
            },
            {
              "internalType": "enum SecureEvidence.UserRole",
              "name": "role",
              "type": "uint8"
            }
          ],
          "internalType": "struct SecureEvidence.Account",
          "name": "",
          "type": "tuple"
        }
      ],
      "stateMutability": "view",
      "type": "function",
      "constant": true
    }
  ],
  "bytecode": "0x600080546001600160a01b03191673f560f40c5dee962dfbf33b0006e86138c9195f9017905560c0604052600a60809081526929bab832b920b236b4b760b11b60a05260019061004f9082610101565b5034801561005c57600080fd5b506101bf565b634e487b7160e01b600052604160045260246000fd5b600181811c9082168061008c57607f821691505b6020821081036100ac57634e487b7160e01b600052602260045260246000fd5b50919050565b601f8211156100fc57806000526020600020601f840160051c810160208510156100d95750805b601f840160051c820191505b818110156100f957600081556001016100e5565b50505b505050565b81516001600160401b0381111561011a5761011a610062565b61012e816101288454610078565b846100b2565b6020601f821160018114610162576000831561014a5750848201515b600019600385901b1c1916600184901b1784556100f9565b600084815260208120601f198516915b828110156101925787850151825560209485019460019092019101610172565b50848210156101b05786840151600019600387901b60f8161c191681555b50505050600190811b01905550565b613640806101ce6000396000f3fe608060405234801561001057600080fd5b506004361061014d5760003560e01c80637ecba1a9116100c3578063ce4fd42f1161007c578063ce4fd42f146102d7578063d06c2883146102ea578063da2d7e95146102fd578063e30c3ba714610306578063e4af29fc14610326578063f09790dd1461032f57600080fd5b80637ecba1a91461026d578063832581e81461028d5780639f67c3bf14610295578063a2ed5af0146102a8578063a4f56830146102b1578063b90e9c50146102c457600080fd5b80633a92f489116101155780633a92f489146101e457806341858c4b1461020857806341d48cd21461021d578063602d7fe6146102305780636d3b5f1814610247578063703cfe4b1461025a57600080fd5b80630515f315146101525780631002078b1461017b5780631334ee301461019b57806331ba8c0e146101ae5780633a7d280c146101d1575b600080fd5b610165610160366004612b61565b610354565b6040516101729190612c52565b60405180910390f35b61018e610189366004612c6c565b6105e5565b6040516101729190612caf565b6101656101a9366004612d3f565b610951565b6101c16101bc366004612de9565b610baa565b6040516101729493929190612e25565b6101656101df366004612de9565b610d78565b6101f76101f2366004612e73565b611028565b604051610172959493929190612e95565b61021b610216366004612ee0565b61119b565b005b61021b61022b366004612de9565b61127c565b610239600c5481565b604051908152602001610172565b61018e610255366004612c6c565b6112b6565b610165610268366004612efb565b6114c1565b61028061027b366004612de9565b6116c4565b6040516101729190612f4c565b610165611af0565b6101656102a3366004613023565b611b7e565b610239600d5481565b6101656102bf3660046130be565b611f3b565b61021b6102d236600461312e565b6121bb565b61021b6102e5366004612de9565b612369565b61021b6102f8366004613163565b6123dc565b610239600b5481565b610319610314366004612c6c565b6125e1565b60405161017291906131c3565b610239600a5481565b61034261033d366004612c6c565b6128ad565b60405161017296959493929190613274565b606060013360009081526002602052604090206004015460ff16600181111561037f5761037f612c85565b1480156103b65750336000908152600260208190526040822060040154610100900460ff16908111156103b4576103b4612c85565b145b806103cb57506000546001600160a01b031633145b6103f05760405162461bcd60e51b81526004016103e7906132de565b60405180910390fd5b6001600160a01b038581166000908152600260208190526040909120015416156104525760405162461bcd60e51b81526020600482015260136024820152725573657220616c72656164792065786973747360681b60448201526064016103e7565b6040518060c00160405280888152602001878152602001866001600160a01b0316815260200185815260200184600181111561049057610490612c85565b81526020018360028111156104a7576104a7612c85565b90526001600160a01b0386166000908152600260205260409020815181906104cf9082613394565b506020820151600182015560408201516002820180546001600160a01b0319166001600160a01b03909216919091179055606082015160038201906105149082613394565b50608082015160048201805460ff19166001838181111561053757610537612c85565b021790555060a082015160048201805461ff00191661010083600281111561056157610561612c85565b02179055505050600086815260036020526040812080546001600160a01b0319166001600160a01b038816179055600a80549161059d83613452565b91905055506040518060400160405280601981526020017f557365722063726561746564207375636365737366756c6c790000000000000081525090505b9695505050505050565b61061c6040805160c08101825260608082526000602083018190529282018390528082015290608082019081526020016000905290565b60013360009081526002602052604090206004015460ff16600181111561064557610645612c85565b14801561067c5750336000908152600260208190526040822060040154610100900460ff169081111561067a5761067a612c85565b145b8061069157506000546001600160a01b031633145b6106ad5760405162461bcd60e51b81526004016103e7906132de565b6000828152600360205260409020546001600160a01b0316806107045760405162461bcd60e51b815260206004820152600f60248201526e10591b5a5b881b9bdd08199bdd5b99608a1b60448201526064016103e7565b6001600160a01b0381166000908152600260208190526040822060040154610100900460ff169081111561073a5761073a612c85565b146107765760405162461bcd60e51b815260206004820152600c60248201526b2737ba1030b71030b236b4b760a11b60448201526064016103e7565b6001600160a01b03811660009081526002602052604090819020815160c081019092528054829082906107a89061330b565b80601f01602080910402602001604051908101604052809291908181526020018280546107d49061330b565b80156108215780601f106107f657610100808354040283529160200191610821565b820191906000526020600020905b81548152906001019060200180831161080457829003601f168201915b50505091835250506001820154602082015260028201546001600160a01b0316604082015260038201805460609092019161085b9061330b565b80601f01602080910402602001604051908101604052809291908181526020018280546108879061330b565b80156108d45780601f106108a9576101008083540402835291602001916108d4565b820191906000526020600020905b8154815290600101906020018083116108b757829003601f168201915b5050509183525050600482015460209091019060ff1660018111156108fb576108fb612c85565b600181111561090c5761090c612c85565b81526020016004820160019054906101000a900460ff16600281111561093457610934612c85565b600281111561094557610945612c85565b9052509150505b919050565b606060013360009081526002602052604090206004015460ff16600181111561097c5761097c612c85565b1480156109ea5750336000908152600260208190526040822060040154610100900460ff16908111156109b1576109b1612c85565b14806109ea5750600133600090815260026020819052604090912060040154610100900460ff16908111156109e8576109e8612c85565b145b806109ff57506000546001600160a01b031633145b610a1b5760405162461bcd60e51b81526004016103e790613479565b600585604051610a2b91906134b0565b9081526040519081900360200190205460ff1615610a8b5760405162461bcd60e51b815260206004820152601860248201527f43617365207479706520616c726561647920657869737473000000000000000060448201526064016103e7565b60405180608001604052808681526020018581526020018481526020018360ff16815250600786604051610abf91906134b0565b90815260405190819003602001902081518190610adc9082613394565b5060208201516001820190610af19082613394565b5060408201516002820190610b069082613394565b50606091909101516003909101805460ff191660ff909216919091179055604051600190600590610b389088906134b0565b908152604051908190036020019020805491151560ff19909216919091179055600c8054906000610b6883613452565b909155505060408051808201909152601781527f54797065206164646564207375636365737366756c6c79000000000000000000602082015295945050505050565b8051602081830181018051600782529282019190930120915280548190610bd09061330b565b80601f0160208091040260200160405190810160405280929190818152602001828054610bfc9061330b565b8015610c495780601f10610c1e57610100808354040283529160200191610c49565b820191906000526020600020905b815481529060010190602001808311610c2c57829003601f168201915b505050505090806001018054610c5e9061330b565b80601f0160208091040260200160405190810160405280929190818152602001828054610c8a9061330b565b8015610cd75780601f10610cac57610100808354040283529160200191610cd7565b820191906000526020600020905b815481529060010190602001808311610cba57829003601f168201915b505050505090806002018054610cec9061330b565b80601f0160208091040260200160405190810160405280929190818152602001828054610d189061330b565b8015610d655780601f10610d3a57610100808354040283529160200191610d65565b820191906000526020600020905b815481529060010190602001808311610d4857829003601f168201915b5050506003909301549192505060ff1684565b60005460609033906001600160a01b031681148015610de357506001604051602001610da491906134cc565b6040516020818303038152906040528051906020012083604051602001610dcb91906134b0565b60405160208183030381529060405280519060200120145b15610e185750506040805180820190915260128152712bb2b631b7b6b29029bab832b920b236b4b760711b6020820152919050565b6001600160a01b03818116600090815260026020819052604090912001541615801590610ea8575082604051602001610e5191906134b0565b60408051601f1981840301815282825280516020918201206001600160a01b038516600090815260028352929092209192610e909260030191016134cc565b60405160208183030381529060405280519060200120145b15610ff75760016001600160a01b03821660009081526002602052604090206004015460ff166001811115610edf57610edf612c85565b03610fd7576001600160a01b0381166000908152600260208190526040822060040154610100900460ff1690811115610f1a57610f1a612c85565b03610f4a57505060408051808201909152600d81526c2bb2b631b7b6b29020b236b4b760991b6020820152919050565b60016001600160a01b038216600090815260026020819052604090912060040154610100900460ff1690811115610f8357610f83612c85565b03610fb257505060408051808201909152600c81526b2bb2b631b7b6b2902ab9b2b960a11b6020820152919050565b505060408051808201909152600781526657656c636f6d6560c81b6020820152919050565b6040518060600160405280603481526020016135d7603491399392505050565b5050604080518082019091526013815272155cd95c881b9bdd081c9959da5cdd195c9959606a1b6020820152919050565b6008602052816000526040600020818154811061104457600080fd5b90600052602060002090600402016000915091505080600001549080600101805461106e9061330b565b80601f016020809104026020016040519081016040528092919081815260200182805461109a9061330b565b80156110e75780601f106110bc576101008083540402835291602001916110e7565b820191906000526020600020905b8154815290600101906020018083116110ca57829003601f168201915b5050505050908060020180546110fc9061330b565b80601f01602080910402602001604051908101604052809291908181526020018280546111289061330b565b80156111755780601f1061114a57610100808354040283529160200191611175565b820191906000526020600020905b81548152906001019060200180831161115857829003601f168201915b505050600390930154919250506001600160a01b0381169060ff600160a01b9091041685565b6000546001600160a01b031633146111c55760405162461bcd60e51b81526004016103e790613541565b6001600160a01b03811661121b5760405162461bcd60e51b815260206004820152601e60248201527f496e76616c6964206e657720537570657241646d696e2061646472657373000060448201526064016103e7565b600080546001600160a01b038381166001600160a01b031983168117909355604080519190921680825260208201939093527f6a7fb6694616d75391385b86c21a1cc2628072753f9c7da9731e7b1b083a55e4910160405180910390a15050565b6000546001600160a01b031633146112a65760405162461bcd60e51b81526004016103e790613541565b600e6112b28282613394565b5050565b6112ed6040805160c08101825260608082526000602083018190529282018390528082015290608082019081526020016000905290565b60013360009081526002602052604090206004015460ff16600181111561131657611316612c85565b1480156113845750336000908152600260208190526040822060040154610100900460ff169081111561134b5761134b612c85565b14806113845750600133600090815260026020819052604090912060040154610100900460ff169081111561138257611382612c85565b145b8061139957506000546001600160a01b031633145b6113b55760405162461bcd60e51b81526004016103e790613479565b6000828152600360205260409020546001600160a01b03168061140c5760405162461bcd60e51b815260206004820152600f60248201526e10591b5a5b881b9bdd08199bdd5b99608a1b60448201526064016103e7565b60016001600160a01b038216600090815260026020819052604090912060040154610100900460ff169081111561144557611445612c85565b1480611487575060026001600160a01b038216600090815260026020819052604090912060040154610100900460ff169081111561148557611485612c85565b145b6107765760405162461bcd60e51b815260206004820152600b60248201526a2737ba1030b7103ab9b2b960a91b60448201526064016103e7565b606060013360009081526002602052604090206004015460ff1660018111156114ec576114ec612c85565b1480156115235750336000908152600260208190526040822060040154610100900460ff169081111561152157611521612c85565b145b8061153857506000546001600160a01b031633145b6115545760405162461bcd60e51b81526004016103e7906132de565b6001600160a01b0385811660009081526002602081905260409091200154166115b55760405162461bcd60e51b8152602060048201526013602482015272155cd95c88191bd95cc81b9bdd08195e1a5cdd606a1b60448201526064016103e7565b6001600160a01b03851660009081526002602052604090206115d78782613394565b506001600160a01b0385166000908152600260205260409020600181018890556003016116048582613394565b506001600160a01b0385166000908152600260205260409020600401805484919060ff19166001838181111561163c5761163c612c85565b02179055506001600160a01b03851660009081526002602081905260409091206004018054849261ff00199091169061010090849081111561168057611680612c85565b02179055505060408051808201909152601981527f557365722075706461746564207375636365737366756c6c790000000000000060208201529695505050505050565b606060013360009081526002602052604090206004015460ff1660018111156116ef576116ef612c85565b1480156117955750336000908152600260208190526040822060040154610100900460ff169081111561172457611724612c85565b148061175d5750600133600090815260026020819052604090912060040154610100900460ff169081111561175b5761175b612c85565b145b806117955750600233600090815260026020819052604090912060040154610100900460ff169081111561179357611793612c85565b145b806117aa57506000546001600160a01b031633145b6117f65760405162461bcd60e51b815260206004820152601a60248201527f4e6f7420616e20616374697665204c6576656c2032205573657200000000000060448201526064016103e7565b60078260405161180691906134b0565b90815260405190819003602001902080546118209061330b565b905060000361186c5760405162461bcd60e51b815260206004820152601860248201527710d85cd9481d1e5c1948191bd95cc81b9bdd08195e1a5cdd60421b60448201526064016103e7565b60098260405161187c91906134b0565b9081526020016040518091039020805480602002602001604051908101604052809291908181526020016000905b82821015611ae557838290600052602060002090600502016040518060c00160405290816000820180546118dd9061330b565b80601f01602080910402602001604051908101604052809291908181526020018280546119099061330b565b80156119565780601f1061192b57610100808354040283529160200191611956565b820191906000526020600020905b81548152906001019060200180831161193957829003601f168201915b50505050508152602001600182015481526020016002820180546119799061330b565b80601f01602080910402602001604051908101604052809291908181526020018280546119a59061330b565b80156119f25780601f106119c7576101008083540402835291602001916119f2565b820191906000526020600020905b8154815290600101906020018083116119d557829003601f168201915b50505050508152602001600382018054611a0b9061330b565b80601f0160208091040260200160405190810160405280929190818152602001828054611a379061330b565b8015611a845780601f10611a5957610100808354040283529160200191611a84565b820191906000526020600020905b815481529060010190602001808311611a6757829003601f168201915b505050918352505060048201546001600160a01b0381166020830152604090910190600160a01b900460ff166001811115611ac157611ac1612c85565b6001811115611ad257611ad2612c85565b81525050815260200190600101906118aa565b505050509050919050565b600e8054611afd9061330b565b80601f0160208091040260200160405190810160405280929190818152602001828054611b299061330b565b8015611b765780601f10611b4b57610100808354040283529160200191611b76565b820191906000526020600020905b815481529060010190602001808311611b5957829003601f168201915b505050505081565b606060013360009081526002602052604090206004015460ff166001811115611ba957611ba9612c85565b148015611c175750336000908152600260208190526040822060040154610100900460ff1690811115611bde57611bde612c85565b1480611c175750600133600090815260026020819052604090912060040154610100900460ff1690811115611c1557611c15612c85565b145b80611c2c57506000546001600160a01b031633145b611c485760405162461bcd60e51b81526004016103e790613479565b600783604051611c5891906134b0565b9081526040519081900360200190208054611c729061330b565b9050600003611cbe5760405162461bcd60e51b815260206004820152601860248201527710d85cd9481d1e5c1948191bd95cc81b9bdd08195e1a5cdd60421b60448201526064016103e7565b60008481526006602052604090206001015415611d165760405162461bcd60e51b81526020600482015260166024820152754361736520494420616c72656164792065786973747360501b60448201526064016103e7565b6040805160c081018252868152602081018690529081018490526060810183905233608082015260a0810160019052600085815260066020526040902081518190611d619082613394565b506020820151600182015560408201516002820190611d809082613394565b5060608201516003820190611d959082613394565b5060808201516004820180546001600160a01b039092166001600160a01b031983168117825560a0850151926001600160a81b03191617600160a01b836001811115611de357611de3612c85565b021790555050600b805491506000611dfa83613452565b90915550506040805160c0810182528681526020810186905280820185905260608101849052336080820152600160a08201529051600990611e3d9086906134b0565b908152604051602091819003820190208054600181018255600091825291902082518392600502909101908190611e749082613394565b506020820151600182015560408201516002820190611e939082613394565b5060608201516003820190611ea89082613394565b5060808201516004820180546001600160a01b039092166001600160a01b031983168117825560a0850151926001600160a81b03191617600160a01b836001811115611ef657611ef6612c85565b02179055505060408051808201909152601781527f43617365206164646564207375636365737366756c6c790000000000000000006020820152979650505050505050565b606060013360009081526002602052604090206004015460ff166001811115611f6657611f66612c85565b14801561200c5750336000908152600260208190526040822060040154610100900460ff1690811115611f9b57611f9b612c85565b1480611fd45750600133600090815260026020819052604090912060040154610100900460ff1690811115611fd257611fd2612c85565b145b8061200c5750600233600090815260026020819052604090912060040154610100900460ff169081111561200a5761200a612c85565b145b8061202157506000546001600160a01b031633145b61206d5760405162461bcd60e51b815260206004820152601a60248201527f4e6f7420616e20616374697665204c6576656c2032205573657200000000000060448201526064016103e7565b600084815260066020526040812060010154900361209d5760405162461bcd60e51b81526004016103e790613569565b6040805160a0810182528581526020808201868152828401869052336060840152600160808401819052600089815260088452948520805480830182559086529290942083516004909302019182555191928392908201906120ff9082613394565b50604082015160028201906121149082613394565b5060608201516003820180546001600160a01b039092166001600160a01b03198316811782556080850151926001600160a81b03191617600160a01b83600181111561216257612162612c85565b021790555050600d80549150600061217983613452565b909155505060408051808201909152601b81527f45766964656e6365206164646564207375636365737366756c6c790000000000602082015295945050505050565b60013360009081526002602052604090206004015460ff1660018111156121e4576121e4612c85565b1480156122525750336000908152600260208190526040822060040154610100900460ff169081111561221957612219612c85565b14806122525750600133600090815260026020819052604090912060040154610100900460ff169081111561225057612250612c85565b145b8061226757506000546001600160a01b031633145b6122835760405162461bcd60e51b81526004016103e790613479565b60008381526006602052604081206001015490036122b35760405162461bcd60e51b81526004016103e790613569565b60008381526008602052604090205482106123095760405162461bcd60e51b8152602060048201526016602482015275092dcecc2d8d2c840caecd2c8cadcc6ca40d2dcc8caf60531b60448201526064016103e7565b600083815260086020526040902080548291908490811061232c5761232c613596565b60009182526020909120600360049092020101805460ff60a01b1916600160a01b83600181111561235f5761235f612c85565b0217905550505050565b6000546001600160a01b031633146123935760405162461bcd60e51b81526004016103e790613541565b600e61239f8282613394565b507fc62ca91ca94c9146a6a839a13f5f2056e44cf023b56a2b19696bb251b13d64b281336040516123d19291906135ac565b60405180910390a150565b60013360009081526002602052604090206004015460ff16600181111561240557612405612c85565b1480156124735750336000908152600260208190526040822060040154610100900460ff169081111561243a5761243a612c85565b14806124735750600133600090815260026020819052604090912060040154610100900460ff169081111561247157612471612c85565b145b8061248857506000546001600160a01b031633145b6124a45760405162461bcd60e51b81526004016103e790613479565b60008481526006602052604081206001015490036124d45760405162461bcd60e51b81526004016103e790613569565b6009826040516124e491906134b0565b90815260405190819003602001902054831061253a5760405162461bcd60e51b8152602060048201526015602482015274092dcecc2d8d2c840c6c2e6caa8f2e0ca92dcc8caf605b1b60448201526064016103e7565b6000848152600660205260409020600401805482919060ff60a01b1916600160a01b83600181111561256e5761256e612c85565b02179055508060098360405161258491906134b0565b908152602001604051809103902084815481106125a3576125a3613596565b60009182526020909120600460059092020101805460ff60a01b1916600160a01b8360018111156125d6576125d6612c85565b021790555050505050565b606060013360009081526002602052604090206004015460ff16600181111561260c5761260c612c85565b14801561267a5750336000908152600260208190526040822060040154610100900460ff169081111561264157612641612c85565b148061267a5750600133600090815260026020819052604090912060040154610100900460ff169081111561267857612678612c85565b145b8061268f57506000546001600160a01b031633145b6126ab5760405162461bcd60e51b81526004016103e790613479565b60008281526006602052604081206001015490036126db5760405162461bcd60e51b81526004016103e790613569565b600082815260086020908152604080832080548251818502810185019093528083529193909284015b82821015611ae557838290600052602060002090600402016040518060a0016040529081600082015481526020016001820180546127419061330b565b80601f016020809104026020016040519081016040528092919081815260200182805461276d9061330b565b80156127ba5780601f1061278f576101008083540402835291602001916127ba565b820191906000526020600020905b81548152906001019060200180831161279d57829003601f168201915b505050505081526020016002820180546127d39061330b565b80601f01602080910402602001604051908101604052809291908181526020018280546127ff9061330b565b801561284c5780601f106128215761010080835404028352916020019161284c565b820191906000526020600020905b81548152906001019060200180831161282f57829003601f168201915b505050918352505060038201546001600160a01b0381166020830152604090910190600160a01b900460ff16600181111561288957612889612c85565b600181111561289a5761289a612c85565b8152505081526020019060010190612704565b6006602052600090815260409020805481906128c89061330b565b80601f01602080910402602001604051908101604052809291908181526020018280546128f49061330b565b80156129415780601f1061291657610100808354040283529160200191612941565b820191906000526020600020905b81548152906001019060200180831161292457829003601f168201915b50505050509080600101549080600201805461295c9061330b565b80601f01602080910402602001604051908101604052809291908181526020018280546129889061330b565b80156129d55780601f106129aa576101008083540402835291602001916129d5565b820191906000526020600020905b8154815290600101906020018083116129b857829003601f168201915b5050505050908060030180546129ea9061330b565b80601f0160208091040260200160405190810160405280929190818152602001828054612a169061330b565b8015612a635780601f10612a3857610100808354040283529160200191612a63565b820191906000526020600020905b815481529060010190602001808311612a4657829003601f168201915b505050600490930154919250506001600160a01b0381169060ff600160a01b9091041686565b634e487b7160e01b600052604160045260246000fd5b600082601f830112612ab057600080fd5b81356001600160401b03811115612ac957612ac9612a89565b604051601f8201601f19908116603f011681016001600160401b0381118282101715612af757612af7612a89565b604052818152838201602001851015612b0f57600080fd5b816020850160208301376000918101602001919091529392505050565b80356001600160a01b038116811461094c57600080fd5b80356002811061094c57600080fd5b80356003811061094c57600080fd5b60008060008060008060c08789031215612b7a57600080fd5b86356001600160401b03811115612b9057600080fd5b612b9c89828a01612a9f565b96505060208701359450612bb260408801612b2c565b935060608701356001600160401b03811115612bcd57600080fd5b612bd989828a01612a9f565b935050612be860808801612b43565b9150612bf660a08801612b52565b90509295509295509295565b60005b83811015612c1d578181015183820152602001612c05565b50506000910152565b60008151808452612c3e816020860160208601612c02565b601f01601f19169290920160200192915050565b602081526000612c656020830184612c26565b9392505050565b600060208284031215612c7e57600080fd5b5035919050565b634e487b7160e01b600052602160045260246000fd5b60028110612cab57612cab612c85565b9052565b602081526000825160c06020840152612ccb60e0840182612c26565b90506020840151604084015260018060a01b0360408501511660608401526060840151601f19848303016080850152612d048282612c26565b9150506080840151612d1960a0850182612c9b565b5060a084015160038110612d2f57612d2f612c85565b60c0939093019290925250919050565b60008060008060808587031215612d5557600080fd5b84356001600160401b03811115612d6b57600080fd5b612d7787828801612a9f565b94505060208501356001600160401b03811115612d9357600080fd5b612d9f87828801612a9f565b93505060408501356001600160401b03811115612dbb57600080fd5b612dc787828801612a9f565b925050606085013560ff81168114612dde57600080fd5b939692955090935050565b600060208284031215612dfb57600080fd5b81356001600160401b03811115612e1157600080fd5b612e1d84828501612a9f565b949350505050565b608081526000612e386080830187612c26565b8281036020840152612e4a8187612c26565b90508281036040840152612e5e8186612c26565b91505060ff8316606083015295945050505050565b60008060408385031215612e8657600080fd5b50508035926020909101359150565b85815260a060208201526000612eae60a0830187612c26565b8281036040840152612ec08187612c26565b6001600160a01b038616606085015291506105db90506080830184612c9b565b600060208284031215612ef257600080fd5b612c6582612b2c565b60008060008060008060c08789031215612f1457600080fd5b8635955060208701356001600160401b03811115612f3157600080fd5b612f3d89828a01612a9f565b955050612bb260408801612b2c565b6000602082016020835280845180835260408501915060408160051b86010192506020860160005b8281101561301757603f198786030184528151805160c08752612f9a60c0880182612c26565b90506020820151602088015260408201518782036040890152612fbd8282612c26565b91505060608201518782036060890152612fd78282612c26565b6080848101516001600160a01b0316908a015260a093840151939092506130019150880183612c9b565b9550506020938401939190910190600101612f74565b50929695505050505050565b6000806000806080858703121561303957600080fd5b84356001600160401b0381111561304f57600080fd5b61305b87828801612a9f565b9450506020850135925060408501356001600160401b0381111561307e57600080fd5b61308a87828801612a9f565b92505060608501356001600160401b038111156130a657600080fd5b6130b287828801612a9f565b91505092959194509250565b6000806000606084860312156130d357600080fd5b8335925060208401356001600160401b038111156130f057600080fd5b6130fc86828701612a9f565b92505060408401356001600160401b0381111561311857600080fd5b61312486828701612a9f565b9150509250925092565b60008060006060848603121561314357600080fd5b833592506020840135915061315a60408501612b43565b90509250925092565b6000806000806080858703121561317957600080fd5b843593506020850135925060408501356001600160401b0381111561319d57600080fd5b6131a987828801612a9f565b9250506131b860608601612b43565b905092959194509250565b6000602082016020835280845180835260408501915060408160051b86010192506020860160005b8281101561301757603f19878603018452815180518652602081015160a0602088015261321b60a0880182612c26565b9050604082015187820360408901526132348282612c26565b6060848101516001600160a01b0316908a01526080938401519390925061325e9150880183612c9b565b95505060209384019391909101906001016131eb565b60c08152600061328760c0830189612c26565b876020840152828103604084015261329f8188612c26565b905082810360608401526132b38187612c26565b6001600160a01b038616608085015291506132d3905060a0830184612c9b565b979650505050505050565b6020808252601390820152722737ba1030b71030b1ba34bb329020b236b4b760691b604082015260600190565b600181811c9082168061331f57607f821691505b60208210810361333f57634e487b7160e01b600052602260045260246000fd5b50919050565b601f82111561338f57806000526020600020601f840160051c8101602085101561336c5750805b601f840160051c820191505b8181101561338c5760008155600101613378565b50505b505050565b81516001600160401b038111156133ad576133ad612a89565b6133c1816133bb845461330b565b84613345565b6020601f8211600181146133f557600083156133dd5750848201515b600019600385901b1c1916600184901b17845561338c565b600084815260208120601f198516915b828110156134255787850151825560209485019460019092019101613405565b50848210156134435786840151600019600387901b60f8161c191681555b50505050600190811b01905550565b60006001820161347257634e487b7160e01b600052601160045260246000fd5b5060010190565b6020808252601a908201527f4e6f7420616e20616374697665204c6576656c20312055736572000000000000604082015260600190565b600082516134c2818460208701612c02565b9190910192915050565b60008083546134da8161330b565b6001821680156134f1576001811461350657613536565b60ff1983168652811515820286019350613536565b86600052602060002060005b8381101561352e57815488820152600190910190602001613512565b505081860193505b509195945050505050565b6020808252600e908201526d2737ba1029bab832b920b236b4b760911b604082015260600190565b60208082526013908201527210d85cd948191bd95cc81b9bdd08195e1a5cdd606a1b604082015260600190565b634e487b7160e01b600052603260045260246000fd5b6040815260006135bf6040830185612c26565b905060018060a01b0383166020830152939250505056fe596f752063616e6e6f74206c6f67696e2c20706c6561736520636f6e746163742041646d696e206f7220537570657241646d696ea2646970667358221220d3789545f65ddfdded004ef37403bb4837bfce693eff460aec4e4b75bd1dbf9e64736f6c634300081a0033",
  "immutableReferences": {},
  "source": "// SPDX-License-Identifier: MIT\npragma solidity ^0.8.0;\n\ncontract SecureEvidence {\n    address private superAdminAddress = 0xF560f40C5dEe962dFBf33b0006e86138c9195F90;\n    string private superAdminUsername = \"SuperAdmin\";\n\n    enum Status {Inactive, Active}\n    enum UserRole {Admin, LevelOne, LevelTwo}\n    event SuperAdminChanged(address oldSuperAdmin, address newSuperAdmin);\n    event GuidelineHashUpdated(string newGuidelineHash, address updatedBy);\n\n\n    struct Account {\n        string name;\n        uint256 ID;\n        address accountAddress;\n        string username;\n        Status status;\n        UserRole role;\n    }\n\n    struct Type {\n        string caseType;\n        string description;\n        string category;\n        uint8 level;\n    }\n\n\n    struct Case {\n        string caseTitle;\n        uint256 caseID;\n        string caseType;\n        string reportHash;\n        address addedBy;\n        Status status;\n    }\n\n    struct Evidence {\n        uint256 caseID;\n        string evidenceType;\n        string evidenceHash;\n        address addedBy;\n        Status status;\n    }\n\n    mapping(address => Account) private accounts;\n    mapping(uint256 => address) private accountIDs;\n    mapping(uint256 => bool) private evidenceIDs;\n    mapping(string => bool) private caseType;\n    mapping(uint256 => Case) public cases;\n    mapping(string => Type) public types;\n    mapping(uint256 => Evidence[]) public caseEvidence;\n    mapping(string => Case[]) private casesByType;\n\n\n    \n    uint256 public accountCount;\n    uint256 public caseCount;\n    uint256 public typeCount;\n    uint256 public evidenceCount;\n    string public  guidelineHash; \n\n    modifier onlySuperAdmin() {\n        require(msg.sender == superAdminAddress, \"Not SuperAdmin\");\n        _;\n    }\n\n    modifier onlyAdmin() {\n        require(accounts[msg.sender].status == Status.Active &&\n        accounts[msg.sender].role == UserRole.Admin ||\n        msg.sender == superAdminAddress, \"Not an active Admin\");\n        _;\n    }\n\n    modifier onlyLevelOne() {\n        require(\n            accounts[msg.sender].status == Status.Active &&\n            (accounts[msg.sender].role == UserRole.Admin || accounts[msg.sender].role == UserRole.LevelOne) ||\n            msg.sender == superAdminAddress, \"Not an active Level 1 User\");\n            _;\n    }\n\n    modifier onlyLevelTwo() {\n        require(\n            accounts[msg.sender].status == Status.Active && \n            (accounts[msg.sender].role == UserRole.Admin || accounts[msg.sender].role == UserRole.LevelOne || accounts[msg.sender].role == UserRole.LevelTwo) || \n            msg.sender == superAdminAddress, \n            \"Not an active Level 2 User\"\n        );\n        _;\n    }\n    //done\n    function login(string memory _username) public view returns (string memory) {\n        address _account = msg.sender;\n\n        if (_account == superAdminAddress && keccak256(abi.encodePacked(_username)) == keccak256(abi.encodePacked(superAdminUsername))) {\n            return \"Welcome SuperAdmin\";\n        } else if (accounts[_account].accountAddress != address(0) && keccak256(abi.encodePacked(accounts[_account].username)) == keccak256(abi.encodePacked(_username))) {\n            if (accounts[_account].status == Status.Active) {\n                if (accounts[_account].role ==UserRole.Admin){\n                    return \"Welcome Admin\";\n                }else if (accounts[_account].role ==UserRole.LevelOne){\n                    return \"Welcome User\";\n                }else{\n                    return \"Welcome\";\n                }\n            } else {\n                return \"You cannot login, please contact Admin or SuperAdmin\";\n            }\n        }\n        return \"User not registered\";\n    }\n\n    function changeSuperAdmin(address _newSuperAdmin) public onlySuperAdmin {\n        require(_newSuperAdmin != address(0), \"Invalid new SuperAdmin address\");\n\n        address _oldSuperAdmin = superAdminAddress;\n        superAdminAddress = _newSuperAdmin;\n\n        emit SuperAdminChanged(_oldSuperAdmin, _newSuperAdmin);\n    }\n\n    function setGuidelineHash(string memory _guidelineHash) public onlySuperAdmin {\n        guidelineHash = _guidelineHash;\n    }\n\n    function updateGuidelineHash(string memory _newGuidelineHash) public onlySuperAdmin {\n        guidelineHash = _newGuidelineHash;\n        emit GuidelineHashUpdated(_newGuidelineHash, msg.sender);\n    }\n\n\n    //done\n    function addNewUser(string memory _name,uint256 _ID,address _accountAddress,string memory _username,Status _status,UserRole _role\n    ) public onlyAdmin returns (string memory) {\n        require(accounts[_accountAddress].accountAddress == address(0), \"User already exists\");\n\n        accounts[_accountAddress] = Account({\n            name: _name,\n            ID: _ID,\n            accountAddress: _accountAddress,\n            username: _username,\n            status: _status,\n            role: _role\n        });\n\n        accountIDs[_ID] = _accountAddress;\n        accountCount++;\n\n        return \"User created successfully\";\n    }\n    //done\n    function updateUser(uint256 _ID,string memory _name,address _accountAddress,string memory _username,Status _status,UserRole _role\n    ) public onlyAdmin returns (string memory) {\n        require(accounts[_accountAddress].accountAddress != address(0), \"User does not exist\");\n\n        accounts[_accountAddress].name = _name;\n        accounts[_accountAddress].ID = _ID;\n        accounts[_accountAddress].username = _username;\n        accounts[_accountAddress].status = _status;\n        accounts[_accountAddress].role = _role;\n\n        return \"User updated successfully\";\n    }\n\n\n    function addType(string memory _caseType, string memory _description, string memory _category, uint8 _level\n    ) public onlyLevelOne returns (string memory){\n            require(!caseType[_caseType], \"Case type already exists\");\n            types[_caseType] = Type({\n                caseType: _caseType,\n                description: _description,\n                category: _category,\n                level: _level\n            });\n            caseType[_caseType] = true;\n            typeCount++;\n            return \"Type added successfully\";\n    }\n\n\n    function addCase(string memory _caseTitle,uint256 _caseID,string memory _caseType,string memory _reportHash) \n        public onlyLevelOne returns (string memory) {\n        require(bytes(types[_caseType].caseType).length != 0, \"Case type does not exist\");\n        require(cases[_caseID].caseID == 0, \"Case ID already exists\");\n\n        // Add case to cases mapping\n        cases[_caseID] = Case({\n            caseTitle: _caseTitle,\n            caseID: _caseID,\n            caseType: _caseType,\n            reportHash: _reportHash,\n            addedBy: msg.sender,\n            status: Status.Active\n        });\n        caseCount++;\n\n        // Add case to casesByType mapping\n        Case memory newCase = Case({\n            caseTitle: _caseTitle,\n            caseID: _caseID,\n            caseType: _caseType,\n            reportHash: _reportHash,\n            addedBy: msg.sender,\n            status: Status.Active\n        });\n        casesByType[_caseType].push(newCase);\n\n        return \"Case added successfully\";\n    }\n\n    function getCaseByType(string memory _caseType) public onlyLevelTwo view returns (Case[] memory) {\n    require(bytes(types[_caseType].caseType).length != 0, \"Case type does not exist\");\n    return casesByType[_caseType]; \n    }\n\n    //done\n    function updateCaseStatus(uint256 _caseID,uint256 _caseTypeIndex,string memory _caseType, Status _status) \n    public onlyLevelOne {\n        require(cases[_caseID].caseID != 0, \"Case does not exist\");\n        require(_caseTypeIndex < casesByType[_caseType].length, \"Invalid caseTypeIndex\");\n        cases[_caseID].status = _status;\n        casesByType[_caseType][_caseTypeIndex].status = _status;\n    }\n    //done\n    function addEvidence(uint256 _caseID, string memory _evidenceType, string memory _evidenceHash) \n    public onlyLevelTwo returns (string memory) {\n        require(cases[_caseID].caseID != 0, \"Case does not exist\");\n        Evidence memory newEvidence = Evidence({\n            caseID: _caseID,\n            evidenceType: _evidenceType,\n            evidenceHash: _evidenceHash,\n            addedBy: msg.sender,\n            status: Status.Active\n        });\n\n        caseEvidence[_caseID].push(newEvidence);\n        evidenceCount++;\n        return \"Evidence added successfully\";\n    }\n    //done\n    function updateEvidenceStatus(uint256 _caseID, uint256 _evidenceIndex, Status _status) \n    public onlyLevelOne {\n        require(cases[_caseID].caseID != 0, \"Case does not exist\");\n        require(_evidenceIndex < caseEvidence[_caseID].length, \"Invalid evidence index\");\n\n        caseEvidence[_caseID][_evidenceIndex].status = _status;\n    }\n    //done\n    function getEvidenceByCaseID(uint256 _caseID) \n    public onlyLevelOne view returns (Evidence[] memory) {\n        require(cases[_caseID].caseID != 0, \"Case does not exist\");\n        return caseEvidence[_caseID];\n    }\n    \n    //done\n    function getUserByID(uint256 _ID) \n    public view onlyLevelOne returns (Account memory) {\n        address userAddress = accountIDs[_ID];\n        require(userAddress != address(0), \"Admin not found\");\n        require(accounts[userAddress].role == UserRole.LevelOne ||\n        accounts[userAddress].role == UserRole.LevelTwo, \"Not an user\");\n\n        return accounts[userAddress];\n    }\n    //done\n    function getAdminByID(uint256 _ID) \n    public view onlyAdmin returns (Account memory) {\n        address adminAddress = accountIDs[_ID];\n        require(adminAddress != address(0), \"Admin not found\");\n        require(accounts[adminAddress].role == UserRole.Admin, \"Not an admin\");\n\n        return accounts[adminAddress];\n    }\n\n    function addressToIndex(uint256 _id) private view returns (address) {\n        return accountIDs[_id];\n    }\n}\n",
  "sourcePath": "/home/juthindu/Blockchsin/11/contracts/SecureEvidence.sol",
  "compiler": {
    "name": "solc",
    "version": "0.8.26+commit.8a97fa7a.Emscripten.clang"
  },
  "schemaVersion": "3.4.16",
  "updatedAt": "2024-06-14T07:27:11.813Z",
  "networkType": "ethereum",
  "devdoc": {
    "kind": "dev",
    "methods": {},
    "version": 1
  },
  "userdoc": {
    "kind": "user",
    "methods": {},
    "version": 1
  }
}