{
  "contractName": "SecureEvidence",
  "abi": [
    {
      "inputs": [],
      "name": "adminCount",
      "outputs": [
        {
          "internalType": "uint256",
          "name": "",
          "type": "uint256"
        }
      ],
      "stateMutability": "view",
      "type": "function",
      "constant": true
    },
    {
      "inputs": [
        {
          "internalType": "address",
          "name": "",
          "type": "address"
        }
      ],
      "name": "admins",
      "outputs": [
        {
          "internalType": "string",
          "name": "name",
          "type": "string"
        },
        {
          "internalType": "uint256",
          "name": "ID",
          "type": "uint256"
        },
        {
          "internalType": "address",
          "name": "accountAddress",
          "type": "address"
        },
        {
          "internalType": "string",
          "name": "username",
          "type": "string"
        },
        {
          "internalType": "enum SecureEvidence.Status",
          "name": "status",
          "type": "uint8"
        }
      ],
      "stateMutability": "view",
      "type": "function",
      "constant": true
    },
    {
      "inputs": [
        {
          "internalType": "uint256",
          "name": "",
          "type": "uint256"
        },
        {
          "internalType": "uint256",
          "name": "",
          "type": "uint256"
        }
      ],
      "name": "caseEvidence",
      "outputs": [
        {
          "internalType": "uint256",
          "name": "caseID",
          "type": "uint256"
        },
        {
          "internalType": "string",
          "name": "evidenceType",
          "type": "string"
        },
        {
          "internalType": "string",
          "name": "evidenceHash",
          "type": "string"
        },
        {
          "internalType": "address",
          "name": "addedBy",
          "type": "address"
        },
        {
          "internalType": "enum SecureEvidence.Status",
          "name": "status",
          "type": "uint8"
        }
      ],
      "stateMutability": "view",
      "type": "function",
      "constant": true
    },
    {
      "inputs": [
        {
          "internalType": "uint256",
          "name": "",
          "type": "uint256"
        }
      ],
      "name": "cases",
      "outputs": [
        {
          "internalType": "string",
          "name": "caseTitle",
          "type": "string"
        },
        {
          "internalType": "uint256",
          "name": "caseID",
          "type": "uint256"
        },
        {
          "internalType": "string",
          "name": "caseType",
          "type": "string"
        },
        {
          "internalType": "uint8",
          "name": "caseLevel",
          "type": "uint8"
        },
        {
          "internalType": "string",
          "name": "reportHash",
          "type": "string"
        },
        {
          "internalType": "address",
          "name": "addedBy",
          "type": "address"
        },
        {
          "internalType": "enum SecureEvidence.Status",
          "name": "status",
          "type": "uint8"
        }
      ],
      "stateMutability": "view",
      "type": "function",
      "constant": true
    },
    {
      "inputs": [],
      "name": "superAdminAddress",
      "outputs": [
        {
          "internalType": "address",
          "name": "",
          "type": "address"
        }
      ],
      "stateMutability": "view",
      "type": "function",
      "constant": true
    },
    {
      "inputs": [],
      "name": "superAdminUsername",
      "outputs": [
        {
          "internalType": "string",
          "name": "",
          "type": "string"
        }
      ],
      "stateMutability": "view",
      "type": "function",
      "constant": true
    },
    {
      "inputs": [],
      "name": "userCount",
      "outputs": [
        {
          "internalType": "uint256",
          "name": "",
          "type": "uint256"
        }
      ],
      "stateMutability": "view",
      "type": "function",
      "constant": true
    },
    {
      "inputs": [
        {
          "internalType": "address",
          "name": "",
          "type": "address"
        }
      ],
      "name": "users",
      "outputs": [
        {
          "internalType": "string",
          "name": "name",
          "type": "string"
        },
        {
          "internalType": "uint256",
          "name": "ID",
          "type": "uint256"
        },
        {
          "internalType": "uint8",
          "name": "userLevel",
          "type": "uint8"
        },
        {
          "internalType": "address",
          "name": "accountAddress",
          "type": "address"
        },
        {
          "internalType": "string",
          "name": "username",
          "type": "string"
        },
        {
          "internalType": "enum SecureEvidence.Status",
          "name": "status",
          "type": "uint8"
        }
      ],
      "stateMutability": "view",
      "type": "function",
      "constant": true
    },
    {
      "inputs": [
        {
          "internalType": "string",
          "name": "_username",
          "type": "string"
        }
      ],
      "name": "login",
      "outputs": [
        {
          "internalType": "string",
          "name": "",
          "type": "string"
        }
      ],
      "stateMutability": "view",
      "type": "function",
      "constant": true
    },
    {
      "inputs": [
        {
          "internalType": "string",
          "name": "_name",
          "type": "string"
        },
        {
          "internalType": "uint256",
          "name": "_ID",
          "type": "uint256"
        },
        {
          "internalType": "address",
          "name": "_accountAddress",
          "type": "address"
        },
        {
          "internalType": "string",
          "name": "_username",
          "type": "string"
        },
        {
          "internalType": "enum SecureEvidence.Status",
          "name": "_status",
          "type": "uint8"
        }
      ],
      "name": "addAdmin",
      "outputs": [
        {
          "internalType": "string",
          "name": "",
          "type": "string"
        }
      ],
      "stateMutability": "nonpayable",
      "type": "function"
    },
    {
      "inputs": [
        {
          "internalType": "string",
          "name": "_name",
          "type": "string"
        },
        {
          "internalType": "uint256",
          "name": "_ID",
          "type": "uint256"
        },
        {
          "internalType": "uint8",
          "name": "_userLevel",
          "type": "uint8"
        },
        {
          "internalType": "address",
          "name": "_accountAddress",
          "type": "address"
        },
        {
          "internalType": "string",
          "name": "_username",
          "type": "string"
        },
        {
          "internalType": "enum SecureEvidence.Status",
          "name": "_status",
          "type": "uint8"
        }
      ],
      "name": "addUser",
      "outputs": [
        {
          "internalType": "string",
          "name": "",
          "type": "string"
        }
      ],
      "stateMutability": "nonpayable",
      "type": "function"
    },
    {
      "inputs": [
        {
          "internalType": "uint256",
          "name": "_ID",
          "type": "uint256"
        }
      ],
      "name": "getAdminByID",
      "outputs": [
        {
          "components": [
            {
              "internalType": "string",
              "name": "name",
              "type": "string"
            },
            {
              "internalType": "uint256",
              "name": "ID",
              "type": "uint256"
            },
            {
              "internalType": "address",
              "name": "accountAddress",
              "type": "address"
            },
            {
              "internalType": "string",
              "name": "username",
              "type": "string"
            },
            {
              "internalType": "enum SecureEvidence.Status",
              "name": "status",
              "type": "uint8"
            }
          ],
          "internalType": "struct SecureEvidence.Admin",
          "name": "",
          "type": "tuple"
        }
      ],
      "stateMutability": "view",
      "type": "function",
      "constant": true
    },
    {
      "inputs": [
        {
          "internalType": "uint256",
          "name": "_ID",
          "type": "uint256"
        }
      ],
      "name": "getUserByID",
      "outputs": [
        {
          "components": [
            {
              "internalType": "string",
              "name": "name",
              "type": "string"
            },
            {
              "internalType": "uint256",
              "name": "ID",
              "type": "uint256"
            },
            {
              "internalType": "uint8",
              "name": "userLevel",
              "type": "uint8"
            },
            {
              "internalType": "address",
              "name": "accountAddress",
              "type": "address"
            },
            {
              "internalType": "string",
              "name": "username",
              "type": "string"
            },
            {
              "internalType": "enum SecureEvidence.Status",
              "name": "status",
              "type": "uint8"
            }
          ],
          "internalType": "struct SecureEvidence.User",
          "name": "",
          "type": "tuple"
        }
      ],
      "stateMutability": "view",
      "type": "function",
      "constant": true
    },
    {
      "inputs": [
        {
          "internalType": "string",
          "name": "_name",
          "type": "string"
        },
        {
          "internalType": "uint256",
          "name": "_ID",
          "type": "uint256"
        },
        {
          "internalType": "address",
          "name": "_accountAddress",
          "type": "address"
        },
        {
          "internalType": "string",
          "name": "_username",
          "type": "string"
        },
        {
          "internalType": "enum SecureEvidence.Status",
          "name": "_status",
          "type": "uint8"
        }
      ],
      "name": "updateAdmin",
      "outputs": [],
      "stateMutability": "nonpayable",
      "type": "function"
    },
    {
      "inputs": [
        {
          "internalType": "uint256",
          "name": "_ID",
          "type": "uint256"
        },
        {
          "internalType": "string",
          "name": "_name",
          "type": "string"
        },
        {
          "internalType": "uint8",
          "name": "_userLevel",
          "type": "uint8"
        },
        {
          "internalType": "address",
          "name": "_accountAddress",
          "type": "address"
        },
        {
          "internalType": "string",
          "name": "_username",
          "type": "string"
        },
        {
          "internalType": "enum SecureEvidence.Status",
          "name": "_status",
          "type": "uint8"
        }
      ],
      "name": "updateUser",
      "outputs": [],
      "stateMutability": "nonpayable",
      "type": "function"
    },
    {
      "inputs": [],
      "name": "getAllAdmins",
      "outputs": [
        {
          "components": [
            {
              "internalType": "string",
              "name": "name",
              "type": "string"
            },
            {
              "internalType": "uint256",
              "name": "ID",
              "type": "uint256"
            },
            {
              "internalType": "address",
              "name": "accountAddress",
              "type": "address"
            },
            {
              "internalType": "string",
              "name": "username",
              "type": "string"
            },
            {
              "internalType": "enum SecureEvidence.Status",
              "name": "status",
              "type": "uint8"
            }
          ],
          "internalType": "struct SecureEvidence.Admin[]",
          "name": "",
          "type": "tuple[]"
        }
      ],
      "stateMutability": "view",
      "type": "function",
      "constant": true
    },
    {
      "inputs": [],
      "name": "getAllUsers",
      "outputs": [
        {
          "components": [
            {
              "internalType": "string",
              "name": "name",
              "type": "string"
            },
            {
              "internalType": "uint256",
              "name": "ID",
              "type": "uint256"
            },
            {
              "internalType": "uint8",
              "name": "userLevel",
              "type": "uint8"
            },
            {
              "internalType": "address",
              "name": "accountAddress",
              "type": "address"
            },
            {
              "internalType": "string",
              "name": "username",
              "type": "string"
            },
            {
              "internalType": "enum SecureEvidence.Status",
              "name": "status",
              "type": "uint8"
            }
          ],
          "internalType": "struct SecureEvidence.User[]",
          "name": "",
          "type": "tuple[]"
        }
      ],
      "stateMutability": "view",
      "type": "function",
      "constant": true
    },
    {
      "inputs": [
        {
          "internalType": "string",
          "name": "_caseTitle",
          "type": "string"
        },
        {
          "internalType": "uint256",
          "name": "_caseID",
          "type": "uint256"
        },
        {
          "internalType": "string",
          "name": "_caseType",
          "type": "string"
        },
        {
          "internalType": "uint8",
          "name": "_caseLevel",
          "type": "uint8"
        },
        {
          "internalType": "string",
          "name": "_reportHash",
          "type": "string"
        }
      ],
      "name": "addCase",
      "outputs": [
        {
          "internalType": "string",
          "name": "",
          "type": "string"
        }
      ],
      "stateMutability": "nonpayable",
      "type": "function"
    },
    {
      "inputs": [
        {
          "internalType": "uint256",
          "name": "_caseID",
          "type": "uint256"
        },
        {
          "internalType": "string",
          "name": "_evidenceType",
          "type": "string"
        },
        {
          "internalType": "string",
          "name": "_evidenceHash",
          "type": "string"
        }
      ],
      "name": "addEvidence",
      "outputs": [
        {
          "internalType": "string",
          "name": "",
          "type": "string"
        }
      ],
      "stateMutability": "nonpayable",
      "type": "function"
    },
    {
      "inputs": [
        {
          "internalType": "uint256",
          "name": "_caseID",
          "type": "uint256"
        }
      ],
      "name": "getEvidenceByCaseID",
      "outputs": [
        {
          "components": [
            {
              "internalType": "uint256",
              "name": "caseID",
              "type": "uint256"
            },
            {
              "internalType": "string",
              "name": "evidenceType",
              "type": "string"
            },
            {
              "internalType": "string",
              "name": "evidenceHash",
              "type": "string"
            },
            {
              "internalType": "address",
              "name": "addedBy",
              "type": "address"
            },
            {
              "internalType": "enum SecureEvidence.Status",
              "name": "status",
              "type": "uint8"
            }
          ],
          "internalType": "struct SecureEvidence.Evidence[]",
          "name": "",
          "type": "tuple[]"
        }
      ],
      "stateMutability": "view",
      "type": "function",
      "constant": true
    },
    {
      "inputs": [
        {
          "internalType": "uint256",
          "name": "_caseID",
          "type": "uint256"
        },
        {
          "internalType": "string",
          "name": "_evidenceType",
          "type": "string"
        }
      ],
      "name": "getEvidenceByType",
      "outputs": [
        {
          "components": [
            {
              "internalType": "uint256",
              "name": "caseID",
              "type": "uint256"
            },
            {
              "internalType": "string",
              "name": "evidenceType",
              "type": "string"
            },
            {
              "internalType": "string",
              "name": "evidenceHash",
              "type": "string"
            },
            {
              "internalType": "address",
              "name": "addedBy",
              "type": "address"
            },
            {
              "internalType": "enum SecureEvidence.Status",
              "name": "status",
              "type": "uint8"
            }
          ],
          "internalType": "struct SecureEvidence.Evidence[]",
          "name": "",
          "type": "tuple[]"
        }
      ],
      "stateMutability": "view",
      "type": "function",
      "constant": true
    }
  ],
  "bytecode": "0x600080546001600160a01b03191673546d61e9e3bce47133f7cc4f224ca17d4020fd6c17905560c0604052600a60809081526929bab832b920b236b4b760b11b60a05260019061004f9082610101565b5034801561005c57600080fd5b506101bf565b634e487b7160e01b600052604160045260246000fd5b600181811c9082168061008c57607f821691505b6020821081036100ac57634e487b7160e01b600052602260045260246000fd5b50919050565b601f8211156100fc57806000526020600020601f840160051c810160208510156100d95750805b601f840160051c820191505b818110156100f957600081556001016100e5565b50505b505050565b81516001600160401b0381111561011a5761011a610062565b61012e816101288454610078565b846100b2565b6020601f821160018114610162576000831561014a5750848201515b600019600385901b1c1916600184901b1784556100f9565b600084815260208120601f198516915b828110156101925787850151825560209485019460019092019101610172565b50848210156101b05786840151600019600387901b60f8161c191681555b50505050600190811b01905550565b6134f0806101ce6000396000f3fe608060405234801561001057600080fd5b50600436106101375760003560e01c80637b035a54116100b8578063d816117b1161007c578063d816117b146102da578063e2842d79146102ed578063e30c3ba714610302578063e9523c9714610315578063f09790dd1461032a578063f7a011071461035057600080fd5b80637b035a541461025c578063a4f568301461026f578063a87430ba14610282578063c40b46a0146102a7578063c5a4750c146102ba57600080fd5b80632b7832b3116100ff5780632b7832b3146101d85780633a7d280c146101e15780633a92f489146101f4578063429b62e5146102185780636d3b5f181461023c57600080fd5b8063045b30341461013c57806307973ccf1461016c5780630a076421146101835780631002078b146101a357806314213470146101c3575b600080fd5b60005461014f906001600160a01b031681565b6040516001600160a01b0390911681526020015b60405180910390f35b61017560095481565b604051908152602001610163565b6101966101913660046129e5565b610358565b6040516101639190612ac7565b6101b66101b1366004612ae1565b61053e565b6040516101639190612b99565b6101d66101d1366004612bbd565b610769565b005b61017560085481565b6101966101ef366004612c5e565b6108cf565b610207610202366004612c9a565b610c2f565b604051610163959493929190612cbc565b61022b610226366004612d07565b610da2565b604051610163959493929190612d22565b61024f61024a366004612ae1565b610ef1565b6040516101639190612dd9565b61019661026a366004612dec565b611101565b61019661027d366004612e3d565b611387565b610295610290366004612d07565b6115af565b60405161016396959493929190612ead565b6101966102b5366004612f0c565b611707565b6102cd6102c8366004612fb8565b611962565b6040516101639190612ffe565b6101d66102e83660046129e5565b611d2a565b6102f5611e49565b60405161016391906130bb565b6102cd610310366004612ae1565b61218f565b61031d61239e565b6040516101639190613114565b61033d610338366004612ae1565b612632565b604051610163979695949392919061316d565b61019661281d565b6000546060906001600160a01b0316331461038e5760405162461bcd60e51b8152600401610385906131e1565b60405180910390fd5b6001600160a01b038481166000908152600260208190526040909120015416156103f15760405162461bcd60e51b815260206004820152601460248201527341646d696e20616c72656164792065786973747360601b6044820152606401610385565b6040518060a00160405280878152602001868152602001856001600160a01b0316815260200184815260200183600181111561042f5761042f612afa565b90526001600160a01b038516600090815260026020526040902081518190610457908261328c565b506020820151600182015560408201516002820180546001600160a01b0319166001600160a01b039092169190911790556060820151600382019061049c908261328c565b50608082015160048201805460ff1916600183818111156104bf576104bf612afa565b02179055505050600085815260046020526040812080546001600160a01b0319166001600160a01b03871617905560088054916104fb8361334a565b909155505060408051808201909152601a81527f41646d696e2063726561746564207375636365737366756c6c7900000000000060208201529695505050505050565b6105466128ab565b6000546001600160a01b031633146105705760405162461bcd60e51b8152600401610385906131e1565b6000828152600460205260409020546001600160a01b0316806105c75760405162461bcd60e51b815260206004820152600f60248201526e10591b5a5b881b9bdd08199bdd5b99608a1b6044820152606401610385565b6001600160a01b03811660009081526002602052604090819020815160a081019092528054829082906105f990613209565b80601f016020809104026020016040519081016040528092919081815260200182805461062590613209565b80156106725780601f1061064757610100808354040283529160200191610672565b820191906000526020600020905b81548152906001019060200180831161065557829003601f168201915b50505091835250506001820154602082015260028201546001600160a01b031660408201526003820180546060909201916106ac90613209565b80601f01602080910402602001604051908101604052809291908181526020018280546106d890613209565b80156107255780601f106106fa57610100808354040283529160200191610725565b820191906000526020600020905b81548152906001019060200180831161070857829003601f168201915b5050509183525050600482015460209091019060ff16600181111561074c5761074c612afa565b600181111561075d5761075d612afa565b9052509150505b919050565b60013360009081526002602052604090206004015460ff16600181111561079257610792612afa565b14806107a857506000546001600160a01b031633145b6107c45760405162461bcd60e51b815260040161038590613371565b6001600160a01b038381166000908152600360205260409020600201546101009004166108295760405162461bcd60e51b8152602060048201526013602482015272155cd95c88191bd95cc81b9bdd08195e1a5cdd606a1b6044820152606401610385565b6001600160a01b038316600090815260036020526040902060018101879055610852868261328c565b506001600160a01b038316600090815260036020819052604090912060028101805460ff191660ff88161790550161088a838261328c565b506001600160a01b0383166000908152600360205260409020600401805482919060ff1916600183818111156108c2576108c2612afa565b0217905550505050505050565b60005460609033906001600160a01b03168114801561093a575060016040516020016108fb91906133b2565b60405160208183030381529060405280519060200120836040516020016109229190613427565b60405160208183030381529060405280519060200120145b1561096f5750506040805180820190915260128152712bb2b631b7b6b29029bab832b920b236b4b760711b6020820152919050565b6001600160a01b038181166000908152600260208190526040909120015416158015906109ff5750826040516020016109a89190613427565b60408051601f1981840301815282825280516020918201206001600160a01b0385166000908152600283529290922091926109e79260030191016133b2565b60405160208183030381529060405280519060200120145b15610a865760016001600160a01b03821660009081526002602052604090206004015460ff166001811115610a3657610a36612afa565b03610a6657505060408051808201909152600d81526c2bb2b631b7b6b29020b236b4b760991b6020820152919050565b604051806060016040528060348152602001613487603491399392505050565b6001600160a01b0381811660009081526003602052604090206002015461010090041615801590610b1b575082604051602001610ac39190613427565b60408051601f1981840301815282825280516020918201206001600160a01b038516600090815260038084529390209093610b03939190910191016133b2565b60405160208183030381529060405280519060200120145b15610bfe5760016001600160a01b03821660009081526003602052604090206004015460ff166001811115610b5257610b52612afa565b03610a66576001600160a01b03811660009081526003602052604090206002015460ff16600103610baa57505060408051808201909152600f81526e2bb2b631b7b6b2902618902ab9b2b960891b6020820152919050565b6001600160a01b038116600090815260036020526040902060029081015460ff169003610bfe57505060408051808201909152600f81526e2bb2b631b7b6b2902619102ab9b2b960891b6020820152919050565b5050604080518082019091526013815272155cd95c881b9bdd081c9959da5cdd195c9959606a1b6020820152919050565b60076020528160005260406000208181548110610c4b57600080fd5b906000526020600020906004020160009150915050806000015490806001018054610c7590613209565b80601f0160208091040260200160405190810160405280929190818152602001828054610ca190613209565b8015610cee5780601f10610cc357610100808354040283529160200191610cee565b820191906000526020600020905b815481529060010190602001808311610cd157829003601f168201915b505050505090806002018054610d0390613209565b80601f0160208091040260200160405190810160405280929190818152602001828054610d2f90613209565b8015610d7c5780601f10610d5157610100808354040283529160200191610d7c565b820191906000526020600020905b815481529060010190602001808311610d5f57829003601f168201915b505050600390930154919250506001600160a01b0381169060ff600160a01b9091041685565b600260205260009081526040902080548190610dbd90613209565b80601f0160208091040260200160405190810160405280929190818152602001828054610de990613209565b8015610e365780601f10610e0b57610100808354040283529160200191610e36565b820191906000526020600020905b815481529060010190602001808311610e1957829003601f168201915b5050505060018301546002840154600385018054949592946001600160a01b03909216935090610e6590613209565b80601f0160208091040260200160405190810160405280929190818152602001828054610e9190613209565b8015610ede5780601f10610eb357610100808354040283529160200191610ede565b820191906000526020600020905b815481529060010190602001808311610ec157829003601f168201915b5050506004909301549192505060ff1685565b610f266040805160c081018252606080825260006020830181905292820183905280820183905260808201529060a082015290565b6000828152600560205260409020546001600160a01b031680610f7c5760405162461bcd60e51b815260206004820152600e60248201526d155cd95c881b9bdd08199bdd5b9960921b6044820152606401610385565b6000546001600160a01b0316331480610fbb575060013360009081526002602052604090206004015460ff166001811115610fb957610fb9612afa565b145b156110b3576001600160a01b03811660009081526003602052604090819020815160c08101909252805482908290610ff290613209565b80601f016020809104026020016040519081016040528092919081815260200182805461101e90613209565b801561106b5780601f106110405761010080835404028352916020019161106b565b820191906000526020600020905b81548152906001019060200180831161104e57829003601f168201915b505050918352505060018201546020820152600282015460ff8116604083015261010090046001600160a01b031660608201526003820180546080909201916106ac90613209565b60405162461bcd60e51b815260206004820181905260248201527f4e6f7420617574686f72697a656420746f2076696577207573657220646174616044820152606401610385565b50919050565b606060013360009081526002602052604090206004015460ff16600181111561112c5761112c612afa565b148061114257506000546001600160a01b031633145b61115e5760405162461bcd60e51b815260040161038590613371565b6001600160a01b03848116600090815260036020526040902060020154610100900416156111c45760405162461bcd60e51b81526020600482015260136024820152725573657220616c72656164792065786973747360681b6044820152606401610385565b8460ff16600114806111d957508460ff166002145b61121a5760405162461bcd60e51b8152602060048201526012602482015271125b9d985b1a59081d5cd95c881b195d995b60721b6044820152606401610385565b6040518060c001604052808881526020018781526020018660ff168152602001856001600160a01b0316815260200184815260200183600181111561126157611261612afa565b90526001600160a01b038516600090815260036020526040902081518190611289908261328c565b5060208201516001820155604082015160028201805460608501516001600160a01b0316610100026001600160a81b031990911660ff90931692909217919091179055608082015160038201906112e0908261328c565b5060a082015160048201805460ff19166001838181111561130357611303612afa565b02179055505050600086815260056020526040812080546001600160a01b0319166001600160a01b038716179055600980549161133f8361334a565b91905055506040518060400160405280601981526020017f557365722063726561746564207375636365737366756c6c790000000000000081525090505b9695505050505050565b6000546060906001600160a01b03163314806113c9575060013360009081526002602052604090206004015460ff1660018111156113c7576113c7612afa565b145b80611439575060013360009081526003602052604090206004015460ff1660018111156113f8576113f8612afa565b14801561143957503360009081526003602052604090206002015460ff1660011480611439575033600090815260036020526040902060029081015460ff16145b6114765760405162461bcd60e51b815260206004820152600e60248201526d139bdd08185d5d1a1bdc9a5e995960921b6044820152606401610385565b60008481526006602052604081206001015490036114a65760405162461bcd60e51b815260040161038590613443565b6040805160a081018252858152602080820186815282840186905233606084015260016080840181905260008981526007845294852080548083018255908652929094208351600490930201918255519192839290820190611508908261328c565b506040820151600282019061151d908261328c565b5060608201516003820180546001600160a01b039092166001600160a01b03198316811782556080850151926001600160a81b03191617600160a01b83600181111561156b5761156b612afa565b02179055505060408051808201909152601b81527f45766964656e6365206164646564207375636365737366756c6c79000000000060208201529695505050505050565b6003602052600090815260409020805481906115ca90613209565b80601f01602080910402602001604051908101604052809291908181526020018280546115f690613209565b80156116435780601f1061161857610100808354040283529160200191611643565b820191906000526020600020905b81548152906001019060200180831161162657829003601f168201915b50505050600183015460028401546003850180549495929460ff831694506101009092046001600160a01b0316929161167b90613209565b80601f01602080910402602001604051908101604052809291908181526020018280546116a790613209565b80156116f45780601f106116c9576101008083540402835291602001916116f4565b820191906000526020600020905b8154815290600101906020018083116116d757829003601f168201915b5050506004909301549192505060ff1686565b6000546060906001600160a01b0316331480611749575060013360009081526002602052604090206004015460ff16600181111561174757611747612afa565b145b8061179a575060013360009081526003602052604090206004015460ff16600181111561177857611778612afa565b14801561179a57503360009081526003602052604090206002015460ff166001145b6117d75760405162461bcd60e51b815260206004820152600e60248201526d139bdd08185d5d1a1bdc9a5e995960921b6044820152606401610385565b8260ff16600114806117ec57508260ff166002145b61182d5760405162461bcd60e51b8152602060048201526012602482015271125b9d985b1a590818d85cd9481b195d995b60721b6044820152606401610385565b6040805160e0810182528781526020810187905290810185905260ff84166060820152608081018390523360a082015260c0810160019052600086815260066020526040902081518190611881908261328c565b5060208201516001820155604082015160028201906118a0908261328c565b50606082015160038201805460ff191660ff909216919091179055608082015160048201906118cf908261328c565b5060a08201516005820180546001600160a01b039092166001600160a01b031983168117825560c0850151926001600160a81b03191617600160a01b83600181111561191d5761191d612afa565b02179055505060408051808201909152601781527f43617365206164646564207375636365737366756c6c790000000000000000006020820152979650505050505050565b600082815260066020526040812060010154606091036119945760405162461bcd60e51b815260040161038590613443565b6000805b600085815260076020526040902054811015611a4757836040516020016119bf9190613427565b60408051601f1981840301815291815281516020928301206000888152600790935291208054839081106119f5576119f5613470565b9060005260206000209060040201600101604051602001611a1691906133b2565b6040516020818303038152906040528051906020012003611a3f5781611a3b8161334a565b9250505b600101611998565b506000816001600160401b03811115611a6257611a6261291c565b604051908082528060200260200182016040528015611a9b57816020015b611a886128d9565b815260200190600190039081611a805790505b5090506000805b600087815260076020526040902054811015611d1f5785604051602001611ac99190613427565b60408051601f19818403018152918152815160209283012060008a815260079093529120805483908110611aff57611aff613470565b9060005260206000209060040201600101604051602001611b2091906133b2565b6040516020818303038152906040528051906020012003611d17576000878152600760205260409020805482908110611b5b57611b5b613470565b90600052602060002090600402016040518060a001604052908160008201548152602001600182018054611b8e90613209565b80601f0160208091040260200160405190810160405280929190818152602001828054611bba90613209565b8015611c075780601f10611bdc57610100808354040283529160200191611c07565b820191906000526020600020905b815481529060010190602001808311611bea57829003601f168201915b50505050508152602001600282018054611c2090613209565b80601f0160208091040260200160405190810160405280929190818152602001828054611c4c90613209565b8015611c995780601f10611c6e57610100808354040283529160200191611c99565b820191906000526020600020905b815481529060010190602001808311611c7c57829003601f168201915b505050918352505060038201546001600160a01b0381166020830152604090910190600160a01b900460ff166001811115611cd657611cd6612afa565b6001811115611ce757611ce7612afa565b81525050838381518110611cfd57611cfd613470565b60200260200101819052508180611d139061334a565b9250505b600101611aa2565b509095945050505050565b6000546001600160a01b03163314611d545760405162461bcd60e51b8152600401610385906131e1565b6001600160a01b038381166000908152600260208190526040909120015416611db65760405162461bcd60e51b815260206004820152601460248201527310591b5a5b88191bd95cc81b9bdd08195e1a5cdd60621b6044820152606401610385565b6001600160a01b0383166000908152600260205260409020611dd8868261328c565b506001600160a01b038316600090815260026020526040902060018101859055600301611e05838261328c565b506001600160a01b0383166000908152600260205260409020600401805482919060ff191660018381811115611e3d57611e3d612afa565b02179055505050505050565b6000546060906001600160a01b0316331480611e8b575060013360009081526002602052604090206004015460ff166001811115611e8957611e89612afa565b145b611ee55760405162461bcd60e51b815260206004820152602560248201527f4e6f7420617574686f72697a656420746f207669657720616c6c207573657273604482015264206461746160d81b6064820152608401610385565b60006009546001600160401b03811115611f0157611f0161291c565b604051908082528060200260200182016040528015611f6757816020015b611f546040805160c081018252606080825260006020830181905292820183905280820183905260808201529060a082015290565b815260200190600190039081611f1f5790505b509050600060015b6009548111612187576000818152600560205260409020546001600160a01b031615612175576000818152600560209081526040808320546001600160a01b03168352600390915290819020815160c08101909252805482908290611fd390613209565b80601f0160208091040260200160405190810160405280929190818152602001828054611fff90613209565b801561204c5780601f106120215761010080835404028352916020019161204c565b820191906000526020600020905b81548152906001019060200180831161202f57829003601f168201915b505050918352505060018201546020820152600282015460ff8116604083015261010090046001600160a01b0316606082015260038201805460809092019161209490613209565b80601f01602080910402602001604051908101604052809291908181526020018280546120c090613209565b801561210d5780601f106120e25761010080835404028352916020019161210d565b820191906000526020600020905b8154815290600101906020018083116120f057829003601f168201915b5050509183525050600482015460209091019060ff16600181111561213457612134612afa565b600181111561214557612145612afa565b8152505083838151811061215b5761215b613470565b602002602001018190525081806121719061334a565b9250505b8061217f8161334a565b915050611f6f565b509092915050565b600081815260066020526040812060010154606091036121c15760405162461bcd60e51b815260040161038590613443565b600082815260076020908152604080832080548251818502810185019093528083529193909284015b8282101561239357838290600052602060002090600402016040518060a00160405290816000820154815260200160018201805461222790613209565b80601f016020809104026020016040519081016040528092919081815260200182805461225390613209565b80156122a05780601f10612275576101008083540402835291602001916122a0565b820191906000526020600020905b81548152906001019060200180831161228357829003601f168201915b505050505081526020016002820180546122b990613209565b80601f01602080910402602001604051908101604052809291908181526020018280546122e590613209565b80156123325780601f1061230757610100808354040283529160200191612332565b820191906000526020600020905b81548152906001019060200180831161231557829003601f168201915b505050918352505060038201546001600160a01b0381166020830152604090910190600160a01b900460ff16600181111561236f5761236f612afa565b600181111561238057612380612afa565b81525050815260200190600101906121ea565b505050509050919050565b6000546060906001600160a01b031633146123cb5760405162461bcd60e51b8152600401610385906131e1565b60006008546001600160401b038111156123e7576123e761291c565b60405190808252806020026020018201604052801561242057816020015b61240d6128ab565b8152602001906001900390816124055790505b509050600060015b6008548111612187576000818152600460205260409020546001600160a01b031615612620576000818152600460209081526040808320546001600160a01b03168352600290915290819020815160a0810190925280548290829061248c90613209565b80601f01602080910402602001604051908101604052809291908181526020018280546124b890613209565b80156125055780601f106124da57610100808354040283529160200191612505565b820191906000526020600020905b8154815290600101906020018083116124e857829003601f168201915b50505091835250506001820154602082015260028201546001600160a01b0316604082015260038201805460609092019161253f90613209565b80601f016020809104026020016040519081016040528092919081815260200182805461256b90613209565b80156125b85780601f1061258d576101008083540402835291602001916125b8565b820191906000526020600020905b81548152906001019060200180831161259b57829003601f168201915b5050509183525050600482015460209091019060ff1660018111156125df576125df612afa565b60018111156125f0576125f0612afa565b8152505083838151811061260657612606613470565b6020026020010181905250818061261c9061334a565b9250505b8061262a8161334a565b915050612428565b60066020526000908152604090208054819061264d90613209565b80601f016020809104026020016040519081016040528092919081815260200182805461267990613209565b80156126c65780601f1061269b576101008083540402835291602001916126c6565b820191906000526020600020905b8154815290600101906020018083116126a957829003601f168201915b5050505050908060010154908060020180546126e190613209565b80601f016020809104026020016040519081016040528092919081815260200182805461270d90613209565b801561275a5780601f1061272f5761010080835404028352916020019161275a565b820191906000526020600020905b81548152906001019060200180831161273d57829003601f168201915b5050506003840154600485018054949560ff90921694919350915061277e90613209565b80601f01602080910402602001604051908101604052809291908181526020018280546127aa90613209565b80156127f75780601f106127cc576101008083540402835291602001916127f7565b820191906000526020600020905b8154815290600101906020018083116127da57829003601f168201915b505050600590930154919250506001600160a01b0381169060ff600160a01b9091041687565b6001805461282a90613209565b80601f016020809104026020016040519081016040528092919081815260200182805461285690613209565b80156128a35780601f10612878576101008083540402835291602001916128a3565b820191906000526020600020905b81548152906001019060200180831161288657829003601f168201915b505050505081565b6040805160a0810182526060808252600060208301819052928201839052808201529060808201905b905290565b6040518060a0016040528060008152602001606081526020016060815260200160006001600160a01b03168152602001600060018111156128d4576128d4612afa565b634e487b7160e01b600052604160045260246000fd5b600082601f83011261294357600080fd5b81356001600160401b0381111561295c5761295c61291c565b604051601f8201601f19908116603f011681016001600160401b038111828210171561298a5761298a61291c565b6040528181528382016020018510156129a257600080fd5b816020850160208301376000918101602001919091529392505050565b80356001600160a01b038116811461076457600080fd5b80356002811061076457600080fd5b600080600080600060a086880312156129fd57600080fd5b85356001600160401b03811115612a1357600080fd5b612a1f88828901612932565b95505060208601359350612a35604087016129bf565b925060608601356001600160401b03811115612a5057600080fd5b612a5c88828901612932565b925050612a6b608087016129d6565b90509295509295909350565b60005b83811015612a92578181015183820152602001612a7a565b50506000910152565b60008151808452612ab3816020860160208601612a77565b601f01601f19169290920160200192915050565b602081526000612ada6020830184612a9b565b9392505050565b600060208284031215612af357600080fd5b5035919050565b634e487b7160e01b600052602160045260246000fd5b60028110612b2e57634e487b7160e01b600052602160045260246000fd5b9052565b6000815160a08452612b4760a0850182612a9b565b90506020830151602085015260018060a01b03604084015116604085015260608301518482036060860152612b7c8282612a9b565b9150506080830151612b916080860182612b10565b509392505050565b602081526000612ada6020830184612b32565b803560ff8116811461076457600080fd5b60008060008060008060c08789031215612bd657600080fd5b8635955060208701356001600160401b03811115612bf357600080fd5b612bff89828a01612932565b955050612c0e60408801612bac565b9350612c1c606088016129bf565b925060808701356001600160401b03811115612c3757600080fd5b612c4389828a01612932565b925050612c5260a088016129d6565b90509295509295509295565b600060208284031215612c7057600080fd5b81356001600160401b03811115612c8657600080fd5b612c9284828501612932565b949350505050565b60008060408385031215612cad57600080fd5b50508035926020909101359150565b85815260a060208201526000612cd560a0830187612a9b565b8281036040840152612ce78187612a9b565b6001600160a01b0386166060850152915061137d90506080830184612b10565b600060208284031215612d1957600080fd5b612ada826129bf565b60a081526000612d3560a0830188612a9b565b602083018790526001600160a01b03861660408401528281036060840152612d5d8186612a9b565b91505061137d6080830184612b10565b6000815160c08452612d8260c0850182612a9b565b90506020830151602085015260ff604084015116604085015260018060a01b03606084015116606085015260808301518482036080860152612dc48282612a9b565b91505060a0830151612b9160a0860182612b10565b602081526000612ada6020830184612d6d565b60008060008060008060c08789031215612e0557600080fd5b86356001600160401b03811115612e1b57600080fd5b612e2789828a01612932565b96505060208701359450612c0e60408801612bac565b600080600060608486031215612e5257600080fd5b8335925060208401356001600160401b03811115612e6f57600080fd5b612e7b86828701612932565b92505060408401356001600160401b03811115612e9757600080fd5b612ea386828701612932565b9150509250925092565b60c081526000612ec060c0830189612a9b565b6020830188905260ff871660408401526001600160a01b03861660608401528281036080840152612ef18186612a9b565b915050612f0160a0830184612b10565b979650505050505050565b600080600080600060a08688031215612f2457600080fd5b85356001600160401b03811115612f3a57600080fd5b612f4688828901612932565b9550506020860135935060408601356001600160401b03811115612f6957600080fd5b612f7588828901612932565b935050612f8460608701612bac565b915060808601356001600160401b03811115612f9f57600080fd5b612fab88828901612932565b9150509295509295909350565b60008060408385031215612fcb57600080fd5b8235915060208301356001600160401b03811115612fe857600080fd5b612ff485828601612932565b9150509250929050565b6000602082016020835280845180835260408501915060408160051b86010192506020860160005b828110156130af57603f19878603018452815180518652602081015160a0602088015261305660a0880182612a9b565b90506040820151878203604089015261306f8282612a9b565b6060848101516001600160a01b0316908a0152608093840151939092506130999150880183612b10565b9550506020938401939190910190600101613026565b50929695505050505050565b6000602082016020835280845180835260408501915060408160051b86010192506020860160005b828110156130af57603f198786030184526130ff858351612d6d565b945060209384019391909101906001016130e3565b6000602082016020835280845180835260408501915060408160051b86010192506020860160005b828110156130af57603f19878603018452613158858351612b32565b9450602093840193919091019060010161313c565b60e08152600061318060e083018a612a9b565b88602084015282810360408401526131988189612a9b565b905060ff8716606084015282810360808401526131b58187612a9b565b6001600160a01b03861660a085015291506131d5905060c0830184612b10565b98975050505050505050565b6020808252600e908201526d2737ba1029bab832b920b236b4b760911b604082015260600190565b600181811c9082168061321d57607f821691505b6020821081036110fb57634e487b7160e01b600052602260045260246000fd5b601f82111561328757806000526020600020601f840160051c810160208510156132645750805b601f840160051c820191505b818110156132845760008155600101613270565b50505b505050565b81516001600160401b038111156132a5576132a561291c565b6132b9816132b38454613209565b8461323d565b6020601f8211600181146132ed57600083156132d55750848201515b600019600385901b1c1916600184901b178455613284565b600084815260208120601f198516915b8281101561331d57878501518255602094850194600190920191016132fd565b508482101561333b5786840151600019600387901b60f8161c191681555b50505050600190811b01905550565b60006001820161336a57634e487b7160e01b600052601160045260246000fd5b5060010190565b60208082526021908201527f4e6f7420616e206163746976652041646d696e206f7220537570657241646d696040820152603760f91b606082015260800190565b60008083546133c081613209565b6001821680156133d757600181146133ec5761341c565b60ff198316865281151582028601935061341c565b86600052602060002060005b83811015613414578154888201526001909101906020016133f8565b505081860193505b509195945050505050565b60008251613439818460208701612a77565b9190910192915050565b60208082526013908201527210d85cd948191bd95cc81b9bdd08195e1a5cdd606a1b604082015260600190565b634e487b7160e01b600052603260045260246000fdfe596f752063616e6e6f74206c6f67696e2c20706c6561736520636f6e746163742041646d696e206f7220537570657241646d696ea264697066735822122039b68f2dd54002ff9e15b25a13f412e5528df0f35f86b7a2da68b9fcf00d06b564736f6c634300081a0033",
  "immutableReferences": {},
  "source": "// SPDX-License-Identifier: MIT\npragma solidity ^0.8.0;\n\ncontract SecureEvidence {\n    address public superAdminAddress = 0x546d61e9E3bce47133F7cC4f224cA17d4020fD6c;\n    string public superAdminUsername = \"SuperAdmin\";\n\n    enum Status {Inactive, Active}\n\n    struct Admin {\n        string name;\n        uint256 ID;\n        address accountAddress;\n        string username;\n        Status status;\n    }\n\n    struct User {\n        string name;\n        uint256 ID;\n        uint8 userLevel; // 1 for Level 1, 2 for Level 2\n        address accountAddress;\n        string username;\n        Status status;\n    }\n\n    struct Case {\n        string caseTitle;\n        uint256 caseID;\n        string caseType;\n        uint8 caseLevel; // 1 for Level 1, 2 for Level 2\n        string reportHash;\n        address addedBy;\n        Status status;\n    }\n\n    struct Evidence {\n        uint256 caseID;\n        string evidenceType;\n        string evidenceHash;\n        address addedBy;\n        Status status;\n    }\n\n    mapping(address => Admin) public admins;\n    mapping(address => User) public users;\n    mapping(uint256 => address) private adminIDs;\n    mapping(uint256 => address) private userIDs;\n    mapping(uint256 => Case) public cases;\n    mapping(uint256 => Evidence[]) public caseEvidence;\n\n    uint256 public adminCount;\n    uint256 public userCount;\n\n    modifier onlySuperAdmin() {\n        require(msg.sender == superAdminAddress, \"Not SuperAdmin\");\n        _;\n    }\n\n    modifier onlyAdmin() {\n        require(admins[msg.sender].status == Status.Active || msg.sender == superAdminAddress, \"Not an active Admin or SuperAdmin\");\n        _;\n    }\n\n    modifier onlyLevelOne() {\n        require(\n            msg.sender == superAdminAddress ||\n            (admins[msg.sender].status == Status.Active) ||\n            (users[msg.sender].status == Status.Active && users[msg.sender].userLevel == 1),\n            \"Not authorized\"\n        );\n        _;\n    }\n\n    modifier onlyLevelTwo() {\n        require(\n            msg.sender == superAdminAddress ||\n            (admins[msg.sender].status == Status.Active) ||\n            (users[msg.sender].status == Status.Active && (users[msg.sender].userLevel == 1 || users[msg.sender].userLevel == 2)),\n            \"Not authorized\"\n        );\n        _;\n    }\n\n    function login(string memory _username) public view returns (string memory) {\n        address _account = msg.sender;\n\n        if (_account == superAdminAddress && keccak256(abi.encodePacked(_username)) == keccak256(abi.encodePacked(superAdminUsername))) {\n            return \"Welcome SuperAdmin\";\n        } else if (admins[_account].accountAddress != address(0) && keccak256(abi.encodePacked(admins[_account].username)) == keccak256(abi.encodePacked(_username))) {\n            if (admins[_account].status == Status.Active) {\n                return \"Welcome Admin\";\n            } else {\n                return \"You cannot login, please contact Admin or SuperAdmin\";\n            }\n        } else if (users[_account].accountAddress != address(0) && keccak256(abi.encodePacked(users[_account].username)) == keccak256(abi.encodePacked(_username))) {\n            if (users[_account].status == Status.Active) {\n                if (users[_account].userLevel == 1) {\n                    return \"Welcome L1 User\";\n                } else if (users[_account].userLevel == 2) {\n                    return \"Welcome L2 User\";\n                }\n            } else {\n                return \"You cannot login, please contact Admin or SuperAdmin\";\n            }\n        }\n        return \"User not registered\";\n    }\n\n    function addAdmin(string memory _name, uint256 _ID, address _accountAddress, string memory _username, Status _status) public onlySuperAdmin returns (string memory){\n        require(admins[_accountAddress].accountAddress == address(0), \"Admin already exists\");\n\n        admins[_accountAddress] = Admin({\n            name: _name,\n            ID: _ID,\n            accountAddress: _accountAddress,\n            username: _username,\n            status: _status\n        });\n        \n        adminIDs[_ID] = _accountAddress;\n        adminCount++;\n\n        return \"Admin created successfully\";\n    }\n\n    function addUser(string memory _name, uint256 _ID, uint8 _userLevel, address _accountAddress, string memory _username, Status _status) public onlyAdmin returns (string memory){\n        require(users[_accountAddress].accountAddress == address(0), \"User already exists\");\n        require(_userLevel == 1 || _userLevel == 2, \"Invalid user level\");\n\n        users[_accountAddress] = User({\n            name: _name,\n            ID: _ID,\n            userLevel: _userLevel,\n            accountAddress: _accountAddress,\n            username: _username,\n            status: _status\n        });\n        \n        userIDs[_ID] = _accountAddress;\n        userCount++;\n\n        return \"User created successfully\";\n    }\n\n    function getAdminByID(uint256 _ID) public view onlySuperAdmin returns (Admin memory) {\n        address adminAddress = adminIDs[_ID];\n        require(adminAddress != address(0), \"Admin not found\");\n        return admins[adminAddress];\n    }\n\n    function getUserByID(uint256 _ID) public view returns (User memory) {\n        address userAddress = userIDs[_ID];\n        require(userAddress != address(0), \"User not found\");\n\n        if (msg.sender == superAdminAddress || admins[msg.sender].status == Status.Active) {\n            return users[userAddress];\n        } else {\n            revert(\"Not authorized to view user data\");\n        }\n    }\n\n    function updateAdmin(string memory _name, uint256 _ID, address _accountAddress, string memory _username, Status _status) public onlySuperAdmin {\n        require(admins[_accountAddress].accountAddress != address(0), \"Admin does not exist\");\n\n        admins[_accountAddress].name = _name;\n        admins[_accountAddress].ID = _ID;\n        admins[_accountAddress].username = _username;\n        admins[_accountAddress].status = _status;\n    }\n\n    function updateUser(uint256 _ID, string memory _name, uint8 _userLevel, address _accountAddress, string memory _username, Status _status) public onlyAdmin {\n        require(users[_accountAddress].accountAddress != address(0), \"User does not exist\");\n\n        users[_accountAddress].ID = _ID;\n        users[_accountAddress].name = _name;\n        users[_accountAddress].userLevel = _userLevel;\n        users[_accountAddress].username = _username;\n        users[_accountAddress].status = _status;\n    }\n\n    function getAllAdmins() public view onlySuperAdmin returns (Admin[] memory) {\n        Admin[] memory adminsArray = new Admin[](adminCount);\n        uint256 index = 0;\n        for (uint256 i = 1; i <= adminCount; i++) {\n            if (adminIDs[i] != address(0)) {\n                adminsArray[index] = admins[adminIDs[i]];\n                index++;\n            }\n        }\n        return adminsArray;\n    }\n\n    function getAllUsers() public view returns (User[] memory) {\n        require(msg.sender == superAdminAddress || admins[msg.sender].status == Status.Active, \"Not authorized to view all users data\");\n\n        User[] memory usersArray = new User[](userCount);\n        uint256 index = 0;\n        for (uint256 i = 1; i <= userCount; i++) {\n            if (userIDs[i] != address(0)) {\n                usersArray[index] = users[userIDs[i]];\n                index++;\n            }\n        }\n        return usersArray;\n    }\n\n    function addCase(string memory _caseTitle, uint256 _caseID, string memory _caseType, uint8 _caseLevel, string memory _reportHash) public onlyLevelOne returns (string memory){\n        require(_caseLevel == 1 || _caseLevel == 2, \"Invalid case level\");\n\n        cases[_caseID] = Case({\n            caseTitle: _caseTitle,\n            caseID: _caseID,\n            caseType: _caseType,\n            caseLevel: _caseLevel,\n            reportHash: _reportHash,\n            addedBy: msg.sender,\n            status: Status.Active\n        });\n\n        return \"Case added successfully\";\n    }\n\n    function addEvidence(uint256 _caseID, string memory _evidenceType, string memory _evidenceHash) public onlyLevelTwo returns (string memory){\n        require(cases[_caseID].caseID != 0, \"Case does not exist\");\n\n        Evidence memory newEvidence = Evidence({\n            caseID: _caseID,\n            evidenceType: _evidenceType,\n            evidenceHash: _evidenceHash,\n            addedBy: msg.sender,\n            status: Status.Active\n        });\n\n        caseEvidence[_caseID].push(newEvidence);\n\n        return \"Evidence added successfully\";\n    }\n\n    function getEvidenceByCaseID(uint256 _caseID) public view returns (Evidence[] memory) {\n        require(cases[_caseID].caseID != 0, \"Case does not exist\");\n        return caseEvidence[_caseID];\n    }\n\n    function getEvidenceByType(uint256 _caseID, string memory _evidenceType) public view returns (Evidence[] memory) {\n        require(cases[_caseID].caseID != 0, \"Case does not exist\");\n\n        uint256 count = 0;\n        for (uint256 i = 0; i < caseEvidence[_caseID].length; i++) {\n            if (keccak256(abi.encodePacked(caseEvidence[_caseID][i].evidenceType)) == keccak256(abi.encodePacked(_evidenceType))) {\n                count++;\n            }\n        }\n\n        Evidence[] memory filteredEvidence = new Evidence[](count);\n        uint256 index = 0;\n        for (uint256 i = 0; i < caseEvidence[_caseID].length; i++) {\n            if (keccak256(abi.encodePacked(caseEvidence[_caseID][i].evidenceType)) == keccak256(abi.encodePacked(_evidenceType))) {\n                filteredEvidence[index] = caseEvidence[_caseID][i];\n                index++;\n            }\n        }\n\n        return filteredEvidence;\n    }\n}\n",
  "sourcePath": "/home/juthindu/Blockchsin/11/contracts/SecureEvidence.sol",
  "compiler": {
    "name": "solc",
    "version": "0.8.26+commit.8a97fa7a.Emscripten.clang"
  },
  "schemaVersion": "3.4.16",
  "updatedAt": "2024-06-05T17:35:56.036Z",
  "networkType": "ethereum",
  "devdoc": {
    "kind": "dev",
    "methods": {},
    "version": 1
  },
  "userdoc": {
    "kind": "user",
    "methods": {},
    "version": 1
  }
}